{"contracts/RuleRegistry.sol":{"RuleRegistry":{"abi":[{"inputs":[{"internalType":"address","name":"_usdcToken","type":"address"},{"internalType":"address","name":"_forwarderAddress","type":"address"}],"stateMutability":"nonpayable","type":"constructor"},{"inputs":[{"internalType":"address","name":"received","type":"address"},{"internalType":"address","name":"expected","type":"address"}],"name":"InvalidAuthor","type":"error"},{"inputs":[],"name":"InvalidForwarderAddress","type":"error"},{"inputs":[{"internalType":"address","name":"sender","type":"address"},{"internalType":"address","name":"expected","type":"address"}],"name":"InvalidSender","type":"error"},{"inputs":[{"internalType":"bytes32","name":"received","type":"bytes32"},{"internalType":"bytes32","name":"expected","type":"bytes32"}],"name":"InvalidWorkflowId","type":"error"},{"inputs":[{"internalType":"bytes10","name":"received","type":"bytes10"},{"internalType":"bytes10","name":"expected","type":"bytes10"}],"name":"InvalidWorkflowName","type":"error"},{"inputs":[{"internalType":"address","name":"owner","type":"address"}],"name":"OwnableInvalidOwner","type":"error"},{"inputs":[{"internalType":"address","name":"account","type":"address"}],"name":"OwnableUnauthorizedAccount","type":"error"},{"inputs":[],"name":"WorkflowNameRequiresAuthorValidation","type":"error"},{"anonymous":false,"inputs":[{"indexed":true,"internalType":"address","name":"previousAuthor","type":"address"},{"indexed":true,"internalType":"address","name":"newAuthor","type":"address"}],"name":"ExpectedAuthorUpdated","type":"event"},{"anonymous":false,"inputs":[{"indexed":true,"internalType":"bytes32","name":"previousId","type":"bytes32"},{"indexed":true,"internalType":"bytes32","name":"newId","type":"bytes32"}],"name":"ExpectedWorkflowIdUpdated","type":"event"},{"anonymous":false,"inputs":[{"indexed":true,"internalType":"bytes10","name":"previousName","type":"bytes10"},{"indexed":true,"internalType":"bytes10","name":"newName","type":"bytes10"}],"name":"ExpectedWorkflowNameUpdated","type":"event"},{"anonymous":false,"inputs":[{"indexed":true,"internalType":"address","name":"previousForwarder","type":"address"},{"indexed":true,"internalType":"address","name":"newForwarder","type":"address"}],"name":"ForwarderAddressUpdated","type":"event"},{"anonymous":false,"inputs":[{"indexed":true,"internalType":"address","name":"previousOwner","type":"address"},{"indexed":true,"internalType":"address","name":"newOwner","type":"address"}],"name":"OwnershipTransferred","type":"event"},{"anonymous":false,"inputs":[{"indexed":true,"internalType":"uint256","name":"ruleId","type":"uint256"},{"indexed":true,"internalType":"bytes32","name":"id","type":"bytes32"},{"indexed":false,"internalType":"string","name":"asset","type":"string"},{"indexed":false,"internalType":"string","name":"condition","type":"string"},{"indexed":false,"internalType":"uint256","name":"targetPriceUsd","type":"uint256"},{"indexed":false,"internalType":"uint256","name":"createdAt","type":"uint256"}],"name":"RuleCreated","type":"event"},{"anonymous":false,"inputs":[{"indexed":false,"internalType":"string","name":"message","type":"string"}],"name":"SecurityWarning","type":"event"},{"anonymous":false,"inputs":[{"indexed":true,"internalType":"address","name":"token","type":"address"},{"indexed":true,"internalType":"address","name":"to","type":"address"},{"indexed":false,"internalType":"uint256","name":"amount","type":"uint256"}],"name":"Withdrawal","type":"event"},{"inputs":[],"name":"getAllRules","outputs":[{"components":[{"internalType":"bytes32","name":"id","type":"bytes32"},{"internalType":"string","name":"asset","type":"string"},{"internalType":"string","name":"condition","type":"string"},{"internalType":"uint256","name":"targetPriceUsd","type":"uint256"},{"internalType":"uint256","name":"createdAt","type":"uint256"}],"internalType":"struct RuleRegistry.Rule[]","name":"","type":"tuple[]"}],"stateMutability":"view","type":"function"},{"inputs":[],"name":"getExpectedAuthor","outputs":[{"internalType":"address","name":"","type":"address"}],"stateMutability":"view","type":"function"},{"inputs":[],"name":"getExpectedWorkflowId","outputs":[{"internalType":"bytes32","name":"","type":"bytes32"}],"stateMutability":"view","type":"function"},{"inputs":[],"name":"getExpectedWorkflowName","outputs":[{"internalType":"bytes10","name":"","type":"bytes10"}],"stateMutability":"view","type":"function"},{"inputs":[],"name":"getForwarderAddress","outputs":[{"internalType":"address","name":"","type":"address"}],"stateMutability":"view","type":"function"},{"inputs":[{"internalType":"uint256","name":"_ruleId","type":"uint256"}],"name":"getRule","outputs":[{"components":[{"internalType":"bytes32","name":"id","type":"bytes32"},{"internalType":"string","name":"asset","type":"string"},{"internalType":"string","name":"condition","type":"string"},{"internalType":"uint256","name":"targetPriceUsd","type":"uint256"},{"internalType":"uint256","name":"createdAt","type":"uint256"}],"internalType":"struct RuleRegistry.Rule","name":"","type":"tuple"}],"stateMutability":"view","type":"function"},{"inputs":[],"name":"getRuleCount","outputs":[{"internalType":"uint256","name":"","type":"uint256"}],"stateMutability":"view","type":"function"},{"inputs":[],"name":"getUSDCBalance","outputs":[{"internalType":"uint256","name":"","type":"uint256"}],"stateMutability":"view","type":"function"},{"inputs":[],"name":"nextRuleId","outputs":[{"internalType":"uint256","name":"","type":"uint256"}],"stateMutability":"view","type":"function"},{"inputs":[{"internalType":"bytes","name":"metadata","type":"bytes"},{"internalType":"bytes","name":"report","type":"bytes"}],"name":"onReport","outputs":[],"stateMutability":"nonpayable","type":"function"},{"inputs":[],"name":"owner","outputs":[{"internalType":"address","name":"","type":"address"}],"stateMutability":"view","type":"function"},{"inputs":[],"name":"renounceOwnership","outputs":[],"stateMutability":"nonpayable","type":"function"},{"inputs":[{"internalType":"uint256","name":"","type":"uint256"}],"name":"rules","outputs":[{"internalType":"bytes32","name":"id","type":"bytes32"},{"internalType":"string","name":"asset","type":"string"},{"internalType":"string","name":"condition","type":"string"},{"internalType":"uint256","name":"targetPriceUsd","type":"uint256"},{"internalType":"uint256","name":"createdAt","type":"uint256"}],"stateMutability":"view","type":"function"},{"inputs":[{"internalType":"address","name":"_author","type":"address"}],"name":"setExpectedAuthor","outputs":[],"stateMutability":"nonpayable","type":"function"},{"inputs":[{"internalType":"bytes32","name":"_id","type":"bytes32"}],"name":"setExpectedWorkflowId","outputs":[],"stateMutability":"nonpayable","type":"function"},{"inputs":[{"internalType":"string","name":"_name","type":"string"}],"name":"setExpectedWorkflowName","outputs":[],"stateMutability":"nonpayable","type":"function"},{"inputs":[{"internalType":"address","name":"_forwarder","type":"address"}],"name":"setForwarderAddress","outputs":[],"stateMutability":"nonpayable","type":"function"},{"inputs":[{"internalType":"bytes4","name":"interfaceId","type":"bytes4"}],"name":"supportsInterface","outputs":[{"internalType":"bool","name":"","type":"bool"}],"stateMutability":"pure","type":"function"},{"inputs":[{"internalType":"address","name":"newOwner","type":"address"}],"name":"transferOwnership","outputs":[],"stateMutability":"nonpayable","type":"function"},{"inputs":[],"name":"usdcToken","outputs":[{"internalType":"address","name":"","type":"address"}],"stateMutability":"view","type":"function"},{"inputs":[{"internalType":"address","name":"to","type":"address"},{"internalType":"uint256","name":"amount","type":"uint256"}],"name":"withdrawUSDC","outputs":[],"stateMutability":"nonpayable","type":"function"}],"evm":{"bytecode":{"linkReferences":{},"object":"608060405234801561001057600080fd5b50604051611f07380380611f0783398101604081905261002f9161023d565b80338061005757604051631e4fbdf760e01b8152600060048201526024015b60405180910390fd5b610060816101d1565b506001600160a01b0381166100875760405162e0775560e61b815260040160405180910390fd5b600180546001600160a01b0319166001600160a01b0383169081179091556040516000907f039ad854736757070884dd787ef1a7f58db33546639d1f3efddcf4a33fb8997e908290a3506001600160a01b03821661013e5760405162461bcd60e51b815260206004820152602e60248201527f52756c6552656769737472793a2053545420746f6b656e20616464726573732060448201526d63616e6e6f74206265207a65726f60901b606482015260840161004e565b6001600160a01b0381166101ab5760405162461bcd60e51b815260206004820152602e60248201527f52756c6552656769737472793a20466f7277617264657220616464726573732060448201526d63616e6e6f74206265207a65726f60901b606482015260840161004e565b50600480546001600160a01b0319166001600160a01b0392909216919091179055610270565b600080546001600160a01b038381166001600160a01b0319831681178455604051919092169283917f8be0079c531659141344cd1fd0a4f28419497f9722a3daafe3b4186f6b6457e09190a35050565b80516001600160a01b038116811461023857600080fd5b919050565b6000806040838503121561025057600080fd5b61025983610221565b915061026760208401610221565b90509250929050565b611c888061027f6000396000f3fe608060405234801561001057600080fd5b50600436106101375760003560e01c806370f047b0116100b8578063bc1fc27a1161007c578063bc1fc27a14610298578063c3c44ac2146102ab578063d60c884b146102be578063d777cc6d146102d1578063f2fde38b146102e4578063f5c793ef146102f757600080fd5b806370f047b01461023d578063715018a614610246578063805f21321461024e5780638da5cb5b14610261578063a619d8181461027257600080fd5b80633441856f116100ff5780633441856f146101d95780633cfd1ccc146101ea57806344471fd91461020057806348462037146102155780635c3ca9101461023557600080fd5b806301ffc9a71461013c57806304d6ded4146101645780631184aef21461018857806311eac8551461019d5780633397cf67146101c8575b600080fd5b61014f61014a366004611571565b6102ff565b60405190151581526020015b60405180910390f35b6101776101723660046115a2565b610336565b60405161015b959493929190611601565b610190610475565b60405161015b919061169a565b6004546101b0906001600160a01b031681565b6040516001600160a01b03909116815260200161015b565b6002546001600160a01b03166101b0565b6001546001600160a01b03166101b0565b6101f2610695565b60405190815260200161015b565b61021361020e36600461171b565b61073e565b005b6102286102233660046115a2565b610a21565b60405161015b9190611745565b6005546101f2565b6101f260055481565b610213610c04565b61021361025c3660046117a1565b610c18565b6000546001600160a01b03166101b0565b600254600160a01b900460b01b6040516001600160b01b0319909116815260200161015b565b6102136102a6366004611812565b610e4c565b6102136102b93660046115a2565b611036565b6102136102cc366004611854565b611077565b6102136102df366004611854565b6110d1565b6102136102f2366004611854565b6111cd565b6003546101f2565b60006001600160e01b0319821663402f909960e11b148061033057506001600160e01b031982166301ffc9a760e01b145b92915050565b600660205260009081526040902080546001820180549192916103589061186f565b80601f01602080910402602001604051908101604052809291908181526020018280546103849061186f565b80156103d15780601f106103a6576101008083540402835291602001916103d1565b820191906000526020600020905b8154815290600101906020018083116103b457829003601f168201915b5050505050908060020180546103e69061186f565b80601f01602080910402602001604051908101604052809291908181526020018280546104129061186f565b801561045f5780601f106104345761010080835404028352916020019161045f565b820191906000526020600020905b81548152906001019060200180831161044257829003601f168201915b5050505050908060030154908060040154905085565b6060600060055467ffffffffffffffff811115610494576104946118a3565b6040519080825280602002602001820160405280156104fa57816020015b6104e76040518060a0016040528060008019168152602001606081526020016060815260200160008152602001600081525090565b8152602001906001900390816104b25790505b50905060005b60055481101561068f57600660008281526020019081526020016000206040518060a0016040529081600082015481526020016001820180546105429061186f565b80601f016020809104026020016040519081016040528092919081815260200182805461056e9061186f565b80156105bb5780601f10610590576101008083540402835291602001916105bb565b820191906000526020600020905b81548152906001019060200180831161059e57829003601f168201915b505050505081526020016002820180546105d49061186f565b80601f01602080910402602001604051908101604052809291908181526020018280546106009061186f565b801561064d5780601f106106225761010080835404028352916020019161064d565b820191906000526020600020905b81548152906001019060200180831161063057829003601f168201915b505050505081526020016003820154815260200160048201548152505082828151811061067c5761067c6118b9565b6020908102919091010152600101610500565b50919050565b6004546000906001600160a01b03166106c95760405162461bcd60e51b81526004016106c0906118cf565b60405180910390fd5b600480546040516370a0823160e01b815230928101929092526001600160a01b03169081906370a0823190602401602060405180830381865afa158015610714573d6000803e3d6000fd5b505050506040513d601f19601f820116820180604052508101906107389190611916565b91505090565b61074661120b565b6004546001600160a01b031661076e5760405162461bcd60e51b81526004016106c0906118cf565b6001600160a01b0382166107d45760405162461bcd60e51b815260206004820152602760248201527f52756c6552656769737472793a20696e76616c696420726563697069656e74206044820152666164647265737360c81b60648201526084016106c0565b6000811161083b5760405162461bcd60e51b815260206004820152602e60248201527f52756c6552656769737472793a20616d6f756e74206d7573742062652067726560448201526d61746572207468616e207a65726f60901b60648201526084016106c0565b600480546040516370a0823160e01b815230928101929092526001600160a01b03169060009082906370a0823190602401602060405180830381865afa158015610889573d6000803e3d6000fd5b505050506040513d601f19601f820116820180604052508101906108ad9190611916565b90508281101561090e5760405162461bcd60e51b815260206004820152602660248201527f52756c6552656769737472793a20696e73756666696369656e74205354542062604482015265616c616e636560d01b60648201526084016106c0565b60405163a9059cbb60e01b81526001600160a01b0385811660048301526024820185905283169063a9059cbb906044016020604051808303816000875af115801561095d573d6000803e3d6000fd5b505050506040513d601f19601f82011682018060405250810190610981919061192f565b6109d75760405162461bcd60e51b815260206004820152602160248201527f52756c6552656769737472793a20535454207472616e73666572206661696c656044820152601960fa1b60648201526084016106c0565b6004546040518481526001600160a01b038681169216907f2717ead6b9200dd235aad468c9809ea400fe33ac69b5bfaa6d3e90fc922b63989060200160405180910390a350505050565b610a566040518060a0016040528060008019168152602001606081526020016060815260200160008152602001600081525090565b6005548210610a9d5760405162461bcd60e51b8152602060048201526013602482015272149d5b1948191bd95cc81b9bdd08195e1a5cdd606a1b60448201526064016106c0565b600660008381526020019081526020016000206040518060a001604052908160008201548152602001600182018054610ad59061186f565b80601f0160208091040260200160405190810160405280929190818152602001828054610b019061186f565b8015610b4e5780601f10610b2357610100808354040283529160200191610b4e565b820191906000526020600020905b815481529060010190602001808311610b3157829003601f168201915b50505050508152602001600282018054610b679061186f565b80601f0160208091040260200160405190810160405280929190818152602001828054610b939061186f565b8015610be05780601f10610bb557610100808354040283529160200191610be0565b820191906000526020600020905b815481529060010190602001808311610bc357829003601f168201915b50505050508152602001600382015481526020016004820154815250509050919050565b610c0c61120b565b610c166000611238565b565b6001546001600160a01b031615801590610c3d57506001546001600160a01b03163314155b15610c705760015460405163708986dd60e11b81523360048201526001600160a01b0390911660248201526044016106c0565b600354151580610c8a57506002546001600160a01b031615155b80610caa5750600254600160a01b900460b01b6001600160b01b03191615155b15610e3c576000806000610cf387878080601f01602080910402602001604051908101604052809392919081815260200183838082843760009201919091525061128892505050565b600354929550909350915015801590610d0e57506003548314155b15610d3a57600354604051634dfd1cdd60e11b81526106c0918591600401918252602082015260400190565b6002546001600160a01b031615801590610d6257506002546001600160a01b03828116911614155b15610d9757600254604051631715315f60e31b81526001600160a01b03808416600483015290911660248201526044016106c0565b600254600160a01b900460b01b6001600160b01b03191615610e38576002546001600160a01b0316610ddc57604051634847901160e01b815260040160405180910390fd5b6002546001600160b01b0319838116600160a01b90920460b01b1614610e385760025460405163362304d360e11b81526001600160b01b03198481166004830152600160a01b90920460b01b90911660248201526044016106c0565b5050505b610e4682826112a1565b50505050565b610e5461120b565b600254600160a01b900460b01b6000829003610ebc576002805469ffffffffffffffffffff60a01b191690556040516000906001600160b01b03198316907f1e7ddd09d504c82dcfc784a464b167469f5aad967606ec4822d848ef9141dfa5908390a3505050565b600060028484604051610ed0929190611951565b602060405180830381855afa158015610eed573d6000803e3d6000fd5b5050506040513d601f19601f82011682018060405250810190610f109190611916565b90506000610f3e82604051602001610f2a91815260200190565b6040516020818303038152906040526112d4565b60408051600a8082528183019092529192506000919060208201818036833701905050905060005b600a811015610fbd57828181518110610f8157610f816118b9565b602001015160f81c60f81b828281518110610f9e57610f9e6118b9565b60200101906001600160f81b031916908160001a905350600101610f66565b50610fc781611961565b6002805469ffffffffffffffffffff60a01b1916600160a01b60b093841c81029190911791829055604051910490911b6001600160b01b031990811691908616907f1e7ddd09d504c82dcfc784a464b167469f5aad967606ec4822d848ef9141dfa590600090a3505050505050565b61103e61120b565b6003805490829055604051829082907f0dbedcdf21925e053b4c574eae180d7f2883235ab4976ecc0873598a2a999b0390600090a35050565b61107f61120b565b600280546001600160a01b038381166001600160a01b0319831681179093556040519116919082907f3321cda85c145617e47418aa14255e9dcbec53a753778e57591703b89a3cad3190600090a35050565b6110d961120b565b6001546001600160a01b0390811690821661117c577f704da7db165c79c1e33d542c079333bbde970a733032d2f95fec8fb7d770cbf76040516111739060208082526038908201527f466f7277617264657220616464726573732073657420746f207a65726f202d2060408201527f636f6e7472616374206973206e6f7720494e5345435552450000000000000000606082015260800190565b60405180910390a15b600180546001600160a01b0319166001600160a01b0384811691821790925560405190918316907f039ad854736757070884dd787ef1a7f58db33546639d1f3efddcf4a33fb8997e90600090a35050565b6111d561120b565b6001600160a01b0381166111ff57604051631e4fbdf760e01b8152600060048201526024016106c0565b61120881611238565b50565b6000546001600160a01b03163314610c165760405163118cdaa760e01b81523360048201526024016106c0565b600080546001600160a01b038381166001600160a01b0319831681178455604051919092169283917f8be0079c531659141344cd1fd0a4f28419497f9722a3daafe3b4186f6b6457e09190a35050565b60208101516040820151604a83015160601c9193909250565b6000808080806112b386880188611a2e565b945094509450945094506112ca8585858585611495565b5050505050505050565b60606000825160026112e69190611ac8565b67ffffffffffffffff8111156112fe576112fe6118a3565b6040519080825280601f01601f191660200182016040528015611328576020820181803683370190505b50905060005b835181101561148e576040518060400160405280601081526020016f181899199a1a9b1b9c1cb0b131b232b360811b8152506004858381518110611374576113746118b9565b016020015182516001600160f81b031990911690911c60f81c90811061139c5761139c6118b9565b01602001516001600160f81b031916826113b7836002611ac8565b815181106113c7576113c76118b9565b60200101906001600160f81b031916908160001a9053506040518060400160405280601081526020016f181899199a1a9b1b9c1cb0b131b232b360811b815250848281518110611419576114196118b9565b602091010151815160f89190911c600f16908110611439576114396118b9565b01602001516001600160f81b03191682611454836002611ac8565b61145f906001611adf565b8151811061146f5761146f6118b9565b60200101906001600160f81b031916908160001a90535060010161132e565b5092915050565b600580546000918190836114a883611af2565b90915550506040805160a081018252888152602080820189815282840189905260608301889052608083018790526000858152600690925292902081518155915190919060018201906114fb9082611b5a565b50604082015160028201906115109082611b5a565b50606082015181600301556080820151816004015590505086817f500f12fa025b5c2655bd0938cc63539362f2b7adffd81d9ea12ffadd042061ce8888888860405161155f9493929190611c19565b60405180910390a39695505050505050565b60006020828403121561158357600080fd5b81356001600160e01b03198116811461159b57600080fd5b9392505050565b6000602082840312156115b457600080fd5b5035919050565b6000815180845260005b818110156115e1576020818501810151868301820152016115c5565b506000602082860101526020601f19601f83011685010191505092915050565b85815260a06020820152600061161a60a08301876115bb565b828103604084015261162c81876115bb565b60608401959095525050608001529392505050565b805182526000602082015160a0602085015261166060a08501826115bb565b90506040830151848203604086015261167982826115bb565b91505060608301516060850152608083015160808501528091505092915050565b6000602082016020835280845180835260408501915060408160051b86010192506020860160005b828110156116f357603f198786030184526116de858351611641565b945060209384019391909101906001016116c2565b50929695505050505050565b80356001600160a01b038116811461171657600080fd5b919050565b6000806040838503121561172e57600080fd5b611737836116ff565b946020939093013593505050565b60208152600061159b6020830184611641565b60008083601f84011261176a57600080fd5b50813567ffffffffffffffff81111561178257600080fd5b60208301915083602082850101111561179a57600080fd5b9250929050565b600080600080604085870312156117b757600080fd5b843567ffffffffffffffff8111156117ce57600080fd5b6117da87828801611758565b909550935050602085013567ffffffffffffffff8111156117fa57600080fd5b61180687828801611758565b95989497509550505050565b6000806020838503121561182557600080fd5b823567ffffffffffffffff81111561183c57600080fd5b61184885828601611758565b90969095509350505050565b60006020828403121561186657600080fd5b61159b826116ff565b600181811c9082168061188357607f821691505b60208210810361068f57634e487b7160e01b600052602260045260246000fd5b634e487b7160e01b600052604160045260246000fd5b634e487b7160e01b600052603260045260246000fd5b60208082526027908201527f52756c6552656769737472793a2053545420746f6b656e2061646472657373206040820152661b9bdd081cd95d60ca1b606082015260800190565b60006020828403121561192857600080fd5b5051919050565b60006020828403121561194157600080fd5b8151801515811461159b57600080fd5b8183823760009101908152919050565b805160208201516001600160b01b031981169190600a821015611998576001600160b01b0319600a83900360031b81901b82161692505b5050919050565b600082601f8301126119b057600080fd5b813567ffffffffffffffff8111156119ca576119ca6118a3565b604051601f8201601f19908116603f0116810167ffffffffffffffff811182821017156119f9576119f96118a3565b604052818152838201602001851015611a1157600080fd5b816020850160208301376000918101602001919091529392505050565b600080600080600060a08688031215611a4657600080fd5b85359450602086013567ffffffffffffffff811115611a6457600080fd5b611a708882890161199f565b945050604086013567ffffffffffffffff811115611a8d57600080fd5b611a998882890161199f565b9598949750949560608101359550608001359392505050565b634e487b7160e01b600052601160045260246000fd5b808202811582820484141761033057610330611ab2565b8082018082111561033057610330611ab2565b600060018201611b0457611b04611ab2565b5060010190565b601f821115611b5557806000526020600020601f840160051c81016020851015611b325750805b601f840160051c820191505b81811015611b525760008155600101611b3e565b50505b505050565b815167ffffffffffffffff811115611b7457611b746118a3565b611b8881611b82845461186f565b84611b0b565b6020601f821160018114611bbc5760008315611ba45750848201515b600019600385901b1c1916600184901b178455611b52565b600084815260208120601f198516915b82811015611bec5787850151825560209485019460019092019101611bcc565b5084821015611c0a5786840151600019600387901b60f8161c191681555b50505050600190811b01905550565b608081526000611c2c60808301876115bb565b8281036020840152611c3e81876115bb565b60408401959095525050606001529291505056fea26469706673582212207933df1e9a4e4059bdde96a9f1356f0ed592d10eb75adcf4c2cbce7907d8b3d464736f6c634300081e0033","opcodes":"PUSH1 0x80 PUSH1 0x40 MSTORE CALLVALUE DUP1 ISZERO PUSH2 0x10 JUMPI PUSH1 0x0 DUP1 REVERT JUMPDEST POP PUSH1 0x40 MLOAD PUSH2 0x1F07 CODESIZE SUB DUP1 PUSH2 0x1F07 DUP4 CODECOPY DUP2 ADD PUSH1 0x40 DUP2 SWAP1 MSTORE PUSH2 0x2F SWAP2 PUSH2 0x23D JUMP JUMPDEST DUP1 CALLER DUP1 PUSH2 0x57 JUMPI PUSH1 0x40 MLOAD PUSH4 0x1E4FBDF7 PUSH1 0xE0 SHL DUP2 MSTORE PUSH1 0x0 PUSH1 0x4 DUP3 ADD MSTORE PUSH1 0x24 ADD JUMPDEST PUSH1 0x40 MLOAD DUP1 SWAP2 SUB SWAP1 REVERT JUMPDEST PUSH2 0x60 DUP2 PUSH2 0x1D1 JUMP JUMPDEST POP PUSH1 0x1 PUSH1 0x1 PUSH1 0xA0 SHL SUB DUP2 AND PUSH2 0x87 JUMPI PUSH1 0x40 MLOAD PUSH3 0xE07755 PUSH1 0xE6 SHL DUP2 MSTORE PUSH1 0x4 ADD PUSH1 0x40 MLOAD DUP1 SWAP2 SUB SWAP1 REVERT JUMPDEST PUSH1 0x1 DUP1 SLOAD PUSH1 0x1 PUSH1 0x1 PUSH1 0xA0 SHL SUB NOT AND PUSH1 0x1 PUSH1 0x1 PUSH1 0xA0 SHL SUB DUP4 AND SWAP1 DUP2 OR SWAP1 SWAP2 SSTORE PUSH1 0x40 MLOAD PUSH1 0x0 SWAP1 PUSH32 0x39AD854736757070884DD787EF1A7F58DB33546639D1F3EFDDCF4A33FB8997E SWAP1 DUP3 SWAP1 LOG3 POP PUSH1 0x1 PUSH1 0x1 PUSH1 0xA0 SHL SUB DUP3 AND PUSH2 0x13E JUMPI PUSH1 0x40 MLOAD PUSH3 0x461BCD PUSH1 0xE5 SHL DUP2 MSTORE PUSH1 0x20 PUSH1 0x4 DUP3 ADD MSTORE PUSH1 0x2E PUSH1 0x24 DUP3 ADD MSTORE PUSH32 0x52756C6552656769737472793A2053545420746F6B656E206164647265737320 PUSH1 0x44 DUP3 ADD MSTORE PUSH14 0x63616E6E6F74206265207A65726F PUSH1 0x90 SHL PUSH1 0x64 DUP3 ADD MSTORE PUSH1 0x84 ADD PUSH2 0x4E JUMP JUMPDEST PUSH1 0x1 PUSH1 0x1 PUSH1 0xA0 SHL SUB DUP2 AND PUSH2 0x1AB JUMPI PUSH1 0x40 MLOAD PUSH3 0x461BCD PUSH1 0xE5 SHL DUP2 MSTORE PUSH1 0x20 PUSH1 0x4 DUP3 ADD MSTORE PUSH1 0x2E PUSH1 0x24 DUP3 ADD MSTORE PUSH32 0x52756C6552656769737472793A20466F72776172646572206164647265737320 PUSH1 0x44 DUP3 ADD MSTORE PUSH14 0x63616E6E6F74206265207A65726F PUSH1 0x90 SHL PUSH1 0x64 DUP3 ADD MSTORE PUSH1 0x84 ADD PUSH2 0x4E JUMP JUMPDEST POP PUSH1 0x4 DUP1 SLOAD PUSH1 0x1 PUSH1 0x1 PUSH1 0xA0 SHL SUB NOT AND PUSH1 0x1 PUSH1 0x1 PUSH1 0xA0 SHL SUB SWAP3 SWAP1 SWAP3 AND SWAP2 SWAP1 SWAP2 OR SWAP1 SSTORE PUSH2 0x270 JUMP JUMPDEST PUSH1 0x0 DUP1 SLOAD PUSH1 0x1 PUSH1 0x1 PUSH1 0xA0 SHL SUB DUP4 DUP2 AND PUSH1 0x1 PUSH1 0x1 PUSH1 0xA0 SHL SUB NOT DUP4 AND DUP2 OR DUP5 SSTORE PUSH1 0x40 MLOAD SWAP2 SWAP1 SWAP3 AND SWAP3 DUP4 SWAP2 PUSH32 0x8BE0079C531659141344CD1FD0A4F28419497F9722A3DAAFE3B4186F6B6457E0 SWAP2 SWAP1 LOG3 POP POP JUMP JUMPDEST DUP1 MLOAD PUSH1 0x1 PUSH1 0x1 PUSH1 0xA0 SHL SUB DUP2 AND DUP2 EQ PUSH2 0x238 JUMPI PUSH1 0x0 DUP1 REVERT JUMPDEST SWAP2 SWAP1 POP JUMP JUMPDEST PUSH1 0x0 DUP1 PUSH1 0x40 DUP4 DUP6 SUB SLT ISZERO PUSH2 0x250 JUMPI PUSH1 0x0 DUP1 REVERT JUMPDEST PUSH2 0x259 DUP4 PUSH2 0x221 JUMP JUMPDEST SWAP2 POP PUSH2 0x267 PUSH1 0x20 DUP5 ADD PUSH2 0x221 JUMP JUMPDEST SWAP1 POP SWAP3 POP SWAP3 SWAP1 POP JUMP JUMPDEST PUSH2 0x1C88 DUP1 PUSH2 0x27F PUSH1 0x0 CODECOPY PUSH1 0x0 RETURN INVALID PUSH1 0x80 PUSH1 0x40 MSTORE CALLVALUE DUP1 ISZERO PUSH2 0x10 JUMPI PUSH1 0x0 DUP1 REVERT JUMPDEST POP PUSH1 0x4 CALLDATASIZE LT PUSH2 0x137 JUMPI PUSH1 0x0 CALLDATALOAD PUSH1 0xE0 SHR DUP1 PUSH4 0x70F047B0 GT PUSH2 0xB8 JUMPI DUP1 PUSH4 0xBC1FC27A GT PUSH2 0x7C JUMPI DUP1 PUSH4 0xBC1FC27A EQ PUSH2 0x298 JUMPI DUP1 PUSH4 0xC3C44AC2 EQ PUSH2 0x2AB JUMPI DUP1 PUSH4 0xD60C884B EQ PUSH2 0x2BE JUMPI DUP1 PUSH4 0xD777CC6D EQ PUSH2 0x2D1 JUMPI DUP1 PUSH4 0xF2FDE38B EQ PUSH2 0x2E4 JUMPI DUP1 PUSH4 0xF5C793EF EQ PUSH2 0x2F7 JUMPI PUSH1 0x0 DUP1 REVERT JUMPDEST DUP1 PUSH4 0x70F047B0 EQ PUSH2 0x23D JUMPI DUP1 PUSH4 0x715018A6 EQ PUSH2 0x246 JUMPI DUP1 PUSH4 0x805F2132 EQ PUSH2 0x24E JUMPI DUP1 PUSH4 0x8DA5CB5B EQ PUSH2 0x261 JUMPI DUP1 PUSH4 0xA619D818 EQ PUSH2 0x272 JUMPI PUSH1 0x0 DUP1 REVERT JUMPDEST DUP1 PUSH4 0x3441856F GT PUSH2 0xFF JUMPI DUP1 PUSH4 0x3441856F EQ PUSH2 0x1D9 JUMPI DUP1 PUSH4 0x3CFD1CCC EQ PUSH2 0x1EA JUMPI DUP1 PUSH4 0x44471FD9 EQ PUSH2 0x200 JUMPI DUP1 PUSH4 0x48462037 EQ PUSH2 0x215 JUMPI DUP1 PUSH4 0x5C3CA910 EQ PUSH2 0x235 JUMPI PUSH1 0x0 DUP1 REVERT JUMPDEST DUP1 PUSH4 0x1FFC9A7 EQ PUSH2 0x13C JUMPI DUP1 PUSH4 0x4D6DED4 EQ PUSH2 0x164 JUMPI DUP1 PUSH4 0x1184AEF2 EQ PUSH2 0x188 JUMPI DUP1 PUSH4 0x11EAC855 EQ PUSH2 0x19D JUMPI DUP1 PUSH4 0x3397CF67 EQ PUSH2 0x1C8 JUMPI JUMPDEST PUSH1 0x0 DUP1 REVERT JUMPDEST PUSH2 0x14F PUSH2 0x14A CALLDATASIZE PUSH1 0x4 PUSH2 0x1571 JUMP JUMPDEST PUSH2 0x2FF JUMP JUMPDEST PUSH1 0x40 MLOAD SWAP1 ISZERO ISZERO DUP2 MSTORE PUSH1 0x20 ADD JUMPDEST PUSH1 0x40 MLOAD DUP1 SWAP2 SUB SWAP1 RETURN JUMPDEST PUSH2 0x177 PUSH2 0x172 CALLDATASIZE PUSH1 0x4 PUSH2 0x15A2 JUMP JUMPDEST PUSH2 0x336 JUMP JUMPDEST PUSH1 0x40 MLOAD PUSH2 0x15B SWAP6 SWAP5 SWAP4 SWAP3 SWAP2 SWAP1 PUSH2 0x1601 JUMP JUMPDEST PUSH2 0x190 PUSH2 0x475 JUMP JUMPDEST PUSH1 0x40 MLOAD PUSH2 0x15B SWAP2 SWAP1 PUSH2 0x169A JUMP JUMPDEST PUSH1 0x4 SLOAD PUSH2 0x1B0 SWAP1 PUSH1 0x1 PUSH1 0x1 PUSH1 0xA0 SHL SUB AND DUP2 JUMP JUMPDEST PUSH1 0x40 MLOAD PUSH1 0x1 PUSH1 0x1 PUSH1 0xA0 SHL SUB SWAP1 SWAP2 AND DUP2 MSTORE PUSH1 0x20 ADD PUSH2 0x15B JUMP JUMPDEST PUSH1 0x2 SLOAD PUSH1 0x1 PUSH1 0x1 PUSH1 0xA0 SHL SUB AND PUSH2 0x1B0 JUMP JUMPDEST PUSH1 0x1 SLOAD PUSH1 0x1 PUSH1 0x1 PUSH1 0xA0 SHL SUB AND PUSH2 0x1B0 JUMP JUMPDEST PUSH2 0x1F2 PUSH2 0x695 JUMP JUMPDEST PUSH1 0x40 MLOAD SWAP1 DUP2 MSTORE PUSH1 0x20 ADD PUSH2 0x15B JUMP JUMPDEST PUSH2 0x213 PUSH2 0x20E CALLDATASIZE PUSH1 0x4 PUSH2 0x171B JUMP JUMPDEST PUSH2 0x73E JUMP JUMPDEST STOP JUMPDEST PUSH2 0x228 PUSH2 0x223 CALLDATASIZE PUSH1 0x4 PUSH2 0x15A2 JUMP JUMPDEST PUSH2 0xA21 JUMP JUMPDEST PUSH1 0x40 MLOAD PUSH2 0x15B SWAP2 SWAP1 PUSH2 0x1745 JUMP JUMPDEST PUSH1 0x5 SLOAD PUSH2 0x1F2 JUMP JUMPDEST PUSH2 0x1F2 PUSH1 0x5 SLOAD DUP2 JUMP JUMPDEST PUSH2 0x213 PUSH2 0xC04 JUMP JUMPDEST PUSH2 0x213 PUSH2 0x25C CALLDATASIZE PUSH1 0x4 PUSH2 0x17A1 JUMP JUMPDEST PUSH2 0xC18 JUMP JUMPDEST PUSH1 0x0 SLOAD PUSH1 0x1 PUSH1 0x1 PUSH1 0xA0 SHL SUB AND PUSH2 0x1B0 JUMP JUMPDEST PUSH1 0x2 SLOAD PUSH1 0x1 PUSH1 0xA0 SHL SWAP1 DIV PUSH1 0xB0 SHL PUSH1 0x40 MLOAD PUSH1 0x1 PUSH1 0x1 PUSH1 0xB0 SHL SUB NOT SWAP1 SWAP2 AND DUP2 MSTORE PUSH1 0x20 ADD PUSH2 0x15B JUMP JUMPDEST PUSH2 0x213 PUSH2 0x2A6 CALLDATASIZE PUSH1 0x4 PUSH2 0x1812 JUMP JUMPDEST PUSH2 0xE4C JUMP JUMPDEST PUSH2 0x213 PUSH2 0x2B9 CALLDATASIZE PUSH1 0x4 PUSH2 0x15A2 JUMP JUMPDEST PUSH2 0x1036 JUMP JUMPDEST PUSH2 0x213 PUSH2 0x2CC CALLDATASIZE PUSH1 0x4 PUSH2 0x1854 JUMP JUMPDEST PUSH2 0x1077 JUMP JUMPDEST PUSH2 0x213 PUSH2 0x2DF CALLDATASIZE PUSH1 0x4 PUSH2 0x1854 JUMP JUMPDEST PUSH2 0x10D1 JUMP JUMPDEST PUSH2 0x213 PUSH2 0x2F2 CALLDATASIZE PUSH1 0x4 PUSH2 0x1854 JUMP JUMPDEST PUSH2 0x11CD JUMP JUMPDEST PUSH1 0x3 SLOAD PUSH2 0x1F2 JUMP JUMPDEST PUSH1 0x0 PUSH1 0x1 PUSH1 0x1 PUSH1 0xE0 SHL SUB NOT DUP3 AND PUSH4 0x402F9099 PUSH1 0xE1 SHL EQ DUP1 PUSH2 0x330 JUMPI POP PUSH1 0x1 PUSH1 0x1 PUSH1 0xE0 SHL SUB NOT DUP3 AND PUSH4 0x1FFC9A7 PUSH1 0xE0 SHL EQ JUMPDEST SWAP3 SWAP2 POP POP JUMP JUMPDEST PUSH1 0x6 PUSH1 0x20 MSTORE PUSH1 0x0 SWAP1 DUP2 MSTORE PUSH1 0x40 SWAP1 KECCAK256 DUP1 SLOAD PUSH1 0x1 DUP3 ADD DUP1 SLOAD SWAP2 SWAP3 SWAP2 PUSH2 0x358 SWAP1 PUSH2 0x186F JUMP JUMPDEST DUP1 PUSH1 0x1F ADD PUSH1 0x20 DUP1 SWAP2 DIV MUL PUSH1 0x20 ADD PUSH1 0x40 MLOAD SWAP1 DUP2 ADD PUSH1 0x40 MSTORE DUP1 SWAP3 SWAP2 SWAP1 DUP2 DUP2 MSTORE PUSH1 0x20 ADD DUP3 DUP1 SLOAD PUSH2 0x384 SWAP1 PUSH2 0x186F JUMP JUMPDEST DUP1 ISZERO PUSH2 0x3D1 JUMPI DUP1 PUSH1 0x1F LT PUSH2 0x3A6 JUMPI PUSH2 0x100 DUP1 DUP4 SLOAD DIV MUL DUP4 MSTORE SWAP2 PUSH1 0x20 ADD SWAP2 PUSH2 0x3D1 JUMP JUMPDEST DUP3 ADD SWAP2 SWAP1 PUSH1 0x0 MSTORE PUSH1 0x20 PUSH1 0x0 KECCAK256 SWAP1 JUMPDEST DUP2 SLOAD DUP2 MSTORE SWAP1 PUSH1 0x1 ADD SWAP1 PUSH1 0x20 ADD DUP1 DUP4 GT PUSH2 0x3B4 JUMPI DUP3 SWAP1 SUB PUSH1 0x1F AND DUP3 ADD SWAP2 JUMPDEST POP POP POP POP POP SWAP1 DUP1 PUSH1 0x2 ADD DUP1 SLOAD PUSH2 0x3E6 SWAP1 PUSH2 0x186F JUMP JUMPDEST DUP1 PUSH1 0x1F ADD PUSH1 0x20 DUP1 SWAP2 DIV MUL PUSH1 0x20 ADD PUSH1 0x40 MLOAD SWAP1 DUP2 ADD PUSH1 0x40 MSTORE DUP1 SWAP3 SWAP2 SWAP1 DUP2 DUP2 MSTORE PUSH1 0x20 ADD DUP3 DUP1 SLOAD PUSH2 0x412 SWAP1 PUSH2 0x186F JUMP JUMPDEST DUP1 ISZERO PUSH2 0x45F JUMPI DUP1 PUSH1 0x1F LT PUSH2 0x434 JUMPI PUSH2 0x100 DUP1 DUP4 SLOAD DIV MUL DUP4 MSTORE SWAP2 PUSH1 0x20 ADD SWAP2 PUSH2 0x45F JUMP JUMPDEST DUP3 ADD SWAP2 SWAP1 PUSH1 0x0 MSTORE PUSH1 0x20 PUSH1 0x0 KECCAK256 SWAP1 JUMPDEST DUP2 SLOAD DUP2 MSTORE SWAP1 PUSH1 0x1 ADD SWAP1 PUSH1 0x20 ADD DUP1 DUP4 GT PUSH2 0x442 JUMPI DUP3 SWAP1 SUB PUSH1 0x1F AND DUP3 ADD SWAP2 JUMPDEST POP POP POP POP POP SWAP1 DUP1 PUSH1 0x3 ADD SLOAD SWAP1 DUP1 PUSH1 0x4 ADD SLOAD SWAP1 POP DUP6 JUMP JUMPDEST PUSH1 0x60 PUSH1 0x0 PUSH1 0x5 SLOAD PUSH8 0xFFFFFFFFFFFFFFFF DUP2 GT ISZERO PUSH2 0x494 JUMPI PUSH2 0x494 PUSH2 0x18A3 JUMP JUMPDEST PUSH1 0x40 MLOAD SWAP1 DUP1 DUP3 MSTORE DUP1 PUSH1 0x20 MUL PUSH1 0x20 ADD DUP3 ADD PUSH1 0x40 MSTORE DUP1 ISZERO PUSH2 0x4FA JUMPI DUP2 PUSH1 0x20 ADD JUMPDEST PUSH2 0x4E7 PUSH1 0x40 MLOAD DUP1 PUSH1 0xA0 ADD PUSH1 0x40 MSTORE DUP1 PUSH1 0x0 DUP1 NOT AND DUP2 MSTORE PUSH1 0x20 ADD PUSH1 0x60 DUP2 MSTORE PUSH1 0x20 ADD PUSH1 0x60 DUP2 MSTORE PUSH1 0x20 ADD PUSH1 0x0 DUP2 MSTORE PUSH1 0x20 ADD PUSH1 0x0 DUP2 MSTORE POP SWAP1 JUMP JUMPDEST DUP2 MSTORE PUSH1 0x20 ADD SWAP1 PUSH1 0x1 SWAP1 SUB SWAP1 DUP2 PUSH2 0x4B2 JUMPI SWAP1 POP JUMPDEST POP SWAP1 POP PUSH1 0x0 JUMPDEST PUSH1 0x5 SLOAD DUP2 LT ISZERO PUSH2 0x68F JUMPI PUSH1 0x6 PUSH1 0x0 DUP3 DUP2 MSTORE PUSH1 0x20 ADD SWAP1 DUP2 MSTORE PUSH1 0x20 ADD PUSH1 0x0 KECCAK256 PUSH1 0x40 MLOAD DUP1 PUSH1 0xA0 ADD PUSH1 0x40 MSTORE SWAP1 DUP2 PUSH1 0x0 DUP3 ADD SLOAD DUP2 MSTORE PUSH1 0x20 ADD PUSH1 0x1 DUP3 ADD DUP1 SLOAD PUSH2 0x542 SWAP1 PUSH2 0x186F JUMP JUMPDEST DUP1 PUSH1 0x1F ADD PUSH1 0x20 DUP1 SWAP2 DIV MUL PUSH1 0x20 ADD PUSH1 0x40 MLOAD SWAP1 DUP2 ADD PUSH1 0x40 MSTORE DUP1 SWAP3 SWAP2 SWAP1 DUP2 DUP2 MSTORE PUSH1 0x20 ADD DUP3 DUP1 SLOAD PUSH2 0x56E SWAP1 PUSH2 0x186F JUMP JUMPDEST DUP1 ISZERO PUSH2 0x5BB JUMPI DUP1 PUSH1 0x1F LT PUSH2 0x590 JUMPI PUSH2 0x100 DUP1 DUP4 SLOAD DIV MUL DUP4 MSTORE SWAP2 PUSH1 0x20 ADD SWAP2 PUSH2 0x5BB JUMP JUMPDEST DUP3 ADD SWAP2 SWAP1 PUSH1 0x0 MSTORE PUSH1 0x20 PUSH1 0x0 KECCAK256 SWAP1 JUMPDEST DUP2 SLOAD DUP2 MSTORE SWAP1 PUSH1 0x1 ADD SWAP1 PUSH1 0x20 ADD DUP1 DUP4 GT PUSH2 0x59E JUMPI DUP3 SWAP1 SUB PUSH1 0x1F AND DUP3 ADD SWAP2 JUMPDEST POP POP POP POP POP DUP2 MSTORE PUSH1 0x20 ADD PUSH1 0x2 DUP3 ADD DUP1 SLOAD PUSH2 0x5D4 SWAP1 PUSH2 0x186F JUMP JUMPDEST DUP1 PUSH1 0x1F ADD PUSH1 0x20 DUP1 SWAP2 DIV MUL PUSH1 0x20 ADD PUSH1 0x40 MLOAD SWAP1 DUP2 ADD PUSH1 0x40 MSTORE DUP1 SWAP3 SWAP2 SWAP1 DUP2 DUP2 MSTORE PUSH1 0x20 ADD DUP3 DUP1 SLOAD PUSH2 0x600 SWAP1 PUSH2 0x186F JUMP JUMPDEST DUP1 ISZERO PUSH2 0x64D JUMPI DUP1 PUSH1 0x1F LT PUSH2 0x622 JUMPI PUSH2 0x100 DUP1 DUP4 SLOAD DIV MUL DUP4 MSTORE SWAP2 PUSH1 0x20 ADD SWAP2 PUSH2 0x64D JUMP JUMPDEST DUP3 ADD SWAP2 SWAP1 PUSH1 0x0 MSTORE PUSH1 0x20 PUSH1 0x0 KECCAK256 SWAP1 JUMPDEST DUP2 SLOAD DUP2 MSTORE SWAP1 PUSH1 0x1 ADD SWAP1 PUSH1 0x20 ADD DUP1 DUP4 GT PUSH2 0x630 JUMPI DUP3 SWAP1 SUB PUSH1 0x1F AND DUP3 ADD SWAP2 JUMPDEST POP POP POP POP POP DUP2 MSTORE PUSH1 0x20 ADD PUSH1 0x3 DUP3 ADD SLOAD DUP2 MSTORE PUSH1 0x20 ADD PUSH1 0x4 DUP3 ADD SLOAD DUP2 MSTORE POP POP DUP3 DUP3 DUP2 MLOAD DUP2 LT PUSH2 0x67C JUMPI PUSH2 0x67C PUSH2 0x18B9 JUMP JUMPDEST PUSH1 0x20 SWAP1 DUP2 MUL SWAP2 SWAP1 SWAP2 ADD ADD MSTORE PUSH1 0x1 ADD PUSH2 0x500 JUMP JUMPDEST POP SWAP2 SWAP1 POP JUMP JUMPDEST PUSH1 0x4 SLOAD PUSH1 0x0 SWAP1 PUSH1 0x1 PUSH1 0x1 PUSH1 0xA0 SHL SUB AND PUSH2 0x6C9 JUMPI PUSH1 0x40 MLOAD PUSH3 0x461BCD PUSH1 0xE5 SHL DUP2 MSTORE PUSH1 0x4 ADD PUSH2 0x6C0 SWAP1 PUSH2 0x18CF JUMP JUMPDEST PUSH1 0x40 MLOAD DUP1 SWAP2 SUB SWAP1 REVERT JUMPDEST PUSH1 0x4 DUP1 SLOAD PUSH1 0x40 MLOAD PUSH4 0x70A08231 PUSH1 0xE0 SHL DUP2 MSTORE ADDRESS SWAP3 DUP2 ADD SWAP3 SWAP1 SWAP3 MSTORE PUSH1 0x1 PUSH1 0x1 PUSH1 0xA0 SHL SUB AND SWAP1 DUP2 SWAP1 PUSH4 0x70A08231 SWAP1 PUSH1 0x24 ADD PUSH1 0x20 PUSH1 0x40 MLOAD DUP1 DUP4 SUB DUP2 DUP7 GAS STATICCALL ISZERO DUP1 ISZERO PUSH2 0x714 JUMPI RETURNDATASIZE PUSH1 0x0 DUP1 RETURNDATACOPY RETURNDATASIZE PUSH1 0x0 REVERT JUMPDEST POP POP POP POP PUSH1 0x40 MLOAD RETURNDATASIZE PUSH1 0x1F NOT PUSH1 0x1F DUP3 ADD AND DUP3 ADD DUP1 PUSH1 0x40 MSTORE POP DUP2 ADD SWAP1 PUSH2 0x738 SWAP2 SWAP1 PUSH2 0x1916 JUMP JUMPDEST SWAP2 POP POP SWAP1 JUMP JUMPDEST PUSH2 0x746 PUSH2 0x120B JUMP JUMPDEST PUSH1 0x4 SLOAD PUSH1 0x1 PUSH1 0x1 PUSH1 0xA0 SHL SUB AND PUSH2 0x76E JUMPI PUSH1 0x40 MLOAD PUSH3 0x461BCD PUSH1 0xE5 SHL DUP2 MSTORE PUSH1 0x4 ADD PUSH2 0x6C0 SWAP1 PUSH2 0x18CF JUMP JUMPDEST PUSH1 0x1 PUSH1 0x1 PUSH1 0xA0 SHL SUB DUP3 AND PUSH2 0x7D4 JUMPI PUSH1 0x40 MLOAD PUSH3 0x461BCD PUSH1 0xE5 SHL DUP2 MSTORE PUSH1 0x20 PUSH1 0x4 DUP3 ADD MSTORE PUSH1 0x27 PUSH1 0x24 DUP3 ADD MSTORE PUSH32 0x52756C6552656769737472793A20696E76616C696420726563697069656E7420 PUSH1 0x44 DUP3 ADD MSTORE PUSH7 0x61646472657373 PUSH1 0xC8 SHL PUSH1 0x64 DUP3 ADD MSTORE PUSH1 0x84 ADD PUSH2 0x6C0 JUMP JUMPDEST PUSH1 0x0 DUP2 GT PUSH2 0x83B JUMPI PUSH1 0x40 MLOAD PUSH3 0x461BCD PUSH1 0xE5 SHL DUP2 MSTORE PUSH1 0x20 PUSH1 0x4 DUP3 ADD MSTORE PUSH1 0x2E PUSH1 0x24 DUP3 ADD MSTORE PUSH32 0x52756C6552656769737472793A20616D6F756E74206D75737420626520677265 PUSH1 0x44 DUP3 ADD MSTORE PUSH14 0x61746572207468616E207A65726F PUSH1 0x90 SHL PUSH1 0x64 DUP3 ADD MSTORE PUSH1 0x84 ADD PUSH2 0x6C0 JUMP JUMPDEST PUSH1 0x4 DUP1 SLOAD PUSH1 0x40 MLOAD PUSH4 0x70A08231 PUSH1 0xE0 SHL DUP2 MSTORE ADDRESS SWAP3 DUP2 ADD SWAP3 SWAP1 SWAP3 MSTORE PUSH1 0x1 PUSH1 0x1 PUSH1 0xA0 SHL SUB AND SWAP1 PUSH1 0x0 SWAP1 DUP3 SWAP1 PUSH4 0x70A08231 SWAP1 PUSH1 0x24 ADD PUSH1 0x20 PUSH1 0x40 MLOAD DUP1 DUP4 SUB DUP2 DUP7 GAS STATICCALL ISZERO DUP1 ISZERO PUSH2 0x889 JUMPI RETURNDATASIZE PUSH1 0x0 DUP1 RETURNDATACOPY RETURNDATASIZE PUSH1 0x0 REVERT JUMPDEST POP POP POP POP PUSH1 0x40 MLOAD RETURNDATASIZE PUSH1 0x1F NOT PUSH1 0x1F DUP3 ADD AND DUP3 ADD DUP1 PUSH1 0x40 MSTORE POP DUP2 ADD SWAP1 PUSH2 0x8AD SWAP2 SWAP1 PUSH2 0x1916 JUMP JUMPDEST SWAP1 POP DUP3 DUP2 LT ISZERO PUSH2 0x90E JUMPI PUSH1 0x40 MLOAD PUSH3 0x461BCD PUSH1 0xE5 SHL DUP2 MSTORE PUSH1 0x20 PUSH1 0x4 DUP3 ADD MSTORE PUSH1 0x26 PUSH1 0x24 DUP3 ADD MSTORE PUSH32 0x52756C6552656769737472793A20696E73756666696369656E74205354542062 PUSH1 0x44 DUP3 ADD MSTORE PUSH6 0x616C616E6365 PUSH1 0xD0 SHL PUSH1 0x64 DUP3 ADD MSTORE PUSH1 0x84 ADD PUSH2 0x6C0 JUMP JUMPDEST PUSH1 0x40 MLOAD PUSH4 0xA9059CBB PUSH1 0xE0 SHL DUP2 MSTORE PUSH1 0x1 PUSH1 0x1 PUSH1 0xA0 SHL SUB DUP6 DUP2 AND PUSH1 0x4 DUP4 ADD MSTORE PUSH1 0x24 DUP3 ADD DUP6 SWAP1 MSTORE DUP4 AND SWAP1 PUSH4 0xA9059CBB SWAP1 PUSH1 0x44 ADD PUSH1 0x20 PUSH1 0x40 MLOAD DUP1 DUP4 SUB DUP2 PUSH1 0x0 DUP8 GAS CALL ISZERO DUP1 ISZERO PUSH2 0x95D JUMPI RETURNDATASIZE PUSH1 0x0 DUP1 RETURNDATACOPY RETURNDATASIZE PUSH1 0x0 REVERT JUMPDEST POP POP POP POP PUSH1 0x40 MLOAD RETURNDATASIZE PUSH1 0x1F NOT PUSH1 0x1F DUP3 ADD AND DUP3 ADD DUP1 PUSH1 0x40 MSTORE POP DUP2 ADD SWAP1 PUSH2 0x981 SWAP2 SWAP1 PUSH2 0x192F JUMP JUMPDEST PUSH2 0x9D7 JUMPI PUSH1 0x40 MLOAD PUSH3 0x461BCD PUSH1 0xE5 SHL DUP2 MSTORE PUSH1 0x20 PUSH1 0x4 DUP3 ADD MSTORE PUSH1 0x21 PUSH1 0x24 DUP3 ADD MSTORE PUSH32 0x52756C6552656769737472793A20535454207472616E73666572206661696C65 PUSH1 0x44 DUP3 ADD MSTORE PUSH1 0x19 PUSH1 0xFA SHL PUSH1 0x64 DUP3 ADD MSTORE PUSH1 0x84 ADD PUSH2 0x6C0 JUMP JUMPDEST PUSH1 0x4 SLOAD PUSH1 0x40 MLOAD DUP5 DUP2 MSTORE PUSH1 0x1 PUSH1 0x1 PUSH1 0xA0 SHL SUB DUP7 DUP2 AND SWAP3 AND SWAP1 PUSH32 0x2717EAD6B9200DD235AAD468C9809EA400FE33AC69B5BFAA6D3E90FC922B6398 SWAP1 PUSH1 0x20 ADD PUSH1 0x40 MLOAD DUP1 SWAP2 SUB SWAP1 LOG3 POP POP POP POP JUMP JUMPDEST PUSH2 0xA56 PUSH1 0x40 MLOAD DUP1 PUSH1 0xA0 ADD PUSH1 0x40 MSTORE DUP1 PUSH1 0x0 DUP1 NOT AND DUP2 MSTORE PUSH1 0x20 ADD PUSH1 0x60 DUP2 MSTORE PUSH1 0x20 ADD PUSH1 0x60 DUP2 MSTORE PUSH1 0x20 ADD PUSH1 0x0 DUP2 MSTORE PUSH1 0x20 ADD PUSH1 0x0 DUP2 MSTORE POP SWAP1 JUMP JUMPDEST PUSH1 0x5 SLOAD DUP3 LT PUSH2 0xA9D JUMPI PUSH1 0x40 MLOAD PUSH3 0x461BCD PUSH1 0xE5 SHL DUP2 MSTORE PUSH1 0x20 PUSH1 0x4 DUP3 ADD MSTORE PUSH1 0x13 PUSH1 0x24 DUP3 ADD MSTORE PUSH19 0x149D5B1948191BD95CC81B9BDD08195E1A5CDD PUSH1 0x6A SHL PUSH1 0x44 DUP3 ADD MSTORE PUSH1 0x64 ADD PUSH2 0x6C0 JUMP JUMPDEST PUSH1 0x6 PUSH1 0x0 DUP4 DUP2 MSTORE PUSH1 0x20 ADD SWAP1 DUP2 MSTORE PUSH1 0x20 ADD PUSH1 0x0 KECCAK256 PUSH1 0x40 MLOAD DUP1 PUSH1 0xA0 ADD PUSH1 0x40 MSTORE SWAP1 DUP2 PUSH1 0x0 DUP3 ADD SLOAD DUP2 MSTORE PUSH1 0x20 ADD PUSH1 0x1 DUP3 ADD DUP1 SLOAD PUSH2 0xAD5 SWAP1 PUSH2 0x186F JUMP JUMPDEST DUP1 PUSH1 0x1F ADD PUSH1 0x20 DUP1 SWAP2 DIV MUL PUSH1 0x20 ADD PUSH1 0x40 MLOAD SWAP1 DUP2 ADD PUSH1 0x40 MSTORE DUP1 SWAP3 SWAP2 SWAP1 DUP2 DUP2 MSTORE PUSH1 0x20 ADD DUP3 DUP1 SLOAD PUSH2 0xB01 SWAP1 PUSH2 0x186F JUMP JUMPDEST DUP1 ISZERO PUSH2 0xB4E JUMPI DUP1 PUSH1 0x1F LT PUSH2 0xB23 JUMPI PUSH2 0x100 DUP1 DUP4 SLOAD DIV MUL DUP4 MSTORE SWAP2 PUSH1 0x20 ADD SWAP2 PUSH2 0xB4E JUMP JUMPDEST DUP3 ADD SWAP2 SWAP1 PUSH1 0x0 MSTORE PUSH1 0x20 PUSH1 0x0 KECCAK256 SWAP1 JUMPDEST DUP2 SLOAD DUP2 MSTORE SWAP1 PUSH1 0x1 ADD SWAP1 PUSH1 0x20 ADD DUP1 DUP4 GT PUSH2 0xB31 JUMPI DUP3 SWAP1 SUB PUSH1 0x1F AND DUP3 ADD SWAP2 JUMPDEST POP POP POP POP POP DUP2 MSTORE PUSH1 0x20 ADD PUSH1 0x2 DUP3 ADD DUP1 SLOAD PUSH2 0xB67 SWAP1 PUSH2 0x186F JUMP JUMPDEST DUP1 PUSH1 0x1F ADD PUSH1 0x20 DUP1 SWAP2 DIV MUL PUSH1 0x20 ADD PUSH1 0x40 MLOAD SWAP1 DUP2 ADD PUSH1 0x40 MSTORE DUP1 SWAP3 SWAP2 SWAP1 DUP2 DUP2 MSTORE PUSH1 0x20 ADD DUP3 DUP1 SLOAD PUSH2 0xB93 SWAP1 PUSH2 0x186F JUMP JUMPDEST DUP1 ISZERO PUSH2 0xBE0 JUMPI DUP1 PUSH1 0x1F LT PUSH2 0xBB5 JUMPI PUSH2 0x100 DUP1 DUP4 SLOAD DIV MUL DUP4 MSTORE SWAP2 PUSH1 0x20 ADD SWAP2 PUSH2 0xBE0 JUMP JUMPDEST DUP3 ADD SWAP2 SWAP1 PUSH1 0x0 MSTORE PUSH1 0x20 PUSH1 0x0 KECCAK256 SWAP1 JUMPDEST DUP2 SLOAD DUP2 MSTORE SWAP1 PUSH1 0x1 ADD SWAP1 PUSH1 0x20 ADD DUP1 DUP4 GT PUSH2 0xBC3 JUMPI DUP3 SWAP1 SUB PUSH1 0x1F AND DUP3 ADD SWAP2 JUMPDEST POP POP POP POP POP DUP2 MSTORE PUSH1 0x20 ADD PUSH1 0x3 DUP3 ADD SLOAD DUP2 MSTORE PUSH1 0x20 ADD PUSH1 0x4 DUP3 ADD SLOAD DUP2 MSTORE POP POP SWAP1 POP SWAP2 SWAP1 POP JUMP JUMPDEST PUSH2 0xC0C PUSH2 0x120B JUMP JUMPDEST PUSH2 0xC16 PUSH1 0x0 PUSH2 0x1238 JUMP JUMPDEST JUMP JUMPDEST PUSH1 0x1 SLOAD PUSH1 0x1 PUSH1 0x1 PUSH1 0xA0 SHL SUB AND ISZERO DUP1 ISZERO SWAP1 PUSH2 0xC3D JUMPI POP PUSH1 0x1 SLOAD PUSH1 0x1 PUSH1 0x1 PUSH1 0xA0 SHL SUB AND CALLER EQ ISZERO JUMPDEST ISZERO PUSH2 0xC70 JUMPI PUSH1 0x1 SLOAD PUSH1 0x40 MLOAD PUSH4 0x708986DD PUSH1 0xE1 SHL DUP2 MSTORE CALLER PUSH1 0x4 DUP3 ADD MSTORE PUSH1 0x1 PUSH1 0x1 PUSH1 0xA0 SHL SUB SWAP1 SWAP2 AND PUSH1 0x24 DUP3 ADD MSTORE PUSH1 0x44 ADD PUSH2 0x6C0 JUMP JUMPDEST PUSH1 0x3 SLOAD ISZERO ISZERO DUP1 PUSH2 0xC8A JUMPI POP PUSH1 0x2 SLOAD PUSH1 0x1 PUSH1 0x1 PUSH1 0xA0 SHL SUB AND ISZERO ISZERO JUMPDEST DUP1 PUSH2 0xCAA JUMPI POP PUSH1 0x2 SLOAD PUSH1 0x1 PUSH1 0xA0 SHL SWAP1 DIV PUSH1 0xB0 SHL PUSH1 0x1 PUSH1 0x1 PUSH1 0xB0 SHL SUB NOT AND ISZERO ISZERO JUMPDEST ISZERO PUSH2 0xE3C JUMPI PUSH1 0x0 DUP1 PUSH1 0x0 PUSH2 0xCF3 DUP8 DUP8 DUP1 DUP1 PUSH1 0x1F ADD PUSH1 0x20 DUP1 SWAP2 DIV MUL PUSH1 0x20 ADD PUSH1 0x40 MLOAD SWAP1 DUP2 ADD PUSH1 0x40 MSTORE DUP1 SWAP4 SWAP3 SWAP2 SWAP1 DUP2 DUP2 MSTORE PUSH1 0x20 ADD DUP4 DUP4 DUP1 DUP3 DUP5 CALLDATACOPY PUSH1 0x0 SWAP3 ADD SWAP2 SWAP1 SWAP2 MSTORE POP PUSH2 0x1288 SWAP3 POP POP POP JUMP JUMPDEST PUSH1 0x3 SLOAD SWAP3 SWAP6 POP SWAP1 SWAP4 POP SWAP2 POP ISZERO DUP1 ISZERO SWAP1 PUSH2 0xD0E JUMPI POP PUSH1 0x3 SLOAD DUP4 EQ ISZERO JUMPDEST ISZERO PUSH2 0xD3A JUMPI PUSH1 0x3 SLOAD PUSH1 0x40 MLOAD PUSH4 0x4DFD1CDD PUSH1 0xE1 SHL DUP2 MSTORE PUSH2 0x6C0 SWAP2 DUP6 SWAP2 PUSH1 0x4 ADD SWAP2 DUP3 MSTORE PUSH1 0x20 DUP3 ADD MSTORE PUSH1 0x40 ADD SWAP1 JUMP JUMPDEST PUSH1 0x2 SLOAD PUSH1 0x1 PUSH1 0x1 PUSH1 0xA0 SHL SUB AND ISZERO DUP1 ISZERO SWAP1 PUSH2 0xD62 JUMPI POP PUSH1 0x2 SLOAD PUSH1 0x1 PUSH1 0x1 PUSH1 0xA0 SHL SUB DUP3 DUP2 AND SWAP2 AND EQ ISZERO JUMPDEST ISZERO PUSH2 0xD97 JUMPI PUSH1 0x2 SLOAD PUSH1 0x40 MLOAD PUSH4 0x1715315F PUSH1 0xE3 SHL DUP2 MSTORE PUSH1 0x1 PUSH1 0x1 PUSH1 0xA0 SHL SUB DUP1 DUP5 AND PUSH1 0x4 DUP4 ADD MSTORE SWAP1 SWAP2 AND PUSH1 0x24 DUP3 ADD MSTORE PUSH1 0x44 ADD PUSH2 0x6C0 JUMP JUMPDEST PUSH1 0x2 SLOAD PUSH1 0x1 PUSH1 0xA0 SHL SWAP1 DIV PUSH1 0xB0 SHL PUSH1 0x1 PUSH1 0x1 PUSH1 0xB0 SHL SUB NOT AND ISZERO PUSH2 0xE38 JUMPI PUSH1 0x2 SLOAD PUSH1 0x1 PUSH1 0x1 PUSH1 0xA0 SHL SUB AND PUSH2 0xDDC JUMPI PUSH1 0x40 MLOAD PUSH4 0x48479011 PUSH1 0xE0 SHL DUP2 MSTORE PUSH1 0x4 ADD PUSH1 0x40 MLOAD DUP1 SWAP2 SUB SWAP1 REVERT JUMPDEST PUSH1 0x2 SLOAD PUSH1 0x1 PUSH1 0x1 PUSH1 0xB0 SHL SUB NOT DUP4 DUP2 AND PUSH1 0x1 PUSH1 0xA0 SHL SWAP1 SWAP3 DIV PUSH1 0xB0 SHL AND EQ PUSH2 0xE38 JUMPI PUSH1 0x2 SLOAD PUSH1 0x40 MLOAD PUSH4 0x362304D3 PUSH1 0xE1 SHL DUP2 MSTORE PUSH1 0x1 PUSH1 0x1 PUSH1 0xB0 SHL SUB NOT DUP5 DUP2 AND PUSH1 0x4 DUP4 ADD MSTORE PUSH1 0x1 PUSH1 0xA0 SHL SWAP1 SWAP3 DIV PUSH1 0xB0 SHL SWAP1 SWAP2 AND PUSH1 0x24 DUP3 ADD MSTORE PUSH1 0x44 ADD PUSH2 0x6C0 JUMP JUMPDEST POP POP POP JUMPDEST PUSH2 0xE46 DUP3 DUP3 PUSH2 0x12A1 JUMP JUMPDEST POP POP POP POP JUMP JUMPDEST PUSH2 0xE54 PUSH2 0x120B JUMP JUMPDEST PUSH1 0x2 SLOAD PUSH1 0x1 PUSH1 0xA0 SHL SWAP1 DIV PUSH1 0xB0 SHL PUSH1 0x0 DUP3 SWAP1 SUB PUSH2 0xEBC JUMPI PUSH1 0x2 DUP1 SLOAD PUSH10 0xFFFFFFFFFFFFFFFFFFFF PUSH1 0xA0 SHL NOT AND SWAP1 SSTORE PUSH1 0x40 MLOAD PUSH1 0x0 SWAP1 PUSH1 0x1 PUSH1 0x1 PUSH1 0xB0 SHL SUB NOT DUP4 AND SWAP1 PUSH32 0x1E7DDD09D504C82DCFC784A464B167469F5AAD967606EC4822D848EF9141DFA5 SWAP1 DUP4 SWAP1 LOG3 POP POP POP JUMP JUMPDEST PUSH1 0x0 PUSH1 0x2 DUP5 DUP5 PUSH1 0x40 MLOAD PUSH2 0xED0 SWAP3 SWAP2 SWAP1 PUSH2 0x1951 JUMP JUMPDEST PUSH1 0x20 PUSH1 0x40 MLOAD DUP1 DUP4 SUB DUP2 DUP6 GAS STATICCALL ISZERO DUP1 ISZERO PUSH2 0xEED JUMPI RETURNDATASIZE PUSH1 0x0 DUP1 RETURNDATACOPY RETURNDATASIZE PUSH1 0x0 REVERT JUMPDEST POP POP POP PUSH1 0x40 MLOAD RETURNDATASIZE PUSH1 0x1F NOT PUSH1 0x1F DUP3 ADD AND DUP3 ADD DUP1 PUSH1 0x40 MSTORE POP DUP2 ADD SWAP1 PUSH2 0xF10 SWAP2 SWAP1 PUSH2 0x1916 JUMP JUMPDEST SWAP1 POP PUSH1 0x0 PUSH2 0xF3E DUP3 PUSH1 0x40 MLOAD PUSH1 0x20 ADD PUSH2 0xF2A SWAP2 DUP2 MSTORE PUSH1 0x20 ADD SWAP1 JUMP JUMPDEST PUSH1 0x40 MLOAD PUSH1 0x20 DUP2 DUP4 SUB SUB DUP2 MSTORE SWAP1 PUSH1 0x40 MSTORE PUSH2 0x12D4 JUMP JUMPDEST PUSH1 0x40 DUP1 MLOAD PUSH1 0xA DUP1 DUP3 MSTORE DUP2 DUP4 ADD SWAP1 SWAP3 MSTORE SWAP2 SWAP3 POP PUSH1 0x0 SWAP2 SWAP1 PUSH1 0x20 DUP3 ADD DUP2 DUP1 CALLDATASIZE DUP4 CALLDATACOPY ADD SWAP1 POP POP SWAP1 POP PUSH1 0x0 JUMPDEST PUSH1 0xA DUP2 LT ISZERO PUSH2 0xFBD JUMPI DUP3 DUP2 DUP2 MLOAD DUP2 LT PUSH2 0xF81 JUMPI PUSH2 0xF81 PUSH2 0x18B9 JUMP JUMPDEST PUSH1 0x20 ADD ADD MLOAD PUSH1 0xF8 SHR PUSH1 0xF8 SHL DUP3 DUP3 DUP2 MLOAD DUP2 LT PUSH2 0xF9E JUMPI PUSH2 0xF9E PUSH2 0x18B9 JUMP JUMPDEST PUSH1 0x20 ADD ADD SWAP1 PUSH1 0x1 PUSH1 0x1 PUSH1 0xF8 SHL SUB NOT AND SWAP1 DUP2 PUSH1 0x0 BYTE SWAP1 MSTORE8 POP PUSH1 0x1 ADD PUSH2 0xF66 JUMP JUMPDEST POP PUSH2 0xFC7 DUP2 PUSH2 0x1961 JUMP JUMPDEST PUSH1 0x2 DUP1 SLOAD PUSH10 0xFFFFFFFFFFFFFFFFFFFF PUSH1 0xA0 SHL NOT AND PUSH1 0x1 PUSH1 0xA0 SHL PUSH1 0xB0 SWAP4 DUP5 SHR DUP2 MUL SWAP2 SWAP1 SWAP2 OR SWAP2 DUP3 SWAP1 SSTORE PUSH1 0x40 MLOAD SWAP2 DIV SWAP1 SWAP2 SHL PUSH1 0x1 PUSH1 0x1 PUSH1 0xB0 SHL SUB NOT SWAP1 DUP2 AND SWAP2 SWAP1 DUP7 AND SWAP1 PUSH32 0x1E7DDD09D504C82DCFC784A464B167469F5AAD967606EC4822D848EF9141DFA5 SWAP1 PUSH1 0x0 SWAP1 LOG3 POP POP POP POP POP POP JUMP JUMPDEST PUSH2 0x103E PUSH2 0x120B JUMP JUMPDEST PUSH1 0x3 DUP1 SLOAD SWAP1 DUP3 SWAP1 SSTORE PUSH1 0x40 MLOAD DUP3 SWAP1 DUP3 SWAP1 PUSH32 0xDBEDCDF21925E053B4C574EAE180D7F2883235AB4976ECC0873598A2A999B03 SWAP1 PUSH1 0x0 SWAP1 LOG3 POP POP JUMP JUMPDEST PUSH2 0x107F PUSH2 0x120B JUMP JUMPDEST PUSH1 0x2 DUP1 SLOAD PUSH1 0x1 PUSH1 0x1 PUSH1 0xA0 SHL SUB DUP4 DUP2 AND PUSH1 0x1 PUSH1 0x1 PUSH1 0xA0 SHL SUB NOT DUP4 AND DUP2 OR SWAP1 SWAP4 SSTORE PUSH1 0x40 MLOAD SWAP2 AND SWAP2 SWAP1 DUP3 SWAP1 PUSH32 0x3321CDA85C145617E47418AA14255E9DCBEC53A753778E57591703B89A3CAD31 SWAP1 PUSH1 0x0 SWAP1 LOG3 POP POP JUMP JUMPDEST PUSH2 0x10D9 PUSH2 0x120B JUMP JUMPDEST PUSH1 0x1 SLOAD PUSH1 0x1 PUSH1 0x1 PUSH1 0xA0 SHL SUB SWAP1 DUP2 AND SWAP1 DUP3 AND PUSH2 0x117C JUMPI PUSH32 0x704DA7DB165C79C1E33D542C079333BBDE970A733032D2F95FEC8FB7D770CBF7 PUSH1 0x40 MLOAD PUSH2 0x1173 SWAP1 PUSH1 0x20 DUP1 DUP3 MSTORE PUSH1 0x38 SWAP1 DUP3 ADD MSTORE PUSH32 0x466F7277617264657220616464726573732073657420746F207A65726F202D20 PUSH1 0x40 DUP3 ADD MSTORE PUSH32 0x636F6E7472616374206973206E6F7720494E5345435552450000000000000000 PUSH1 0x60 DUP3 ADD MSTORE PUSH1 0x80 ADD SWAP1 JUMP JUMPDEST PUSH1 0x40 MLOAD DUP1 SWAP2 SUB SWAP1 LOG1 JUMPDEST PUSH1 0x1 DUP1 SLOAD PUSH1 0x1 PUSH1 0x1 PUSH1 0xA0 SHL SUB NOT AND PUSH1 0x1 PUSH1 0x1 PUSH1 0xA0 SHL SUB DUP5 DUP2 AND SWAP2 DUP3 OR SWAP1 SWAP3 SSTORE PUSH1 0x40 MLOAD SWAP1 SWAP2 DUP4 AND SWAP1 PUSH32 0x39AD854736757070884DD787EF1A7F58DB33546639D1F3EFDDCF4A33FB8997E SWAP1 PUSH1 0x0 SWAP1 LOG3 POP POP JUMP JUMPDEST PUSH2 0x11D5 PUSH2 0x120B JUMP JUMPDEST PUSH1 0x1 PUSH1 0x1 PUSH1 0xA0 SHL SUB DUP2 AND PUSH2 0x11FF JUMPI PUSH1 0x40 MLOAD PUSH4 0x1E4FBDF7 PUSH1 0xE0 SHL DUP2 MSTORE PUSH1 0x0 PUSH1 0x4 DUP3 ADD MSTORE PUSH1 0x24 ADD PUSH2 0x6C0 JUMP JUMPDEST PUSH2 0x1208 DUP2 PUSH2 0x1238 JUMP JUMPDEST POP JUMP JUMPDEST PUSH1 0x0 SLOAD PUSH1 0x1 PUSH1 0x1 PUSH1 0xA0 SHL SUB AND CALLER EQ PUSH2 0xC16 JUMPI PUSH1 0x40 MLOAD PUSH4 0x118CDAA7 PUSH1 0xE0 SHL DUP2 MSTORE CALLER PUSH1 0x4 DUP3 ADD MSTORE PUSH1 0x24 ADD PUSH2 0x6C0 JUMP JUMPDEST PUSH1 0x0 DUP1 SLOAD PUSH1 0x1 PUSH1 0x1 PUSH1 0xA0 SHL SUB DUP4 DUP2 AND PUSH1 0x1 PUSH1 0x1 PUSH1 0xA0 SHL SUB NOT DUP4 AND DUP2 OR DUP5 SSTORE PUSH1 0x40 MLOAD SWAP2 SWAP1 SWAP3 AND SWAP3 DUP4 SWAP2 PUSH32 0x8BE0079C531659141344CD1FD0A4F28419497F9722A3DAAFE3B4186F6B6457E0 SWAP2 SWAP1 LOG3 POP POP JUMP JUMPDEST PUSH1 0x20 DUP2 ADD MLOAD PUSH1 0x40 DUP3 ADD MLOAD PUSH1 0x4A DUP4 ADD MLOAD PUSH1 0x60 SHR SWAP2 SWAP4 SWAP1 SWAP3 POP JUMP JUMPDEST PUSH1 0x0 DUP1 DUP1 DUP1 DUP1 PUSH2 0x12B3 DUP7 DUP9 ADD DUP9 PUSH2 0x1A2E JUMP JUMPDEST SWAP5 POP SWAP5 POP SWAP5 POP SWAP5 POP SWAP5 POP PUSH2 0x12CA DUP6 DUP6 DUP6 DUP6 DUP6 PUSH2 0x1495 JUMP JUMPDEST POP POP POP POP POP POP POP POP JUMP JUMPDEST PUSH1 0x60 PUSH1 0x0 DUP3 MLOAD PUSH1 0x2 PUSH2 0x12E6 SWAP2 SWAP1 PUSH2 0x1AC8 JUMP JUMPDEST PUSH8 0xFFFFFFFFFFFFFFFF DUP2 GT ISZERO PUSH2 0x12FE JUMPI PUSH2 0x12FE PUSH2 0x18A3 JUMP JUMPDEST PUSH1 0x40 MLOAD SWAP1 DUP1 DUP3 MSTORE DUP1 PUSH1 0x1F ADD PUSH1 0x1F NOT AND PUSH1 0x20 ADD DUP3 ADD PUSH1 0x40 MSTORE DUP1 ISZERO PUSH2 0x1328 JUMPI PUSH1 0x20 DUP3 ADD DUP2 DUP1 CALLDATASIZE DUP4 CALLDATACOPY ADD SWAP1 POP JUMPDEST POP SWAP1 POP PUSH1 0x0 JUMPDEST DUP4 MLOAD DUP2 LT ISZERO PUSH2 0x148E JUMPI PUSH1 0x40 MLOAD DUP1 PUSH1 0x40 ADD PUSH1 0x40 MSTORE DUP1 PUSH1 0x10 DUP2 MSTORE PUSH1 0x20 ADD PUSH16 0x181899199A1A9B1B9C1CB0B131B232B3 PUSH1 0x81 SHL DUP2 MSTORE POP PUSH1 0x4 DUP6 DUP4 DUP2 MLOAD DUP2 LT PUSH2 0x1374 JUMPI PUSH2 0x1374 PUSH2 0x18B9 JUMP JUMPDEST ADD PUSH1 0x20 ADD MLOAD DUP3 MLOAD PUSH1 0x1 PUSH1 0x1 PUSH1 0xF8 SHL SUB NOT SWAP1 SWAP2 AND SWAP1 SWAP2 SHR PUSH1 0xF8 SHR SWAP1 DUP2 LT PUSH2 0x139C JUMPI PUSH2 0x139C PUSH2 0x18B9 JUMP JUMPDEST ADD PUSH1 0x20 ADD MLOAD PUSH1 0x1 PUSH1 0x1 PUSH1 0xF8 SHL SUB NOT AND DUP3 PUSH2 0x13B7 DUP4 PUSH1 0x2 PUSH2 0x1AC8 JUMP JUMPDEST DUP2 MLOAD DUP2 LT PUSH2 0x13C7 JUMPI PUSH2 0x13C7 PUSH2 0x18B9 JUMP JUMPDEST PUSH1 0x20 ADD ADD SWAP1 PUSH1 0x1 PUSH1 0x1 PUSH1 0xF8 SHL SUB NOT AND SWAP1 DUP2 PUSH1 0x0 BYTE SWAP1 MSTORE8 POP PUSH1 0x40 MLOAD DUP1 PUSH1 0x40 ADD PUSH1 0x40 MSTORE DUP1 PUSH1 0x10 DUP2 MSTORE PUSH1 0x20 ADD PUSH16 0x181899199A1A9B1B9C1CB0B131B232B3 PUSH1 0x81 SHL DUP2 MSTORE POP DUP5 DUP3 DUP2 MLOAD DUP2 LT PUSH2 0x1419 JUMPI PUSH2 0x1419 PUSH2 0x18B9 JUMP JUMPDEST PUSH1 0x20 SWAP2 ADD ADD MLOAD DUP2 MLOAD PUSH1 0xF8 SWAP2 SWAP1 SWAP2 SHR PUSH1 0xF AND SWAP1 DUP2 LT PUSH2 0x1439 JUMPI PUSH2 0x1439 PUSH2 0x18B9 JUMP JUMPDEST ADD PUSH1 0x20 ADD MLOAD PUSH1 0x1 PUSH1 0x1 PUSH1 0xF8 SHL SUB NOT AND DUP3 PUSH2 0x1454 DUP4 PUSH1 0x2 PUSH2 0x1AC8 JUMP JUMPDEST PUSH2 0x145F SWAP1 PUSH1 0x1 PUSH2 0x1ADF JUMP JUMPDEST DUP2 MLOAD DUP2 LT PUSH2 0x146F JUMPI PUSH2 0x146F PUSH2 0x18B9 JUMP JUMPDEST PUSH1 0x20 ADD ADD SWAP1 PUSH1 0x1 PUSH1 0x1 PUSH1 0xF8 SHL SUB NOT AND SWAP1 DUP2 PUSH1 0x0 BYTE SWAP1 MSTORE8 POP PUSH1 0x1 ADD PUSH2 0x132E JUMP JUMPDEST POP SWAP3 SWAP2 POP POP JUMP JUMPDEST PUSH1 0x5 DUP1 SLOAD PUSH1 0x0 SWAP2 DUP2 SWAP1 DUP4 PUSH2 0x14A8 DUP4 PUSH2 0x1AF2 JUMP JUMPDEST SWAP1 SWAP2 SSTORE POP POP PUSH1 0x40 DUP1 MLOAD PUSH1 0xA0 DUP2 ADD DUP3 MSTORE DUP9 DUP2 MSTORE PUSH1 0x20 DUP1 DUP3 ADD DUP10 DUP2 MSTORE DUP3 DUP5 ADD DUP10 SWAP1 MSTORE PUSH1 0x60 DUP4 ADD DUP9 SWAP1 MSTORE PUSH1 0x80 DUP4 ADD DUP8 SWAP1 MSTORE PUSH1 0x0 DUP6 DUP2 MSTORE PUSH1 0x6 SWAP1 SWAP3 MSTORE SWAP3 SWAP1 KECCAK256 DUP2 MLOAD DUP2 SSTORE SWAP2 MLOAD SWAP1 SWAP2 SWAP1 PUSH1 0x1 DUP3 ADD SWAP1 PUSH2 0x14FB SWAP1 DUP3 PUSH2 0x1B5A JUMP JUMPDEST POP PUSH1 0x40 DUP3 ADD MLOAD PUSH1 0x2 DUP3 ADD SWAP1 PUSH2 0x1510 SWAP1 DUP3 PUSH2 0x1B5A JUMP JUMPDEST POP PUSH1 0x60 DUP3 ADD MLOAD DUP2 PUSH1 0x3 ADD SSTORE PUSH1 0x80 DUP3 ADD MLOAD DUP2 PUSH1 0x4 ADD SSTORE SWAP1 POP POP DUP7 DUP2 PUSH32 0x500F12FA025B5C2655BD0938CC63539362F2B7ADFFD81D9EA12FFADD042061CE DUP9 DUP9 DUP9 DUP9 PUSH1 0x40 MLOAD PUSH2 0x155F SWAP5 SWAP4 SWAP3 SWAP2 SWAP1 PUSH2 0x1C19 JUMP JUMPDEST PUSH1 0x40 MLOAD DUP1 SWAP2 SUB SWAP1 LOG3 SWAP7 SWAP6 POP POP POP POP POP POP JUMP JUMPDEST PUSH1 0x0 PUSH1 0x20 DUP3 DUP5 SUB SLT ISZERO PUSH2 0x1583 JUMPI PUSH1 0x0 DUP1 REVERT JUMPDEST DUP2 CALLDATALOAD PUSH1 0x1 PUSH1 0x1 PUSH1 0xE0 SHL SUB NOT DUP2 AND DUP2 EQ PUSH2 0x159B JUMPI PUSH1 0x0 DUP1 REVERT JUMPDEST SWAP4 SWAP3 POP POP POP JUMP JUMPDEST PUSH1 0x0 PUSH1 0x20 DUP3 DUP5 SUB SLT ISZERO PUSH2 0x15B4 JUMPI PUSH1 0x0 DUP1 REVERT JUMPDEST POP CALLDATALOAD SWAP2 SWAP1 POP JUMP JUMPDEST PUSH1 0x0 DUP2 MLOAD DUP1 DUP5 MSTORE PUSH1 0x0 JUMPDEST DUP2 DUP2 LT ISZERO PUSH2 0x15E1 JUMPI PUSH1 0x20 DUP2 DUP6 ADD DUP2 ADD MLOAD DUP7 DUP4 ADD DUP3 ADD MSTORE ADD PUSH2 0x15C5 JUMP JUMPDEST POP PUSH1 0x0 PUSH1 0x20 DUP3 DUP7 ADD ADD MSTORE PUSH1 0x20 PUSH1 0x1F NOT PUSH1 0x1F DUP4 ADD AND DUP6 ADD ADD SWAP2 POP POP SWAP3 SWAP2 POP POP JUMP JUMPDEST DUP6 DUP2 MSTORE PUSH1 0xA0 PUSH1 0x20 DUP3 ADD MSTORE PUSH1 0x0 PUSH2 0x161A PUSH1 0xA0 DUP4 ADD DUP8 PUSH2 0x15BB JUMP JUMPDEST DUP3 DUP2 SUB PUSH1 0x40 DUP5 ADD MSTORE PUSH2 0x162C DUP2 DUP8 PUSH2 0x15BB JUMP JUMPDEST PUSH1 0x60 DUP5 ADD SWAP6 SWAP1 SWAP6 MSTORE POP POP PUSH1 0x80 ADD MSTORE SWAP4 SWAP3 POP POP POP JUMP JUMPDEST DUP1 MLOAD DUP3 MSTORE PUSH1 0x0 PUSH1 0x20 DUP3 ADD MLOAD PUSH1 0xA0 PUSH1 0x20 DUP6 ADD MSTORE PUSH2 0x1660 PUSH1 0xA0 DUP6 ADD DUP3 PUSH2 0x15BB JUMP JUMPDEST SWAP1 POP PUSH1 0x40 DUP4 ADD MLOAD DUP5 DUP3 SUB PUSH1 0x40 DUP7 ADD MSTORE PUSH2 0x1679 DUP3 DUP3 PUSH2 0x15BB JUMP JUMPDEST SWAP2 POP POP PUSH1 0x60 DUP4 ADD MLOAD PUSH1 0x60 DUP6 ADD MSTORE PUSH1 0x80 DUP4 ADD MLOAD PUSH1 0x80 DUP6 ADD MSTORE DUP1 SWAP2 POP POP SWAP3 SWAP2 POP POP JUMP JUMPDEST PUSH1 0x0 PUSH1 0x20 DUP3 ADD PUSH1 0x20 DUP4 MSTORE DUP1 DUP5 MLOAD DUP1 DUP4 MSTORE PUSH1 0x40 DUP6 ADD SWAP2 POP PUSH1 0x40 DUP2 PUSH1 0x5 SHL DUP7 ADD ADD SWAP3 POP PUSH1 0x20 DUP7 ADD PUSH1 0x0 JUMPDEST DUP3 DUP2 LT ISZERO PUSH2 0x16F3 JUMPI PUSH1 0x3F NOT DUP8 DUP7 SUB ADD DUP5 MSTORE PUSH2 0x16DE DUP6 DUP4 MLOAD PUSH2 0x1641 JUMP JUMPDEST SWAP5 POP PUSH1 0x20 SWAP4 DUP5 ADD SWAP4 SWAP2 SWAP1 SWAP2 ADD SWAP1 PUSH1 0x1 ADD PUSH2 0x16C2 JUMP JUMPDEST POP SWAP3 SWAP7 SWAP6 POP POP POP POP POP POP JUMP JUMPDEST DUP1 CALLDATALOAD PUSH1 0x1 PUSH1 0x1 PUSH1 0xA0 SHL SUB DUP2 AND DUP2 EQ PUSH2 0x1716 JUMPI PUSH1 0x0 DUP1 REVERT JUMPDEST SWAP2 SWAP1 POP JUMP JUMPDEST PUSH1 0x0 DUP1 PUSH1 0x40 DUP4 DUP6 SUB SLT ISZERO PUSH2 0x172E JUMPI PUSH1 0x0 DUP1 REVERT JUMPDEST PUSH2 0x1737 DUP4 PUSH2 0x16FF JUMP JUMPDEST SWAP5 PUSH1 0x20 SWAP4 SWAP1 SWAP4 ADD CALLDATALOAD SWAP4 POP POP POP JUMP JUMPDEST PUSH1 0x20 DUP2 MSTORE PUSH1 0x0 PUSH2 0x159B PUSH1 0x20 DUP4 ADD DUP5 PUSH2 0x1641 JUMP JUMPDEST PUSH1 0x0 DUP1 DUP4 PUSH1 0x1F DUP5 ADD SLT PUSH2 0x176A JUMPI PUSH1 0x0 DUP1 REVERT JUMPDEST POP DUP2 CALLDATALOAD PUSH8 0xFFFFFFFFFFFFFFFF DUP2 GT ISZERO PUSH2 0x1782 JUMPI PUSH1 0x0 DUP1 REVERT JUMPDEST PUSH1 0x20 DUP4 ADD SWAP2 POP DUP4 PUSH1 0x20 DUP3 DUP6 ADD ADD GT ISZERO PUSH2 0x179A JUMPI PUSH1 0x0 DUP1 REVERT JUMPDEST SWAP3 POP SWAP3 SWAP1 POP JUMP JUMPDEST PUSH1 0x0 DUP1 PUSH1 0x0 DUP1 PUSH1 0x40 DUP6 DUP8 SUB SLT ISZERO PUSH2 0x17B7 JUMPI PUSH1 0x0 DUP1 REVERT JUMPDEST DUP5 CALLDATALOAD PUSH8 0xFFFFFFFFFFFFFFFF DUP2 GT ISZERO PUSH2 0x17CE JUMPI PUSH1 0x0 DUP1 REVERT JUMPDEST PUSH2 0x17DA DUP8 DUP3 DUP9 ADD PUSH2 0x1758 JUMP JUMPDEST SWAP1 SWAP6 POP SWAP4 POP POP PUSH1 0x20 DUP6 ADD CALLDATALOAD PUSH8 0xFFFFFFFFFFFFFFFF DUP2 GT ISZERO PUSH2 0x17FA JUMPI PUSH1 0x0 DUP1 REVERT JUMPDEST PUSH2 0x1806 DUP8 DUP3 DUP9 ADD PUSH2 0x1758 JUMP JUMPDEST SWAP6 SWAP9 SWAP5 SWAP8 POP SWAP6 POP POP POP POP JUMP JUMPDEST PUSH1 0x0 DUP1 PUSH1 0x20 DUP4 DUP6 SUB SLT ISZERO PUSH2 0x1825 JUMPI PUSH1 0x0 DUP1 REVERT JUMPDEST DUP3 CALLDATALOAD PUSH8 0xFFFFFFFFFFFFFFFF DUP2 GT ISZERO PUSH2 0x183C JUMPI PUSH1 0x0 DUP1 REVERT JUMPDEST PUSH2 0x1848 DUP6 DUP3 DUP7 ADD PUSH2 0x1758 JUMP JUMPDEST SWAP1 SWAP7 SWAP1 SWAP6 POP SWAP4 POP POP POP POP JUMP JUMPDEST PUSH1 0x0 PUSH1 0x20 DUP3 DUP5 SUB SLT ISZERO PUSH2 0x1866 JUMPI PUSH1 0x0 DUP1 REVERT JUMPDEST PUSH2 0x159B DUP3 PUSH2 0x16FF JUMP JUMPDEST PUSH1 0x1 DUP2 DUP2 SHR SWAP1 DUP3 AND DUP1 PUSH2 0x1883 JUMPI PUSH1 0x7F DUP3 AND SWAP2 POP JUMPDEST PUSH1 0x20 DUP3 LT DUP2 SUB PUSH2 0x68F JUMPI PUSH4 0x4E487B71 PUSH1 0xE0 SHL PUSH1 0x0 MSTORE PUSH1 0x22 PUSH1 0x4 MSTORE PUSH1 0x24 PUSH1 0x0 REVERT JUMPDEST PUSH4 0x4E487B71 PUSH1 0xE0 SHL PUSH1 0x0 MSTORE PUSH1 0x41 PUSH1 0x4 MSTORE PUSH1 0x24 PUSH1 0x0 REVERT JUMPDEST PUSH4 0x4E487B71 PUSH1 0xE0 SHL PUSH1 0x0 MSTORE PUSH1 0x32 PUSH1 0x4 MSTORE PUSH1 0x24 PUSH1 0x0 REVERT JUMPDEST PUSH1 0x20 DUP1 DUP3 MSTORE PUSH1 0x27 SWAP1 DUP3 ADD MSTORE PUSH32 0x52756C6552656769737472793A2053545420746F6B656E206164647265737320 PUSH1 0x40 DUP3 ADD MSTORE PUSH7 0x1B9BDD081CD95D PUSH1 0xCA SHL PUSH1 0x60 DUP3 ADD MSTORE PUSH1 0x80 ADD SWAP1 JUMP JUMPDEST PUSH1 0x0 PUSH1 0x20 DUP3 DUP5 SUB SLT ISZERO PUSH2 0x1928 JUMPI PUSH1 0x0 DUP1 REVERT JUMPDEST POP MLOAD SWAP2 SWAP1 POP JUMP JUMPDEST PUSH1 0x0 PUSH1 0x20 DUP3 DUP5 SUB SLT ISZERO PUSH2 0x1941 JUMPI PUSH1 0x0 DUP1 REVERT JUMPDEST DUP2 MLOAD DUP1 ISZERO ISZERO DUP2 EQ PUSH2 0x159B JUMPI PUSH1 0x0 DUP1 REVERT JUMPDEST DUP2 DUP4 DUP3 CALLDATACOPY PUSH1 0x0 SWAP2 ADD SWAP1 DUP2 MSTORE SWAP2 SWAP1 POP JUMP JUMPDEST DUP1 MLOAD PUSH1 0x20 DUP3 ADD MLOAD PUSH1 0x1 PUSH1 0x1 PUSH1 0xB0 SHL SUB NOT DUP2 AND SWAP2 SWAP1 PUSH1 0xA DUP3 LT ISZERO PUSH2 0x1998 JUMPI PUSH1 0x1 PUSH1 0x1 PUSH1 0xB0 SHL SUB NOT PUSH1 0xA DUP4 SWAP1 SUB PUSH1 0x3 SHL DUP2 SWAP1 SHL DUP3 AND AND SWAP3 POP JUMPDEST POP POP SWAP2 SWAP1 POP JUMP JUMPDEST PUSH1 0x0 DUP3 PUSH1 0x1F DUP4 ADD SLT PUSH2 0x19B0 JUMPI PUSH1 0x0 DUP1 REVERT JUMPDEST DUP2 CALLDATALOAD PUSH8 0xFFFFFFFFFFFFFFFF DUP2 GT ISZERO PUSH2 0x19CA JUMPI PUSH2 0x19CA PUSH2 0x18A3 JUMP JUMPDEST PUSH1 0x40 MLOAD PUSH1 0x1F DUP3 ADD PUSH1 0x1F NOT SWAP1 DUP2 AND PUSH1 0x3F ADD AND DUP2 ADD PUSH8 0xFFFFFFFFFFFFFFFF DUP2 GT DUP3 DUP3 LT OR ISZERO PUSH2 0x19F9 JUMPI PUSH2 0x19F9 PUSH2 0x18A3 JUMP JUMPDEST PUSH1 0x40 MSTORE DUP2 DUP2 MSTORE DUP4 DUP3 ADD PUSH1 0x20 ADD DUP6 LT ISZERO PUSH2 0x1A11 JUMPI PUSH1 0x0 DUP1 REVERT JUMPDEST DUP2 PUSH1 0x20 DUP6 ADD PUSH1 0x20 DUP4 ADD CALLDATACOPY PUSH1 0x0 SWAP2 DUP2 ADD PUSH1 0x20 ADD SWAP2 SWAP1 SWAP2 MSTORE SWAP4 SWAP3 POP POP POP JUMP JUMPDEST PUSH1 0x0 DUP1 PUSH1 0x0 DUP1 PUSH1 0x0 PUSH1 0xA0 DUP7 DUP9 SUB SLT ISZERO PUSH2 0x1A46 JUMPI PUSH1 0x0 DUP1 REVERT JUMPDEST DUP6 CALLDATALOAD SWAP5 POP PUSH1 0x20 DUP7 ADD CALLDATALOAD PUSH8 0xFFFFFFFFFFFFFFFF DUP2 GT ISZERO PUSH2 0x1A64 JUMPI PUSH1 0x0 DUP1 REVERT JUMPDEST PUSH2 0x1A70 DUP9 DUP3 DUP10 ADD PUSH2 0x199F JUMP JUMPDEST SWAP5 POP POP PUSH1 0x40 DUP7 ADD CALLDATALOAD PUSH8 0xFFFFFFFFFFFFFFFF DUP2 GT ISZERO PUSH2 0x1A8D JUMPI PUSH1 0x0 DUP1 REVERT JUMPDEST PUSH2 0x1A99 DUP9 DUP3 DUP10 ADD PUSH2 0x199F JUMP JUMPDEST SWAP6 SWAP9 SWAP5 SWAP8 POP SWAP5 SWAP6 PUSH1 0x60 DUP2 ADD CALLDATALOAD SWAP6 POP PUSH1 0x80 ADD CALLDATALOAD SWAP4 SWAP3 POP POP POP JUMP JUMPDEST PUSH4 0x4E487B71 PUSH1 0xE0 SHL PUSH1 0x0 MSTORE PUSH1 0x11 PUSH1 0x4 MSTORE PUSH1 0x24 PUSH1 0x0 REVERT JUMPDEST DUP1 DUP3 MUL DUP2 ISZERO DUP3 DUP3 DIV DUP5 EQ OR PUSH2 0x330 JUMPI PUSH2 0x330 PUSH2 0x1AB2 JUMP JUMPDEST DUP1 DUP3 ADD DUP1 DUP3 GT ISZERO PUSH2 0x330 JUMPI PUSH2 0x330 PUSH2 0x1AB2 JUMP JUMPDEST PUSH1 0x0 PUSH1 0x1 DUP3 ADD PUSH2 0x1B04 JUMPI PUSH2 0x1B04 PUSH2 0x1AB2 JUMP JUMPDEST POP PUSH1 0x1 ADD SWAP1 JUMP JUMPDEST PUSH1 0x1F DUP3 GT ISZERO PUSH2 0x1B55 JUMPI DUP1 PUSH1 0x0 MSTORE PUSH1 0x20 PUSH1 0x0 KECCAK256 PUSH1 0x1F DUP5 ADD PUSH1 0x5 SHR DUP2 ADD PUSH1 0x20 DUP6 LT ISZERO PUSH2 0x1B32 JUMPI POP DUP1 JUMPDEST PUSH1 0x1F DUP5 ADD PUSH1 0x5 SHR DUP3 ADD SWAP2 POP JUMPDEST DUP2 DUP2 LT ISZERO PUSH2 0x1B52 JUMPI PUSH1 0x0 DUP2 SSTORE PUSH1 0x1 ADD PUSH2 0x1B3E JUMP JUMPDEST POP POP JUMPDEST POP POP POP JUMP JUMPDEST DUP2 MLOAD PUSH8 0xFFFFFFFFFFFFFFFF DUP2 GT ISZERO PUSH2 0x1B74 JUMPI PUSH2 0x1B74 PUSH2 0x18A3 JUMP JUMPDEST PUSH2 0x1B88 DUP2 PUSH2 0x1B82 DUP5 SLOAD PUSH2 0x186F JUMP JUMPDEST DUP5 PUSH2 0x1B0B JUMP JUMPDEST PUSH1 0x20 PUSH1 0x1F DUP3 GT PUSH1 0x1 DUP2 EQ PUSH2 0x1BBC JUMPI PUSH1 0x0 DUP4 ISZERO PUSH2 0x1BA4 JUMPI POP DUP5 DUP3 ADD MLOAD JUMPDEST PUSH1 0x0 NOT PUSH1 0x3 DUP6 SWAP1 SHL SHR NOT AND PUSH1 0x1 DUP5 SWAP1 SHL OR DUP5 SSTORE PUSH2 0x1B52 JUMP JUMPDEST PUSH1 0x0 DUP5 DUP2 MSTORE PUSH1 0x20 DUP2 KECCAK256 PUSH1 0x1F NOT DUP6 AND SWAP2 JUMPDEST DUP3 DUP2 LT ISZERO PUSH2 0x1BEC JUMPI DUP8 DUP6 ADD MLOAD DUP3 SSTORE PUSH1 0x20 SWAP5 DUP6 ADD SWAP5 PUSH1 0x1 SWAP1 SWAP3 ADD SWAP2 ADD PUSH2 0x1BCC JUMP JUMPDEST POP DUP5 DUP3 LT ISZERO PUSH2 0x1C0A JUMPI DUP7 DUP5 ADD MLOAD PUSH1 0x0 NOT PUSH1 0x3 DUP8 SWAP1 SHL PUSH1 0xF8 AND SHR NOT AND DUP2 SSTORE JUMPDEST POP POP POP POP PUSH1 0x1 SWAP1 DUP2 SHL ADD SWAP1 SSTORE POP JUMP JUMPDEST PUSH1 0x80 DUP2 MSTORE PUSH1 0x0 PUSH2 0x1C2C PUSH1 0x80 DUP4 ADD DUP8 PUSH2 0x15BB JUMP JUMPDEST DUP3 DUP2 SUB PUSH1 0x20 DUP5 ADD MSTORE PUSH2 0x1C3E DUP2 DUP8 PUSH2 0x15BB JUMP JUMPDEST PUSH1 0x40 DUP5 ADD SWAP6 SWAP1 SWAP6 MSTORE POP POP PUSH1 0x60 ADD MSTORE SWAP3 SWAP2 POP POP JUMP INVALID LOG2 PUSH5 0x6970667358 0x22 SLT KECCAK256 PUSH26 0x33DF1E9A4E4059BDDE96A9F1356F0ED592D10EB75ADCF4C2CBCE PUSH26 0x7D8B3D464736F6C634300081E00330000000000000000000000 "},"methodIdentifiers":{"getAllRules()":"1184aef2","getExpectedAuthor()":"3397cf67","getExpectedWorkflowId()":"f5c793ef","getExpectedWorkflowName()":"a619d818","getForwarderAddress()":"3441856f","getRule(uint256)":"48462037","getRuleCount()":"5c3ca910","getUSDCBalance()":"3cfd1ccc","nextRuleId()":"70f047b0","onReport(bytes,bytes)":"805f2132","owner()":"8da5cb5b","renounceOwnership()":"715018a6","rules(uint256)":"04d6ded4","setExpectedAuthor(address)":"d60c884b","setExpectedWorkflowId(bytes32)":"c3c44ac2","setExpectedWorkflowName(string)":"bc1fc27a","setForwarderAddress(address)":"d777cc6d","supportsInterface(bytes4)":"01ffc9a7","transferOwnership(address)":"f2fde38b","usdcToken()":"11eac855","withdrawUSDC(address,uint256)":"44471fd9"}}}}}