{"contracts/RuleRegistry.sol":{"RuleRegistry":{"abi":[{"inputs":[{"internalType":"address","name":"_usdcToken","type":"address"}],"stateMutability":"nonpayable","type":"constructor"},{"inputs":[{"internalType":"address","name":"owner","type":"address"}],"name":"OwnableInvalidOwner","type":"error"},{"inputs":[{"internalType":"address","name":"account","type":"address"}],"name":"OwnableUnauthorizedAccount","type":"error"},{"anonymous":false,"inputs":[{"indexed":true,"internalType":"address","name":"previousOwner","type":"address"},{"indexed":true,"internalType":"address","name":"newOwner","type":"address"}],"name":"OwnershipTransferred","type":"event"},{"anonymous":false,"inputs":[{"indexed":true,"internalType":"address","name":"previousHandler","type":"address"},{"indexed":true,"internalType":"address","name":"newHandler","type":"address"}],"name":"ReactivityHandlerUpdated","type":"event"},{"anonymous":false,"inputs":[{"indexed":true,"internalType":"uint256","name":"ruleId","type":"uint256"},{"indexed":true,"internalType":"bytes32","name":"id","type":"bytes32"},{"indexed":false,"internalType":"string","name":"asset","type":"string"},{"indexed":false,"internalType":"string","name":"condition","type":"string"},{"indexed":false,"internalType":"uint256","name":"targetPriceUsd","type":"uint256"},{"indexed":false,"internalType":"uint256","name":"createdAt","type":"uint256"}],"name":"RuleCreated","type":"event"},{"anonymous":false,"inputs":[{"indexed":true,"internalType":"address","name":"token","type":"address"},{"indexed":true,"internalType":"address","name":"to","type":"address"},{"indexed":false,"internalType":"uint256","name":"amount","type":"uint256"}],"name":"Withdrawal","type":"event"},{"inputs":[],"name":"getAllRules","outputs":[{"components":[{"internalType":"bytes32","name":"id","type":"bytes32"},{"internalType":"string","name":"asset","type":"string"},{"internalType":"string","name":"condition","type":"string"},{"internalType":"uint256","name":"targetPriceUsd","type":"uint256"},{"internalType":"uint256","name":"createdAt","type":"uint256"}],"internalType":"struct RuleRegistry.Rule[]","name":"","type":"tuple[]"}],"stateMutability":"view","type":"function"},{"inputs":[{"internalType":"uint256","name":"_ruleId","type":"uint256"}],"name":"getRule","outputs":[{"components":[{"internalType":"bytes32","name":"id","type":"bytes32"},{"internalType":"string","name":"asset","type":"string"},{"internalType":"string","name":"condition","type":"string"},{"internalType":"uint256","name":"targetPriceUsd","type":"uint256"},{"internalType":"uint256","name":"createdAt","type":"uint256"}],"internalType":"struct RuleRegistry.Rule","name":"","type":"tuple"}],"stateMutability":"view","type":"function"},{"inputs":[],"name":"getRuleCount","outputs":[{"internalType":"uint256","name":"","type":"uint256"}],"stateMutability":"view","type":"function"},{"inputs":[],"name":"getUSDCBalance","outputs":[{"internalType":"uint256","name":"","type":"uint256"}],"stateMutability":"view","type":"function"},{"inputs":[],"name":"nextRuleId","outputs":[{"internalType":"uint256","name":"","type":"uint256"}],"stateMutability":"view","type":"function"},{"inputs":[],"name":"owner","outputs":[{"internalType":"address","name":"","type":"address"}],"stateMutability":"view","type":"function"},{"inputs":[],"name":"reactivityHandler","outputs":[{"internalType":"address","name":"","type":"address"}],"stateMutability":"view","type":"function"},{"inputs":[],"name":"renounceOwnership","outputs":[],"stateMutability":"nonpayable","type":"function"},{"inputs":[{"internalType":"uint256","name":"","type":"uint256"}],"name":"rules","outputs":[{"internalType":"bytes32","name":"id","type":"bytes32"},{"internalType":"string","name":"asset","type":"string"},{"internalType":"string","name":"condition","type":"string"},{"internalType":"uint256","name":"targetPriceUsd","type":"uint256"},{"internalType":"uint256","name":"createdAt","type":"uint256"}],"stateMutability":"view","type":"function"},{"inputs":[{"internalType":"address","name":"_handler","type":"address"}],"name":"setReactivityHandler","outputs":[],"stateMutability":"nonpayable","type":"function"},{"inputs":[{"internalType":"address","name":"newOwner","type":"address"}],"name":"transferOwnership","outputs":[],"stateMutability":"nonpayable","type":"function"},{"inputs":[],"name":"usdcToken","outputs":[{"internalType":"address","name":"","type":"address"}],"stateMutability":"view","type":"function"},{"inputs":[{"internalType":"address","name":"to","type":"address"},{"internalType":"uint256","name":"amount","type":"uint256"}],"name":"withdrawUSDC","outputs":[],"stateMutability":"nonpayable","type":"function"},{"inputs":[{"internalType":"bytes","name":"data","type":"bytes"}],"name":"writeRuleFromReactivity","outputs":[],"stateMutability":"nonpayable","type":"function"}],"evm":{"bytecode":{"linkReferences":{},"object":"608060405234801561001057600080fd5b506040516114fc3803806114fc83398101604081905261002f91610142565b338061005657604051631e4fbdf760e01b8152600060048201526024015b60405180910390fd5b61005f816100f2565b506001600160a01b0381166100cd5760405162461bcd60e51b815260206004820152602e60248201527f52756c6552656769737472793a2053545420746f6b656e20616464726573732060448201526d63616e6e6f74206265207a65726f60901b606482015260840161004d565b600180546001600160a01b0319166001600160a01b0392909216919091179055610172565b600080546001600160a01b038381166001600160a01b0319831681178455604051919092169283917f8be0079c531659141344cd1fd0a4f28419497f9722a3daafe3b4186f6b6457e09190a35050565b60006020828403121561015457600080fd5b81516001600160a01b038116811461016b57600080fd5b9392505050565b61137b806101816000396000f3fe608060405234801561001057600080fd5b50600436106100ea5760003560e01c80635ba43ffc1161008c578063715018a611610066578063715018a6146101de5780638da5cb5b146101e6578063961b1975146101f7578063f2fde38b1461020a57600080fd5b80635ba43ffc146101ba5780635c3ca910146101cd57806370f047b0146101d557600080fd5b80633cfd1ccc116100c85780633cfd1ccc1461015c5780633f6b8fca1461017257806344471fd914610187578063484620371461019a57600080fd5b806304d6ded4146100ef5780631184aef21461011c57806311eac85514610131575b600080fd5b6101026100fd366004610d96565b61021d565b604051610113959493929190610df5565b60405180910390f35b61012461035c565b6040516101139190610e8e565b600154610144906001600160a01b031681565b6040516001600160a01b039091168152602001610113565b61016461057c565b604051908152602001610113565b610185610180366004610f0f565b610624565b005b610185610195366004610f31565b61067e565b6101ad6101a8366004610d96565b610960565b6040516101139190610f5b565b600254610144906001600160a01b031681565b600354610164565b61016460035481565b610185610b43565b6000546001600160a01b0316610144565b610185610205366004610f6e565b610b57565b610185610218366004610f0f565b610bff565b6004602052600090815260409020805460018201805491929161023f90610fe2565b80601f016020809104026020016040519081016040528092919081815260200182805461026b90610fe2565b80156102b85780601f1061028d576101008083540402835291602001916102b8565b820191906000526020600020905b81548152906001019060200180831161029b57829003601f168201915b5050505050908060020180546102cd90610fe2565b80601f01602080910402602001604051908101604052809291908181526020018280546102f990610fe2565b80156103465780601f1061031b57610100808354040283529160200191610346565b820191906000526020600020905b81548152906001019060200180831161032957829003601f168201915b5050505050908060030154908060040154905085565b6060600060035467ffffffffffffffff81111561037b5761037b611016565b6040519080825280602002602001820160405280156103e157816020015b6103ce6040518060a0016040528060008019168152602001606081526020016060815260200160008152602001600081525090565b8152602001906001900390816103995790505b50905060005b60035481101561057657600460008281526020019081526020016000206040518060a00160405290816000820154815260200160018201805461042990610fe2565b80601f016020809104026020016040519081016040528092919081815260200182805461045590610fe2565b80156104a25780601f10610477576101008083540402835291602001916104a2565b820191906000526020600020905b81548152906001019060200180831161048557829003601f168201915b505050505081526020016002820180546104bb90610fe2565b80601f01602080910402602001604051908101604052809291908181526020018280546104e790610fe2565b80156105345780601f1061050957610100808354040283529160200191610534565b820191906000526020600020905b81548152906001019060200180831161051757829003601f168201915b50505050508152602001600382015481526020016004820154815250508282815181106105635761056361102c565b60209081029190910101526001016103e7565b50919050565b6001546000906001600160a01b03166105b05760405162461bcd60e51b81526004016105a790611042565b60405180910390fd5b6001546040516370a0823160e01b81523060048201526001600160a01b039091169081906370a0823190602401602060405180830381865afa1580156105fa573d6000803e3d6000fd5b505050506040513d601f19601f8201168201806040525081019061061e9190611089565b91505090565b61062c610c3d565b600280546001600160a01b038381166001600160a01b0319831681179093556040519116919082907fa7e53a6bde8f002e14316a9e482d555151e420a53c69b8922d7b0a7a7e79ef6990600090a35050565b610686610c3d565b6001546001600160a01b03166106ae5760405162461bcd60e51b81526004016105a790611042565b6001600160a01b0382166107145760405162461bcd60e51b815260206004820152602760248201527f52756c6552656769737472793a20696e76616c696420726563697069656e74206044820152666164647265737360c81b60648201526084016105a7565b6000811161077b5760405162461bcd60e51b815260206004820152602e60248201527f52756c6552656769737472793a20616d6f756e74206d7573742062652067726560448201526d61746572207468616e207a65726f60901b60648201526084016105a7565b6001546040516370a0823160e01b81523060048201526001600160a01b039091169060009082906370a0823190602401602060405180830381865afa1580156107c8573d6000803e3d6000fd5b505050506040513d601f19601f820116820180604052508101906107ec9190611089565b90508281101561084d5760405162461bcd60e51b815260206004820152602660248201527f52756c6552656769737472793a20696e73756666696369656e74205354542062604482015265616c616e636560d01b60648201526084016105a7565b60405163a9059cbb60e01b81526001600160a01b0385811660048301526024820185905283169063a9059cbb906044016020604051808303816000875af115801561089c573d6000803e3d6000fd5b505050506040513d601f19601f820116820180604052508101906108c091906110a2565b6109165760405162461bcd60e51b815260206004820152602160248201527f52756c6552656769737472793a20535454207472616e73666572206661696c656044820152601960fa1b60648201526084016105a7565b6001546040518481526001600160a01b038681169216907f2717ead6b9200dd235aad468c9809ea400fe33ac69b5bfaa6d3e90fc922b63989060200160405180910390a350505050565b6109956040518060a0016040528060008019168152602001606081526020016060815260200160008152602001600081525090565b60035482106109dc5760405162461bcd60e51b8152602060048201526013602482015272149d5b1948191bd95cc81b9bdd08195e1a5cdd606a1b60448201526064016105a7565b600460008381526020019081526020016000206040518060a001604052908160008201548152602001600182018054610a1490610fe2565b80601f0160208091040260200160405190810160405280929190818152602001828054610a4090610fe2565b8015610a8d5780601f10610a6257610100808354040283529160200191610a8d565b820191906000526020600020905b815481529060010190602001808311610a7057829003601f168201915b50505050508152602001600282018054610aa690610fe2565b80601f0160208091040260200160405190810160405280929190818152602001828054610ad290610fe2565b8015610b1f5780601f10610af457610100808354040283529160200191610b1f565b820191906000526020600020905b815481529060010190602001808311610b0257829003601f168201915b50505050508152602001600382015481526020016004820154815250509050919050565b610b4b610c3d565b610b556000610c6a565b565b6002546001600160a01b03163314610bcc5760405162461bcd60e51b815260206004820152603260248201527f52756c6552656769737472793a2063616c6c6572206973206e6f7420746865206044820152713932b0b1ba34bb34ba3c903430b7323632b960711b60648201526084016105a7565b600080808080610bde86880188611153565b94509450945094509450610bf58585858585610cba565b5050505050505050565b610c07610c3d565b6001600160a01b038116610c3157604051631e4fbdf760e01b8152600060048201526024016105a7565b610c3a81610c6a565b50565b6000546001600160a01b03163314610b555760405163118cdaa760e01b81523360048201526024016105a7565b600080546001600160a01b038381166001600160a01b0319831681178455604051919092169283917f8be0079c531659141344cd1fd0a4f28419497f9722a3daafe3b4186f6b6457e09190a35050565b60038054600091819083610ccd836111d7565b90915550506040805160a08101825288815260208082018981528284018990526060830188905260808301879052600085815260049092529290208151815591519091906001820190610d20908261124d565b5060408201516002820190610d35908261124d565b50606082015181600301556080820151816004015590505086817f500f12fa025b5c2655bd0938cc63539362f2b7adffd81d9ea12ffadd042061ce88888888604051610d84949392919061130c565b60405180910390a39695505050505050565b600060208284031215610da857600080fd5b5035919050565b6000815180845260005b81811015610dd557602081850181015186830182015201610db9565b506000602082860101526020601f19601f83011685010191505092915050565b85815260a060208201526000610e0e60a0830187610daf565b8281036040840152610e208187610daf565b60608401959095525050608001529392505050565b805182526000602082015160a06020850152610e5460a0850182610daf565b905060408301518482036040860152610e6d8282610daf565b91505060608301516060850152608083015160808501528091505092915050565b6000602082016020835280845180835260408501915060408160051b86010192506020860160005b82811015610ee757603f19878603018452610ed2858351610e35565b94506020938401939190910190600101610eb6565b50929695505050505050565b80356001600160a01b0381168114610f0a57600080fd5b919050565b600060208284031215610f2157600080fd5b610f2a82610ef3565b9392505050565b60008060408385031215610f4457600080fd5b610f4d83610ef3565b946020939093013593505050565b602081526000610f2a6020830184610e35565b60008060208385031215610f8157600080fd5b823567ffffffffffffffff811115610f9857600080fd5b8301601f81018513610fa957600080fd5b803567ffffffffffffffff811115610fc057600080fd5b856020828401011115610fd257600080fd5b6020919091019590945092505050565b600181811c90821680610ff657607f821691505b60208210810361057657634e487b7160e01b600052602260045260246000fd5b634e487b7160e01b600052604160045260246000fd5b634e487b7160e01b600052603260045260246000fd5b60208082526027908201527f52756c6552656769737472793a2053545420746f6b656e2061646472657373206040820152661b9bdd081cd95d60ca1b606082015260800190565b60006020828403121561109b57600080fd5b5051919050565b6000602082840312156110b457600080fd5b81518015158114610f2a57600080fd5b600082601f8301126110d557600080fd5b813567ffffffffffffffff8111156110ef576110ef611016565b604051601f8201601f19908116603f0116810167ffffffffffffffff8111828210171561111e5761111e611016565b60405281815283820160200185101561113657600080fd5b816020850160208301376000918101602001919091529392505050565b600080600080600060a0868803121561116b57600080fd5b85359450602086013567ffffffffffffffff81111561118957600080fd5b611195888289016110c4565b945050604086013567ffffffffffffffff8111156111b257600080fd5b6111be888289016110c4565b9598949750949560608101359550608001359392505050565b6000600182016111f757634e487b7160e01b600052601160045260246000fd5b5060010190565b601f82111561124857806000526020600020601f840160051c810160208510156112255750805b601f840160051c820191505b818110156112455760008155600101611231565b50505b505050565b815167ffffffffffffffff81111561126757611267611016565b61127b816112758454610fe2565b846111fe565b6020601f8211600181146112af57600083156112975750848201515b600019600385901b1c1916600184901b178455611245565b600084815260208120601f198516915b828110156112df57878501518255602094850194600190920191016112bf565b50848210156112fd5786840151600019600387901b60f8161c191681555b50505050600190811b01905550565b60808152600061131f6080830187610daf565b82810360208401526113318187610daf565b60408401959095525050606001529291505056fea2646970667358221220c704858dac4a85c72127cb0f8c5b2de149322b5aa7d6d9779e0b463294ea1a3164736f6c634300081e0033","opcodes":"PUSH1 0x80 PUSH1 0x40 MSTORE CALLVALUE DUP1 ISZERO PUSH2 0x10 JUMPI PUSH1 0x0 DUP1 REVERT JUMPDEST POP PUSH1 0x40 MLOAD PUSH2 0x14FC CODESIZE SUB DUP1 PUSH2 0x14FC DUP4 CODECOPY DUP2 ADD PUSH1 0x40 DUP2 SWAP1 MSTORE PUSH2 0x2F SWAP2 PUSH2 0x142 JUMP JUMPDEST CALLER DUP1 PUSH2 0x56 JUMPI PUSH1 0x40 MLOAD PUSH4 0x1E4FBDF7 PUSH1 0xE0 SHL DUP2 MSTORE PUSH1 0x0 PUSH1 0x4 DUP3 ADD MSTORE PUSH1 0x24 ADD JUMPDEST PUSH1 0x40 MLOAD DUP1 SWAP2 SUB SWAP1 REVERT JUMPDEST PUSH2 0x5F DUP2 PUSH2 0xF2 JUMP JUMPDEST POP PUSH1 0x1 PUSH1 0x1 PUSH1 0xA0 SHL SUB DUP2 AND PUSH2 0xCD JUMPI PUSH1 0x40 MLOAD PUSH3 0x461BCD PUSH1 0xE5 SHL DUP2 MSTORE PUSH1 0x20 PUSH1 0x4 DUP3 ADD MSTORE PUSH1 0x2E PUSH1 0x24 DUP3 ADD MSTORE PUSH32 0x52756C6552656769737472793A2053545420746F6B656E206164647265737320 PUSH1 0x44 DUP3 ADD MSTORE PUSH14 0x63616E6E6F74206265207A65726F PUSH1 0x90 SHL PUSH1 0x64 DUP3 ADD MSTORE PUSH1 0x84 ADD PUSH2 0x4D JUMP JUMPDEST PUSH1 0x1 DUP1 SLOAD PUSH1 0x1 PUSH1 0x1 PUSH1 0xA0 SHL SUB NOT AND PUSH1 0x1 PUSH1 0x1 PUSH1 0xA0 SHL SUB SWAP3 SWAP1 SWAP3 AND SWAP2 SWAP1 SWAP2 OR SWAP1 SSTORE PUSH2 0x172 JUMP JUMPDEST PUSH1 0x0 DUP1 SLOAD PUSH1 0x1 PUSH1 0x1 PUSH1 0xA0 SHL SUB DUP4 DUP2 AND PUSH1 0x1 PUSH1 0x1 PUSH1 0xA0 SHL SUB NOT DUP4 AND DUP2 OR DUP5 SSTORE PUSH1 0x40 MLOAD SWAP2 SWAP1 SWAP3 AND SWAP3 DUP4 SWAP2 PUSH32 0x8BE0079C531659141344CD1FD0A4F28419497F9722A3DAAFE3B4186F6B6457E0 SWAP2 SWAP1 LOG3 POP POP JUMP JUMPDEST PUSH1 0x0 PUSH1 0x20 DUP3 DUP5 SUB SLT ISZERO PUSH2 0x154 JUMPI PUSH1 0x0 DUP1 REVERT JUMPDEST DUP2 MLOAD PUSH1 0x1 PUSH1 0x1 PUSH1 0xA0 SHL SUB DUP2 AND DUP2 EQ PUSH2 0x16B JUMPI PUSH1 0x0 DUP1 REVERT JUMPDEST SWAP4 SWAP3 POP POP POP JUMP JUMPDEST PUSH2 0x137B DUP1 PUSH2 0x181 PUSH1 0x0 CODECOPY PUSH1 0x0 RETURN INVALID PUSH1 0x80 PUSH1 0x40 MSTORE CALLVALUE DUP1 ISZERO PUSH2 0x10 JUMPI PUSH1 0x0 DUP1 REVERT JUMPDEST POP PUSH1 0x4 CALLDATASIZE LT PUSH2 0xEA JUMPI PUSH1 0x0 CALLDATALOAD PUSH1 0xE0 SHR DUP1 PUSH4 0x5BA43FFC GT PUSH2 0x8C JUMPI DUP1 PUSH4 0x715018A6 GT PUSH2 0x66 JUMPI DUP1 PUSH4 0x715018A6 EQ PUSH2 0x1DE JUMPI DUP1 PUSH4 0x8DA5CB5B EQ PUSH2 0x1E6 JUMPI DUP1 PUSH4 0x961B1975 EQ PUSH2 0x1F7 JUMPI DUP1 PUSH4 0xF2FDE38B EQ PUSH2 0x20A JUMPI PUSH1 0x0 DUP1 REVERT JUMPDEST DUP1 PUSH4 0x5BA43FFC EQ PUSH2 0x1BA JUMPI DUP1 PUSH4 0x5C3CA910 EQ PUSH2 0x1CD JUMPI DUP1 PUSH4 0x70F047B0 EQ PUSH2 0x1D5 JUMPI PUSH1 0x0 DUP1 REVERT JUMPDEST DUP1 PUSH4 0x3CFD1CCC GT PUSH2 0xC8 JUMPI DUP1 PUSH4 0x3CFD1CCC EQ PUSH2 0x15C JUMPI DUP1 PUSH4 0x3F6B8FCA EQ PUSH2 0x172 JUMPI DUP1 PUSH4 0x44471FD9 EQ PUSH2 0x187 JUMPI DUP1 PUSH4 0x48462037 EQ PUSH2 0x19A JUMPI PUSH1 0x0 DUP1 REVERT JUMPDEST DUP1 PUSH4 0x4D6DED4 EQ PUSH2 0xEF JUMPI DUP1 PUSH4 0x1184AEF2 EQ PUSH2 0x11C JUMPI DUP1 PUSH4 0x11EAC855 EQ PUSH2 0x131 JUMPI JUMPDEST PUSH1 0x0 DUP1 REVERT JUMPDEST PUSH2 0x102 PUSH2 0xFD CALLDATASIZE PUSH1 0x4 PUSH2 0xD96 JUMP JUMPDEST PUSH2 0x21D JUMP JUMPDEST PUSH1 0x40 MLOAD PUSH2 0x113 SWAP6 SWAP5 SWAP4 SWAP3 SWAP2 SWAP1 PUSH2 0xDF5 JUMP JUMPDEST PUSH1 0x40 MLOAD DUP1 SWAP2 SUB SWAP1 RETURN JUMPDEST PUSH2 0x124 PUSH2 0x35C JUMP JUMPDEST PUSH1 0x40 MLOAD PUSH2 0x113 SWAP2 SWAP1 PUSH2 0xE8E JUMP JUMPDEST PUSH1 0x1 SLOAD PUSH2 0x144 SWAP1 PUSH1 0x1 PUSH1 0x1 PUSH1 0xA0 SHL SUB AND DUP2 JUMP JUMPDEST PUSH1 0x40 MLOAD PUSH1 0x1 PUSH1 0x1 PUSH1 0xA0 SHL SUB SWAP1 SWAP2 AND DUP2 MSTORE PUSH1 0x20 ADD PUSH2 0x113 JUMP JUMPDEST PUSH2 0x164 PUSH2 0x57C JUMP JUMPDEST PUSH1 0x40 MLOAD SWAP1 DUP2 MSTORE PUSH1 0x20 ADD PUSH2 0x113 JUMP JUMPDEST PUSH2 0x185 PUSH2 0x180 CALLDATASIZE PUSH1 0x4 PUSH2 0xF0F JUMP JUMPDEST PUSH2 0x624 JUMP JUMPDEST STOP JUMPDEST PUSH2 0x185 PUSH2 0x195 CALLDATASIZE PUSH1 0x4 PUSH2 0xF31 JUMP JUMPDEST PUSH2 0x67E JUMP JUMPDEST PUSH2 0x1AD PUSH2 0x1A8 CALLDATASIZE PUSH1 0x4 PUSH2 0xD96 JUMP JUMPDEST PUSH2 0x960 JUMP JUMPDEST PUSH1 0x40 MLOAD PUSH2 0x113 SWAP2 SWAP1 PUSH2 0xF5B JUMP JUMPDEST PUSH1 0x2 SLOAD PUSH2 0x144 SWAP1 PUSH1 0x1 PUSH1 0x1 PUSH1 0xA0 SHL SUB AND DUP2 JUMP JUMPDEST PUSH1 0x3 SLOAD PUSH2 0x164 JUMP JUMPDEST PUSH2 0x164 PUSH1 0x3 SLOAD DUP2 JUMP JUMPDEST PUSH2 0x185 PUSH2 0xB43 JUMP JUMPDEST PUSH1 0x0 SLOAD PUSH1 0x1 PUSH1 0x1 PUSH1 0xA0 SHL SUB AND PUSH2 0x144 JUMP JUMPDEST PUSH2 0x185 PUSH2 0x205 CALLDATASIZE PUSH1 0x4 PUSH2 0xF6E JUMP JUMPDEST PUSH2 0xB57 JUMP JUMPDEST PUSH2 0x185 PUSH2 0x218 CALLDATASIZE PUSH1 0x4 PUSH2 0xF0F JUMP JUMPDEST PUSH2 0xBFF JUMP JUMPDEST PUSH1 0x4 PUSH1 0x20 MSTORE PUSH1 0x0 SWAP1 DUP2 MSTORE PUSH1 0x40 SWAP1 KECCAK256 DUP1 SLOAD PUSH1 0x1 DUP3 ADD DUP1 SLOAD SWAP2 SWAP3 SWAP2 PUSH2 0x23F SWAP1 PUSH2 0xFE2 JUMP JUMPDEST DUP1 PUSH1 0x1F ADD PUSH1 0x20 DUP1 SWAP2 DIV MUL PUSH1 0x20 ADD PUSH1 0x40 MLOAD SWAP1 DUP2 ADD PUSH1 0x40 MSTORE DUP1 SWAP3 SWAP2 SWAP1 DUP2 DUP2 MSTORE PUSH1 0x20 ADD DUP3 DUP1 SLOAD PUSH2 0x26B SWAP1 PUSH2 0xFE2 JUMP JUMPDEST DUP1 ISZERO PUSH2 0x2B8 JUMPI DUP1 PUSH1 0x1F LT PUSH2 0x28D JUMPI PUSH2 0x100 DUP1 DUP4 SLOAD DIV MUL DUP4 MSTORE SWAP2 PUSH1 0x20 ADD SWAP2 PUSH2 0x2B8 JUMP JUMPDEST DUP3 ADD SWAP2 SWAP1 PUSH1 0x0 MSTORE PUSH1 0x20 PUSH1 0x0 KECCAK256 SWAP1 JUMPDEST DUP2 SLOAD DUP2 MSTORE SWAP1 PUSH1 0x1 ADD SWAP1 PUSH1 0x20 ADD DUP1 DUP4 GT PUSH2 0x29B JUMPI DUP3 SWAP1 SUB PUSH1 0x1F AND DUP3 ADD SWAP2 JUMPDEST POP POP POP POP POP SWAP1 DUP1 PUSH1 0x2 ADD DUP1 SLOAD PUSH2 0x2CD SWAP1 PUSH2 0xFE2 JUMP JUMPDEST DUP1 PUSH1 0x1F ADD PUSH1 0x20 DUP1 SWAP2 DIV MUL PUSH1 0x20 ADD PUSH1 0x40 MLOAD SWAP1 DUP2 ADD PUSH1 0x40 MSTORE DUP1 SWAP3 SWAP2 SWAP1 DUP2 DUP2 MSTORE PUSH1 0x20 ADD DUP3 DUP1 SLOAD PUSH2 0x2F9 SWAP1 PUSH2 0xFE2 JUMP JUMPDEST DUP1 ISZERO PUSH2 0x346 JUMPI DUP1 PUSH1 0x1F LT PUSH2 0x31B JUMPI PUSH2 0x100 DUP1 DUP4 SLOAD DIV MUL DUP4 MSTORE SWAP2 PUSH1 0x20 ADD SWAP2 PUSH2 0x346 JUMP JUMPDEST DUP3 ADD SWAP2 SWAP1 PUSH1 0x0 MSTORE PUSH1 0x20 PUSH1 0x0 KECCAK256 SWAP1 JUMPDEST DUP2 SLOAD DUP2 MSTORE SWAP1 PUSH1 0x1 ADD SWAP1 PUSH1 0x20 ADD DUP1 DUP4 GT PUSH2 0x329 JUMPI DUP3 SWAP1 SUB PUSH1 0x1F AND DUP3 ADD SWAP2 JUMPDEST POP POP POP POP POP SWAP1 DUP1 PUSH1 0x3 ADD SLOAD SWAP1 DUP1 PUSH1 0x4 ADD SLOAD SWAP1 POP DUP6 JUMP JUMPDEST PUSH1 0x60 PUSH1 0x0 PUSH1 0x3 SLOAD PUSH8 0xFFFFFFFFFFFFFFFF DUP2 GT ISZERO PUSH2 0x37B JUMPI PUSH2 0x37B PUSH2 0x1016 JUMP JUMPDEST PUSH1 0x40 MLOAD SWAP1 DUP1 DUP3 MSTORE DUP1 PUSH1 0x20 MUL PUSH1 0x20 ADD DUP3 ADD PUSH1 0x40 MSTORE DUP1 ISZERO PUSH2 0x3E1 JUMPI DUP2 PUSH1 0x20 ADD JUMPDEST PUSH2 0x3CE PUSH1 0x40 MLOAD DUP1 PUSH1 0xA0 ADD PUSH1 0x40 MSTORE DUP1 PUSH1 0x0 DUP1 NOT AND DUP2 MSTORE PUSH1 0x20 ADD PUSH1 0x60 DUP2 MSTORE PUSH1 0x20 ADD PUSH1 0x60 DUP2 MSTORE PUSH1 0x20 ADD PUSH1 0x0 DUP2 MSTORE PUSH1 0x20 ADD PUSH1 0x0 DUP2 MSTORE POP SWAP1 JUMP JUMPDEST DUP2 MSTORE PUSH1 0x20 ADD SWAP1 PUSH1 0x1 SWAP1 SUB SWAP1 DUP2 PUSH2 0x399 JUMPI SWAP1 POP JUMPDEST POP SWAP1 POP PUSH1 0x0 JUMPDEST PUSH1 0x3 SLOAD DUP2 LT ISZERO PUSH2 0x576 JUMPI PUSH1 0x4 PUSH1 0x0 DUP3 DUP2 MSTORE PUSH1 0x20 ADD SWAP1 DUP2 MSTORE PUSH1 0x20 ADD PUSH1 0x0 KECCAK256 PUSH1 0x40 MLOAD DUP1 PUSH1 0xA0 ADD PUSH1 0x40 MSTORE SWAP1 DUP2 PUSH1 0x0 DUP3 ADD SLOAD DUP2 MSTORE PUSH1 0x20 ADD PUSH1 0x1 DUP3 ADD DUP1 SLOAD PUSH2 0x429 SWAP1 PUSH2 0xFE2 JUMP JUMPDEST DUP1 PUSH1 0x1F ADD PUSH1 0x20 DUP1 SWAP2 DIV MUL PUSH1 0x20 ADD PUSH1 0x40 MLOAD SWAP1 DUP2 ADD PUSH1 0x40 MSTORE DUP1 SWAP3 SWAP2 SWAP1 DUP2 DUP2 MSTORE PUSH1 0x20 ADD DUP3 DUP1 SLOAD PUSH2 0x455 SWAP1 PUSH2 0xFE2 JUMP JUMPDEST DUP1 ISZERO PUSH2 0x4A2 JUMPI DUP1 PUSH1 0x1F LT PUSH2 0x477 JUMPI PUSH2 0x100 DUP1 DUP4 SLOAD DIV MUL DUP4 MSTORE SWAP2 PUSH1 0x20 ADD SWAP2 PUSH2 0x4A2 JUMP JUMPDEST DUP3 ADD SWAP2 SWAP1 PUSH1 0x0 MSTORE PUSH1 0x20 PUSH1 0x0 KECCAK256 SWAP1 JUMPDEST DUP2 SLOAD DUP2 MSTORE SWAP1 PUSH1 0x1 ADD SWAP1 PUSH1 0x20 ADD DUP1 DUP4 GT PUSH2 0x485 JUMPI DUP3 SWAP1 SUB PUSH1 0x1F AND DUP3 ADD SWAP2 JUMPDEST POP POP POP POP POP DUP2 MSTORE PUSH1 0x20 ADD PUSH1 0x2 DUP3 ADD DUP1 SLOAD PUSH2 0x4BB SWAP1 PUSH2 0xFE2 JUMP JUMPDEST DUP1 PUSH1 0x1F ADD PUSH1 0x20 DUP1 SWAP2 DIV MUL PUSH1 0x20 ADD PUSH1 0x40 MLOAD SWAP1 DUP2 ADD PUSH1 0x40 MSTORE DUP1 SWAP3 SWAP2 SWAP1 DUP2 DUP2 MSTORE PUSH1 0x20 ADD DUP3 DUP1 SLOAD PUSH2 0x4E7 SWAP1 PUSH2 0xFE2 JUMP JUMPDEST DUP1 ISZERO PUSH2 0x534 JUMPI DUP1 PUSH1 0x1F LT PUSH2 0x509 JUMPI PUSH2 0x100 DUP1 DUP4 SLOAD DIV MUL DUP4 MSTORE SWAP2 PUSH1 0x20 ADD SWAP2 PUSH2 0x534 JUMP JUMPDEST DUP3 ADD SWAP2 SWAP1 PUSH1 0x0 MSTORE PUSH1 0x20 PUSH1 0x0 KECCAK256 SWAP1 JUMPDEST DUP2 SLOAD DUP2 MSTORE SWAP1 PUSH1 0x1 ADD SWAP1 PUSH1 0x20 ADD DUP1 DUP4 GT PUSH2 0x517 JUMPI DUP3 SWAP1 SUB PUSH1 0x1F AND DUP3 ADD SWAP2 JUMPDEST POP POP POP POP POP DUP2 MSTORE PUSH1 0x20 ADD PUSH1 0x3 DUP3 ADD SLOAD DUP2 MSTORE PUSH1 0x20 ADD PUSH1 0x4 DUP3 ADD SLOAD DUP2 MSTORE POP POP DUP3 DUP3 DUP2 MLOAD DUP2 LT PUSH2 0x563 JUMPI PUSH2 0x563 PUSH2 0x102C JUMP JUMPDEST PUSH1 0x20 SWAP1 DUP2 MUL SWAP2 SWAP1 SWAP2 ADD ADD MSTORE PUSH1 0x1 ADD PUSH2 0x3E7 JUMP JUMPDEST POP SWAP2 SWAP1 POP JUMP JUMPDEST PUSH1 0x1 SLOAD PUSH1 0x0 SWAP1 PUSH1 0x1 PUSH1 0x1 PUSH1 0xA0 SHL SUB AND PUSH2 0x5B0 JUMPI PUSH1 0x40 MLOAD PUSH3 0x461BCD PUSH1 0xE5 SHL DUP2 MSTORE PUSH1 0x4 ADD PUSH2 0x5A7 SWAP1 PUSH2 0x1042 JUMP JUMPDEST PUSH1 0x40 MLOAD DUP1 SWAP2 SUB SWAP1 REVERT JUMPDEST PUSH1 0x1 SLOAD PUSH1 0x40 MLOAD PUSH4 0x70A08231 PUSH1 0xE0 SHL DUP2 MSTORE ADDRESS PUSH1 0x4 DUP3 ADD MSTORE PUSH1 0x1 PUSH1 0x1 PUSH1 0xA0 SHL SUB SWAP1 SWAP2 AND SWAP1 DUP2 SWAP1 PUSH4 0x70A08231 SWAP1 PUSH1 0x24 ADD PUSH1 0x20 PUSH1 0x40 MLOAD DUP1 DUP4 SUB DUP2 DUP7 GAS STATICCALL ISZERO DUP1 ISZERO PUSH2 0x5FA JUMPI RETURNDATASIZE PUSH1 0x0 DUP1 RETURNDATACOPY RETURNDATASIZE PUSH1 0x0 REVERT JUMPDEST POP POP POP POP PUSH1 0x40 MLOAD RETURNDATASIZE PUSH1 0x1F NOT PUSH1 0x1F DUP3 ADD AND DUP3 ADD DUP1 PUSH1 0x40 MSTORE POP DUP2 ADD SWAP1 PUSH2 0x61E SWAP2 SWAP1 PUSH2 0x1089 JUMP JUMPDEST SWAP2 POP POP SWAP1 JUMP JUMPDEST PUSH2 0x62C PUSH2 0xC3D JUMP JUMPDEST PUSH1 0x2 DUP1 SLOAD PUSH1 0x1 PUSH1 0x1 PUSH1 0xA0 SHL SUB DUP4 DUP2 AND PUSH1 0x1 PUSH1 0x1 PUSH1 0xA0 SHL SUB NOT DUP4 AND DUP2 OR SWAP1 SWAP4 SSTORE PUSH1 0x40 MLOAD SWAP2 AND SWAP2 SWAP1 DUP3 SWAP1 PUSH32 0xA7E53A6BDE8F002E14316A9E482D555151E420A53C69B8922D7B0A7A7E79EF69 SWAP1 PUSH1 0x0 SWAP1 LOG3 POP POP JUMP JUMPDEST PUSH2 0x686 PUSH2 0xC3D JUMP JUMPDEST PUSH1 0x1 SLOAD PUSH1 0x1 PUSH1 0x1 PUSH1 0xA0 SHL SUB AND PUSH2 0x6AE JUMPI PUSH1 0x40 MLOAD PUSH3 0x461BCD PUSH1 0xE5 SHL DUP2 MSTORE PUSH1 0x4 ADD PUSH2 0x5A7 SWAP1 PUSH2 0x1042 JUMP JUMPDEST PUSH1 0x1 PUSH1 0x1 PUSH1 0xA0 SHL SUB DUP3 AND PUSH2 0x714 JUMPI PUSH1 0x40 MLOAD PUSH3 0x461BCD PUSH1 0xE5 SHL DUP2 MSTORE PUSH1 0x20 PUSH1 0x4 DUP3 ADD MSTORE PUSH1 0x27 PUSH1 0x24 DUP3 ADD MSTORE PUSH32 0x52756C6552656769737472793A20696E76616C696420726563697069656E7420 PUSH1 0x44 DUP3 ADD MSTORE PUSH7 0x61646472657373 PUSH1 0xC8 SHL PUSH1 0x64 DUP3 ADD MSTORE PUSH1 0x84 ADD PUSH2 0x5A7 JUMP JUMPDEST PUSH1 0x0 DUP2 GT PUSH2 0x77B JUMPI PUSH1 0x40 MLOAD PUSH3 0x461BCD PUSH1 0xE5 SHL DUP2 MSTORE PUSH1 0x20 PUSH1 0x4 DUP3 ADD MSTORE PUSH1 0x2E PUSH1 0x24 DUP3 ADD MSTORE PUSH32 0x52756C6552656769737472793A20616D6F756E74206D75737420626520677265 PUSH1 0x44 DUP3 ADD MSTORE PUSH14 0x61746572207468616E207A65726F PUSH1 0x90 SHL PUSH1 0x64 DUP3 ADD MSTORE PUSH1 0x84 ADD PUSH2 0x5A7 JUMP JUMPDEST PUSH1 0x1 SLOAD PUSH1 0x40 MLOAD PUSH4 0x70A08231 PUSH1 0xE0 SHL DUP2 MSTORE ADDRESS PUSH1 0x4 DUP3 ADD MSTORE PUSH1 0x1 PUSH1 0x1 PUSH1 0xA0 SHL SUB SWAP1 SWAP2 AND SWAP1 PUSH1 0x0 SWAP1 DUP3 SWAP1 PUSH4 0x70A08231 SWAP1 PUSH1 0x24 ADD PUSH1 0x20 PUSH1 0x40 MLOAD DUP1 DUP4 SUB DUP2 DUP7 GAS STATICCALL ISZERO DUP1 ISZERO PUSH2 0x7C8 JUMPI RETURNDATASIZE PUSH1 0x0 DUP1 RETURNDATACOPY RETURNDATASIZE PUSH1 0x0 REVERT JUMPDEST POP POP POP POP PUSH1 0x40 MLOAD RETURNDATASIZE PUSH1 0x1F NOT PUSH1 0x1F DUP3 ADD AND DUP3 ADD DUP1 PUSH1 0x40 MSTORE POP DUP2 ADD SWAP1 PUSH2 0x7EC SWAP2 SWAP1 PUSH2 0x1089 JUMP JUMPDEST SWAP1 POP DUP3 DUP2 LT ISZERO PUSH2 0x84D JUMPI PUSH1 0x40 MLOAD PUSH3 0x461BCD PUSH1 0xE5 SHL DUP2 MSTORE PUSH1 0x20 PUSH1 0x4 DUP3 ADD MSTORE PUSH1 0x26 PUSH1 0x24 DUP3 ADD MSTORE PUSH32 0x52756C6552656769737472793A20696E73756666696369656E74205354542062 PUSH1 0x44 DUP3 ADD MSTORE PUSH6 0x616C616E6365 PUSH1 0xD0 SHL PUSH1 0x64 DUP3 ADD MSTORE PUSH1 0x84 ADD PUSH2 0x5A7 JUMP JUMPDEST PUSH1 0x40 MLOAD PUSH4 0xA9059CBB PUSH1 0xE0 SHL DUP2 MSTORE PUSH1 0x1 PUSH1 0x1 PUSH1 0xA0 SHL SUB DUP6 DUP2 AND PUSH1 0x4 DUP4 ADD MSTORE PUSH1 0x24 DUP3 ADD DUP6 SWAP1 MSTORE DUP4 AND SWAP1 PUSH4 0xA9059CBB SWAP1 PUSH1 0x44 ADD PUSH1 0x20 PUSH1 0x40 MLOAD DUP1 DUP4 SUB DUP2 PUSH1 0x0 DUP8 GAS CALL ISZERO DUP1 ISZERO PUSH2 0x89C JUMPI RETURNDATASIZE PUSH1 0x0 DUP1 RETURNDATACOPY RETURNDATASIZE PUSH1 0x0 REVERT JUMPDEST POP POP POP POP PUSH1 0x40 MLOAD RETURNDATASIZE PUSH1 0x1F NOT PUSH1 0x1F DUP3 ADD AND DUP3 ADD DUP1 PUSH1 0x40 MSTORE POP DUP2 ADD SWAP1 PUSH2 0x8C0 SWAP2 SWAP1 PUSH2 0x10A2 JUMP JUMPDEST PUSH2 0x916 JUMPI PUSH1 0x40 MLOAD PUSH3 0x461BCD PUSH1 0xE5 SHL DUP2 MSTORE PUSH1 0x20 PUSH1 0x4 DUP3 ADD MSTORE PUSH1 0x21 PUSH1 0x24 DUP3 ADD MSTORE PUSH32 0x52756C6552656769737472793A20535454207472616E73666572206661696C65 PUSH1 0x44 DUP3 ADD MSTORE PUSH1 0x19 PUSH1 0xFA SHL PUSH1 0x64 DUP3 ADD MSTORE PUSH1 0x84 ADD PUSH2 0x5A7 JUMP JUMPDEST PUSH1 0x1 SLOAD PUSH1 0x40 MLOAD DUP5 DUP2 MSTORE PUSH1 0x1 PUSH1 0x1 PUSH1 0xA0 SHL SUB DUP7 DUP2 AND SWAP3 AND SWAP1 PUSH32 0x2717EAD6B9200DD235AAD468C9809EA400FE33AC69B5BFAA6D3E90FC922B6398 SWAP1 PUSH1 0x20 ADD PUSH1 0x40 MLOAD DUP1 SWAP2 SUB SWAP1 LOG3 POP POP POP POP JUMP JUMPDEST PUSH2 0x995 PUSH1 0x40 MLOAD DUP1 PUSH1 0xA0 ADD PUSH1 0x40 MSTORE DUP1 PUSH1 0x0 DUP1 NOT AND DUP2 MSTORE PUSH1 0x20 ADD PUSH1 0x60 DUP2 MSTORE PUSH1 0x20 ADD PUSH1 0x60 DUP2 MSTORE PUSH1 0x20 ADD PUSH1 0x0 DUP2 MSTORE PUSH1 0x20 ADD PUSH1 0x0 DUP2 MSTORE POP SWAP1 JUMP JUMPDEST PUSH1 0x3 SLOAD DUP3 LT PUSH2 0x9DC JUMPI PUSH1 0x40 MLOAD PUSH3 0x461BCD PUSH1 0xE5 SHL DUP2 MSTORE PUSH1 0x20 PUSH1 0x4 DUP3 ADD MSTORE PUSH1 0x13 PUSH1 0x24 DUP3 ADD MSTORE PUSH19 0x149D5B1948191BD95CC81B9BDD08195E1A5CDD PUSH1 0x6A SHL PUSH1 0x44 DUP3 ADD MSTORE PUSH1 0x64 ADD PUSH2 0x5A7 JUMP JUMPDEST PUSH1 0x4 PUSH1 0x0 DUP4 DUP2 MSTORE PUSH1 0x20 ADD SWAP1 DUP2 MSTORE PUSH1 0x20 ADD PUSH1 0x0 KECCAK256 PUSH1 0x40 MLOAD DUP1 PUSH1 0xA0 ADD PUSH1 0x40 MSTORE SWAP1 DUP2 PUSH1 0x0 DUP3 ADD SLOAD DUP2 MSTORE PUSH1 0x20 ADD PUSH1 0x1 DUP3 ADD DUP1 SLOAD PUSH2 0xA14 SWAP1 PUSH2 0xFE2 JUMP JUMPDEST DUP1 PUSH1 0x1F ADD PUSH1 0x20 DUP1 SWAP2 DIV MUL PUSH1 0x20 ADD PUSH1 0x40 MLOAD SWAP1 DUP2 ADD PUSH1 0x40 MSTORE DUP1 SWAP3 SWAP2 SWAP1 DUP2 DUP2 MSTORE PUSH1 0x20 ADD DUP3 DUP1 SLOAD PUSH2 0xA40 SWAP1 PUSH2 0xFE2 JUMP JUMPDEST DUP1 ISZERO PUSH2 0xA8D JUMPI DUP1 PUSH1 0x1F LT PUSH2 0xA62 JUMPI PUSH2 0x100 DUP1 DUP4 SLOAD DIV MUL DUP4 MSTORE SWAP2 PUSH1 0x20 ADD SWAP2 PUSH2 0xA8D JUMP JUMPDEST DUP3 ADD SWAP2 SWAP1 PUSH1 0x0 MSTORE PUSH1 0x20 PUSH1 0x0 KECCAK256 SWAP1 JUMPDEST DUP2 SLOAD DUP2 MSTORE SWAP1 PUSH1 0x1 ADD SWAP1 PUSH1 0x20 ADD DUP1 DUP4 GT PUSH2 0xA70 JUMPI DUP3 SWAP1 SUB PUSH1 0x1F AND DUP3 ADD SWAP2 JUMPDEST POP POP POP POP POP DUP2 MSTORE PUSH1 0x20 ADD PUSH1 0x2 DUP3 ADD DUP1 SLOAD PUSH2 0xAA6 SWAP1 PUSH2 0xFE2 JUMP JUMPDEST DUP1 PUSH1 0x1F ADD PUSH1 0x20 DUP1 SWAP2 DIV MUL PUSH1 0x20 ADD PUSH1 0x40 MLOAD SWAP1 DUP2 ADD PUSH1 0x40 MSTORE DUP1 SWAP3 SWAP2 SWAP1 DUP2 DUP2 MSTORE PUSH1 0x20 ADD DUP3 DUP1 SLOAD PUSH2 0xAD2 SWAP1 PUSH2 0xFE2 JUMP JUMPDEST DUP1 ISZERO PUSH2 0xB1F JUMPI DUP1 PUSH1 0x1F LT PUSH2 0xAF4 JUMPI PUSH2 0x100 DUP1 DUP4 SLOAD DIV MUL DUP4 MSTORE SWAP2 PUSH1 0x20 ADD SWAP2 PUSH2 0xB1F JUMP JUMPDEST DUP3 ADD SWAP2 SWAP1 PUSH1 0x0 MSTORE PUSH1 0x20 PUSH1 0x0 KECCAK256 SWAP1 JUMPDEST DUP2 SLOAD DUP2 MSTORE SWAP1 PUSH1 0x1 ADD SWAP1 PUSH1 0x20 ADD DUP1 DUP4 GT PUSH2 0xB02 JUMPI DUP3 SWAP1 SUB PUSH1 0x1F AND DUP3 ADD SWAP2 JUMPDEST POP POP POP POP POP DUP2 MSTORE PUSH1 0x20 ADD PUSH1 0x3 DUP3 ADD SLOAD DUP2 MSTORE PUSH1 0x20 ADD PUSH1 0x4 DUP3 ADD SLOAD DUP2 MSTORE POP POP SWAP1 POP SWAP2 SWAP1 POP JUMP JUMPDEST PUSH2 0xB4B PUSH2 0xC3D JUMP JUMPDEST PUSH2 0xB55 PUSH1 0x0 PUSH2 0xC6A JUMP JUMPDEST JUMP JUMPDEST PUSH1 0x2 SLOAD PUSH1 0x1 PUSH1 0x1 PUSH1 0xA0 SHL SUB AND CALLER EQ PUSH2 0xBCC JUMPI PUSH1 0x40 MLOAD PUSH3 0x461BCD PUSH1 0xE5 SHL DUP2 MSTORE PUSH1 0x20 PUSH1 0x4 DUP3 ADD MSTORE PUSH1 0x32 PUSH1 0x24 DUP3 ADD MSTORE PUSH32 0x52756C6552656769737472793A2063616C6C6572206973206E6F742074686520 PUSH1 0x44 DUP3 ADD MSTORE PUSH18 0x3932B0B1BA34BB34BA3C903430B7323632B9 PUSH1 0x71 SHL PUSH1 0x64 DUP3 ADD MSTORE PUSH1 0x84 ADD PUSH2 0x5A7 JUMP JUMPDEST PUSH1 0x0 DUP1 DUP1 DUP1 DUP1 PUSH2 0xBDE DUP7 DUP9 ADD DUP9 PUSH2 0x1153 JUMP JUMPDEST SWAP5 POP SWAP5 POP SWAP5 POP SWAP5 POP SWAP5 POP PUSH2 0xBF5 DUP6 DUP6 DUP6 DUP6 DUP6 PUSH2 0xCBA JUMP JUMPDEST POP POP POP POP POP POP POP POP JUMP JUMPDEST PUSH2 0xC07 PUSH2 0xC3D JUMP JUMPDEST PUSH1 0x1 PUSH1 0x1 PUSH1 0xA0 SHL SUB DUP2 AND PUSH2 0xC31 JUMPI PUSH1 0x40 MLOAD PUSH4 0x1E4FBDF7 PUSH1 0xE0 SHL DUP2 MSTORE PUSH1 0x0 PUSH1 0x4 DUP3 ADD MSTORE PUSH1 0x24 ADD PUSH2 0x5A7 JUMP JUMPDEST PUSH2 0xC3A DUP2 PUSH2 0xC6A JUMP JUMPDEST POP JUMP JUMPDEST PUSH1 0x0 SLOAD PUSH1 0x1 PUSH1 0x1 PUSH1 0xA0 SHL SUB AND CALLER EQ PUSH2 0xB55 JUMPI PUSH1 0x40 MLOAD PUSH4 0x118CDAA7 PUSH1 0xE0 SHL DUP2 MSTORE CALLER PUSH1 0x4 DUP3 ADD MSTORE PUSH1 0x24 ADD PUSH2 0x5A7 JUMP JUMPDEST PUSH1 0x0 DUP1 SLOAD PUSH1 0x1 PUSH1 0x1 PUSH1 0xA0 SHL SUB DUP4 DUP2 AND PUSH1 0x1 PUSH1 0x1 PUSH1 0xA0 SHL SUB NOT DUP4 AND DUP2 OR DUP5 SSTORE PUSH1 0x40 MLOAD SWAP2 SWAP1 SWAP3 AND SWAP3 DUP4 SWAP2 PUSH32 0x8BE0079C531659141344CD1FD0A4F28419497F9722A3DAAFE3B4186F6B6457E0 SWAP2 SWAP1 LOG3 POP POP JUMP JUMPDEST PUSH1 0x3 DUP1 SLOAD PUSH1 0x0 SWAP2 DUP2 SWAP1 DUP4 PUSH2 0xCCD DUP4 PUSH2 0x11D7 JUMP JUMPDEST SWAP1 SWAP2 SSTORE POP POP PUSH1 0x40 DUP1 MLOAD PUSH1 0xA0 DUP2 ADD DUP3 MSTORE DUP9 DUP2 MSTORE PUSH1 0x20 DUP1 DUP3 ADD DUP10 DUP2 MSTORE DUP3 DUP5 ADD DUP10 SWAP1 MSTORE PUSH1 0x60 DUP4 ADD DUP9 SWAP1 MSTORE PUSH1 0x80 DUP4 ADD DUP8 SWAP1 MSTORE PUSH1 0x0 DUP6 DUP2 MSTORE PUSH1 0x4 SWAP1 SWAP3 MSTORE SWAP3 SWAP1 KECCAK256 DUP2 MLOAD DUP2 SSTORE SWAP2 MLOAD SWAP1 SWAP2 SWAP1 PUSH1 0x1 DUP3 ADD SWAP1 PUSH2 0xD20 SWAP1 DUP3 PUSH2 0x124D JUMP JUMPDEST POP PUSH1 0x40 DUP3 ADD MLOAD PUSH1 0x2 DUP3 ADD SWAP1 PUSH2 0xD35 SWAP1 DUP3 PUSH2 0x124D JUMP JUMPDEST POP PUSH1 0x60 DUP3 ADD MLOAD DUP2 PUSH1 0x3 ADD SSTORE PUSH1 0x80 DUP3 ADD MLOAD DUP2 PUSH1 0x4 ADD SSTORE SWAP1 POP POP DUP7 DUP2 PUSH32 0x500F12FA025B5C2655BD0938CC63539362F2B7ADFFD81D9EA12FFADD042061CE DUP9 DUP9 DUP9 DUP9 PUSH1 0x40 MLOAD PUSH2 0xD84 SWAP5 SWAP4 SWAP3 SWAP2 SWAP1 PUSH2 0x130C JUMP JUMPDEST PUSH1 0x40 MLOAD DUP1 SWAP2 SUB SWAP1 LOG3 SWAP7 SWAP6 POP POP POP POP POP POP JUMP JUMPDEST PUSH1 0x0 PUSH1 0x20 DUP3 DUP5 SUB SLT ISZERO PUSH2 0xDA8 JUMPI PUSH1 0x0 DUP1 REVERT JUMPDEST POP CALLDATALOAD SWAP2 SWAP1 POP JUMP JUMPDEST PUSH1 0x0 DUP2 MLOAD DUP1 DUP5 MSTORE PUSH1 0x0 JUMPDEST DUP2 DUP2 LT ISZERO PUSH2 0xDD5 JUMPI PUSH1 0x20 DUP2 DUP6 ADD DUP2 ADD MLOAD DUP7 DUP4 ADD DUP3 ADD MSTORE ADD PUSH2 0xDB9 JUMP JUMPDEST POP PUSH1 0x0 PUSH1 0x20 DUP3 DUP7 ADD ADD MSTORE PUSH1 0x20 PUSH1 0x1F NOT PUSH1 0x1F DUP4 ADD AND DUP6 ADD ADD SWAP2 POP POP SWAP3 SWAP2 POP POP JUMP JUMPDEST DUP6 DUP2 MSTORE PUSH1 0xA0 PUSH1 0x20 DUP3 ADD MSTORE PUSH1 0x0 PUSH2 0xE0E PUSH1 0xA0 DUP4 ADD DUP8 PUSH2 0xDAF JUMP JUMPDEST DUP3 DUP2 SUB PUSH1 0x40 DUP5 ADD MSTORE PUSH2 0xE20 DUP2 DUP8 PUSH2 0xDAF JUMP JUMPDEST PUSH1 0x60 DUP5 ADD SWAP6 SWAP1 SWAP6 MSTORE POP POP PUSH1 0x80 ADD MSTORE SWAP4 SWAP3 POP POP POP JUMP JUMPDEST DUP1 MLOAD DUP3 MSTORE PUSH1 0x0 PUSH1 0x20 DUP3 ADD MLOAD PUSH1 0xA0 PUSH1 0x20 DUP6 ADD MSTORE PUSH2 0xE54 PUSH1 0xA0 DUP6 ADD DUP3 PUSH2 0xDAF JUMP JUMPDEST SWAP1 POP PUSH1 0x40 DUP4 ADD MLOAD DUP5 DUP3 SUB PUSH1 0x40 DUP7 ADD MSTORE PUSH2 0xE6D DUP3 DUP3 PUSH2 0xDAF JUMP JUMPDEST SWAP2 POP POP PUSH1 0x60 DUP4 ADD MLOAD PUSH1 0x60 DUP6 ADD MSTORE PUSH1 0x80 DUP4 ADD MLOAD PUSH1 0x80 DUP6 ADD MSTORE DUP1 SWAP2 POP POP SWAP3 SWAP2 POP POP JUMP JUMPDEST PUSH1 0x0 PUSH1 0x20 DUP3 ADD PUSH1 0x20 DUP4 MSTORE DUP1 DUP5 MLOAD DUP1 DUP4 MSTORE PUSH1 0x40 DUP6 ADD SWAP2 POP PUSH1 0x40 DUP2 PUSH1 0x5 SHL DUP7 ADD ADD SWAP3 POP PUSH1 0x20 DUP7 ADD PUSH1 0x0 JUMPDEST DUP3 DUP2 LT ISZERO PUSH2 0xEE7 JUMPI PUSH1 0x3F NOT DUP8 DUP7 SUB ADD DUP5 MSTORE PUSH2 0xED2 DUP6 DUP4 MLOAD PUSH2 0xE35 JUMP JUMPDEST SWAP5 POP PUSH1 0x20 SWAP4 DUP5 ADD SWAP4 SWAP2 SWAP1 SWAP2 ADD SWAP1 PUSH1 0x1 ADD PUSH2 0xEB6 JUMP JUMPDEST POP SWAP3 SWAP7 SWAP6 POP POP POP POP POP POP JUMP JUMPDEST DUP1 CALLDATALOAD PUSH1 0x1 PUSH1 0x1 PUSH1 0xA0 SHL SUB DUP2 AND DUP2 EQ PUSH2 0xF0A JUMPI PUSH1 0x0 DUP1 REVERT JUMPDEST SWAP2 SWAP1 POP JUMP JUMPDEST PUSH1 0x0 PUSH1 0x20 DUP3 DUP5 SUB SLT ISZERO PUSH2 0xF21 JUMPI PUSH1 0x0 DUP1 REVERT JUMPDEST PUSH2 0xF2A DUP3 PUSH2 0xEF3 JUMP JUMPDEST SWAP4 SWAP3 POP POP POP JUMP JUMPDEST PUSH1 0x0 DUP1 PUSH1 0x40 DUP4 DUP6 SUB SLT ISZERO PUSH2 0xF44 JUMPI PUSH1 0x0 DUP1 REVERT JUMPDEST PUSH2 0xF4D DUP4 PUSH2 0xEF3 JUMP JUMPDEST SWAP5 PUSH1 0x20 SWAP4 SWAP1 SWAP4 ADD CALLDATALOAD SWAP4 POP POP POP JUMP JUMPDEST PUSH1 0x20 DUP2 MSTORE PUSH1 0x0 PUSH2 0xF2A PUSH1 0x20 DUP4 ADD DUP5 PUSH2 0xE35 JUMP JUMPDEST PUSH1 0x0 DUP1 PUSH1 0x20 DUP4 DUP6 SUB SLT ISZERO PUSH2 0xF81 JUMPI PUSH1 0x0 DUP1 REVERT JUMPDEST DUP3 CALLDATALOAD PUSH8 0xFFFFFFFFFFFFFFFF DUP2 GT ISZERO PUSH2 0xF98 JUMPI PUSH1 0x0 DUP1 REVERT JUMPDEST DUP4 ADD PUSH1 0x1F DUP2 ADD DUP6 SGT PUSH2 0xFA9 JUMPI PUSH1 0x0 DUP1 REVERT JUMPDEST DUP1 CALLDATALOAD PUSH8 0xFFFFFFFFFFFFFFFF DUP2 GT ISZERO PUSH2 0xFC0 JUMPI PUSH1 0x0 DUP1 REVERT JUMPDEST DUP6 PUSH1 0x20 DUP3 DUP5 ADD ADD GT ISZERO PUSH2 0xFD2 JUMPI PUSH1 0x0 DUP1 REVERT JUMPDEST PUSH1 0x20 SWAP2 SWAP1 SWAP2 ADD SWAP6 SWAP1 SWAP5 POP SWAP3 POP POP POP JUMP JUMPDEST PUSH1 0x1 DUP2 DUP2 SHR SWAP1 DUP3 AND DUP1 PUSH2 0xFF6 JUMPI PUSH1 0x7F DUP3 AND SWAP2 POP JUMPDEST PUSH1 0x20 DUP3 LT DUP2 SUB PUSH2 0x576 JUMPI PUSH4 0x4E487B71 PUSH1 0xE0 SHL PUSH1 0x0 MSTORE PUSH1 0x22 PUSH1 0x4 MSTORE PUSH1 0x24 PUSH1 0x0 REVERT JUMPDEST PUSH4 0x4E487B71 PUSH1 0xE0 SHL PUSH1 0x0 MSTORE PUSH1 0x41 PUSH1 0x4 MSTORE PUSH1 0x24 PUSH1 0x0 REVERT JUMPDEST PUSH4 0x4E487B71 PUSH1 0xE0 SHL PUSH1 0x0 MSTORE PUSH1 0x32 PUSH1 0x4 MSTORE PUSH1 0x24 PUSH1 0x0 REVERT JUMPDEST PUSH1 0x20 DUP1 DUP3 MSTORE PUSH1 0x27 SWAP1 DUP3 ADD MSTORE PUSH32 0x52756C6552656769737472793A2053545420746F6B656E206164647265737320 PUSH1 0x40 DUP3 ADD MSTORE PUSH7 0x1B9BDD081CD95D PUSH1 0xCA SHL PUSH1 0x60 DUP3 ADD MSTORE PUSH1 0x80 ADD SWAP1 JUMP JUMPDEST PUSH1 0x0 PUSH1 0x20 DUP3 DUP5 SUB SLT ISZERO PUSH2 0x109B JUMPI PUSH1 0x0 DUP1 REVERT JUMPDEST POP MLOAD SWAP2 SWAP1 POP JUMP JUMPDEST PUSH1 0x0 PUSH1 0x20 DUP3 DUP5 SUB SLT ISZERO PUSH2 0x10B4 JUMPI PUSH1 0x0 DUP1 REVERT JUMPDEST DUP2 MLOAD DUP1 ISZERO ISZERO DUP2 EQ PUSH2 0xF2A JUMPI PUSH1 0x0 DUP1 REVERT JUMPDEST PUSH1 0x0 DUP3 PUSH1 0x1F DUP4 ADD SLT PUSH2 0x10D5 JUMPI PUSH1 0x0 DUP1 REVERT JUMPDEST DUP2 CALLDATALOAD PUSH8 0xFFFFFFFFFFFFFFFF DUP2 GT ISZERO PUSH2 0x10EF JUMPI PUSH2 0x10EF PUSH2 0x1016 JUMP JUMPDEST PUSH1 0x40 MLOAD PUSH1 0x1F DUP3 ADD PUSH1 0x1F NOT SWAP1 DUP2 AND PUSH1 0x3F ADD AND DUP2 ADD PUSH8 0xFFFFFFFFFFFFFFFF DUP2 GT DUP3 DUP3 LT OR ISZERO PUSH2 0x111E JUMPI PUSH2 0x111E PUSH2 0x1016 JUMP JUMPDEST PUSH1 0x40 MSTORE DUP2 DUP2 MSTORE DUP4 DUP3 ADD PUSH1 0x20 ADD DUP6 LT ISZERO PUSH2 0x1136 JUMPI PUSH1 0x0 DUP1 REVERT JUMPDEST DUP2 PUSH1 0x20 DUP6 ADD PUSH1 0x20 DUP4 ADD CALLDATACOPY PUSH1 0x0 SWAP2 DUP2 ADD PUSH1 0x20 ADD SWAP2 SWAP1 SWAP2 MSTORE SWAP4 SWAP3 POP POP POP JUMP JUMPDEST PUSH1 0x0 DUP1 PUSH1 0x0 DUP1 PUSH1 0x0 PUSH1 0xA0 DUP7 DUP9 SUB SLT ISZERO PUSH2 0x116B JUMPI PUSH1 0x0 DUP1 REVERT JUMPDEST DUP6 CALLDATALOAD SWAP5 POP PUSH1 0x20 DUP7 ADD CALLDATALOAD PUSH8 0xFFFFFFFFFFFFFFFF DUP2 GT ISZERO PUSH2 0x1189 JUMPI PUSH1 0x0 DUP1 REVERT JUMPDEST PUSH2 0x1195 DUP9 DUP3 DUP10 ADD PUSH2 0x10C4 JUMP JUMPDEST SWAP5 POP POP PUSH1 0x40 DUP7 ADD CALLDATALOAD PUSH8 0xFFFFFFFFFFFFFFFF DUP2 GT ISZERO PUSH2 0x11B2 JUMPI PUSH1 0x0 DUP1 REVERT JUMPDEST PUSH2 0x11BE DUP9 DUP3 DUP10 ADD PUSH2 0x10C4 JUMP JUMPDEST SWAP6 SWAP9 SWAP5 SWAP8 POP SWAP5 SWAP6 PUSH1 0x60 DUP2 ADD CALLDATALOAD SWAP6 POP PUSH1 0x80 ADD CALLDATALOAD SWAP4 SWAP3 POP POP POP JUMP JUMPDEST PUSH1 0x0 PUSH1 0x1 DUP3 ADD PUSH2 0x11F7 JUMPI PUSH4 0x4E487B71 PUSH1 0xE0 SHL PUSH1 0x0 MSTORE PUSH1 0x11 PUSH1 0x4 MSTORE PUSH1 0x24 PUSH1 0x0 REVERT JUMPDEST POP PUSH1 0x1 ADD SWAP1 JUMP JUMPDEST PUSH1 0x1F DUP3 GT ISZERO PUSH2 0x1248 JUMPI DUP1 PUSH1 0x0 MSTORE PUSH1 0x20 PUSH1 0x0 KECCAK256 PUSH1 0x1F DUP5 ADD PUSH1 0x5 SHR DUP2 ADD PUSH1 0x20 DUP6 LT ISZERO PUSH2 0x1225 JUMPI POP DUP1 JUMPDEST PUSH1 0x1F DUP5 ADD PUSH1 0x5 SHR DUP3 ADD SWAP2 POP JUMPDEST DUP2 DUP2 LT ISZERO PUSH2 0x1245 JUMPI PUSH1 0x0 DUP2 SSTORE PUSH1 0x1 ADD PUSH2 0x1231 JUMP JUMPDEST POP POP JUMPDEST POP POP POP JUMP JUMPDEST DUP2 MLOAD PUSH8 0xFFFFFFFFFFFFFFFF DUP2 GT ISZERO PUSH2 0x1267 JUMPI PUSH2 0x1267 PUSH2 0x1016 JUMP JUMPDEST PUSH2 0x127B DUP2 PUSH2 0x1275 DUP5 SLOAD PUSH2 0xFE2 JUMP JUMPDEST DUP5 PUSH2 0x11FE JUMP JUMPDEST PUSH1 0x20 PUSH1 0x1F DUP3 GT PUSH1 0x1 DUP2 EQ PUSH2 0x12AF JUMPI PUSH1 0x0 DUP4 ISZERO PUSH2 0x1297 JUMPI POP DUP5 DUP3 ADD MLOAD JUMPDEST PUSH1 0x0 NOT PUSH1 0x3 DUP6 SWAP1 SHL SHR NOT AND PUSH1 0x1 DUP5 SWAP1 SHL OR DUP5 SSTORE PUSH2 0x1245 JUMP JUMPDEST PUSH1 0x0 DUP5 DUP2 MSTORE PUSH1 0x20 DUP2 KECCAK256 PUSH1 0x1F NOT DUP6 AND SWAP2 JUMPDEST DUP3 DUP2 LT ISZERO PUSH2 0x12DF JUMPI DUP8 DUP6 ADD MLOAD DUP3 SSTORE PUSH1 0x20 SWAP5 DUP6 ADD SWAP5 PUSH1 0x1 SWAP1 SWAP3 ADD SWAP2 ADD PUSH2 0x12BF JUMP JUMPDEST POP DUP5 DUP3 LT ISZERO PUSH2 0x12FD JUMPI DUP7 DUP5 ADD MLOAD PUSH1 0x0 NOT PUSH1 0x3 DUP8 SWAP1 SHL PUSH1 0xF8 AND SHR NOT AND DUP2 SSTORE JUMPDEST POP POP POP POP PUSH1 0x1 SWAP1 DUP2 SHL ADD SWAP1 SSTORE POP JUMP JUMPDEST PUSH1 0x80 DUP2 MSTORE PUSH1 0x0 PUSH2 0x131F PUSH1 0x80 DUP4 ADD DUP8 PUSH2 0xDAF JUMP JUMPDEST DUP3 DUP2 SUB PUSH1 0x20 DUP5 ADD MSTORE PUSH2 0x1331 DUP2 DUP8 PUSH2 0xDAF JUMP JUMPDEST PUSH1 0x40 DUP5 ADD SWAP6 SWAP1 SWAP6 MSTORE POP POP PUSH1 0x60 ADD MSTORE SWAP3 SWAP2 POP POP JUMP INVALID LOG2 PUSH5 0x6970667358 0x22 SLT KECCAK256 0xC7 DIV DUP6 DUP14 0xAC BLOBBASEFEE DUP6 0xC7 0x21 0x27 0xCB 0xF DUP13 JUMPDEST 0x2D RJUMPI 0x4932 0x2B GAS 0xA7 0xD6 0xD9 PUSH24 0x9E0B463294EA1A3164736F6C634300081E00330000000000 "},"methodIdentifiers":{"getAllRules()":"1184aef2","getRule(uint256)":"48462037","getRuleCount()":"5c3ca910","getUSDCBalance()":"3cfd1ccc","nextRuleId()":"70f047b0","owner()":"8da5cb5b","reactivityHandler()":"5ba43ffc","renounceOwnership()":"715018a6","rules(uint256)":"04d6ded4","setReactivityHandler(address)":"3f6b8fca","transferOwnership(address)":"f2fde38b","usdcToken()":"11eac855","withdrawUSDC(address,uint256)":"44471fd9","writeRuleFromReactivity(bytes)":"961b1975"}}}}}