{"contracts/RuleRegistryEventHandler.sol":{"RuleRegistryEventHandler":{"abi":[{"inputs":[{"internalType":"address","name":"_ruleRegistry","type":"address"}],"stateMutability":"nonpayable","type":"constructor"},{"inputs":[],"name":"OnlyReactivityPrecompile","type":"error"},{"anonymous":false,"inputs":[{"indexed":true,"internalType":"uint256","name":"ruleId","type":"uint256"},{"indexed":true,"internalType":"bytes32","name":"id","type":"bytes32"},{"indexed":false,"internalType":"string","name":"asset","type":"string"},{"indexed":false,"internalType":"string","name":"condition","type":"string"},{"indexed":false,"internalType":"uint256","name":"targetPriceUsd","type":"uint256"},{"indexed":false,"internalType":"uint256","name":"createdAt","type":"uint256"}],"name":"ReactedToRuleCreated","type":"event"},{"inputs":[],"name":"RULE_CREATED_TOPIC","outputs":[{"internalType":"bytes32","name":"","type":"bytes32"}],"stateMutability":"view","type":"function"},{"inputs":[{"internalType":"address","name":"emitter","type":"address"},{"internalType":"bytes32[]","name":"eventTopics","type":"bytes32[]"},{"internalType":"bytes","name":"data","type":"bytes"}],"name":"onEvent","outputs":[],"stateMutability":"nonpayable","type":"function"},{"inputs":[],"name":"ruleRegistry","outputs":[{"internalType":"address","name":"","type":"address"}],"stateMutability":"view","type":"function"},{"inputs":[{"internalType":"bytes4","name":"interfaceId","type":"bytes4"}],"name":"supportsInterface","outputs":[{"internalType":"bool","name":"","type":"bool"}],"stateMutability":"pure","type":"function"}],"evm":{"bytecode":{"linkReferences":{},"object":"60a060405234801561001057600080fd5b506040516106df3803806106df83398101604081905261002f916100aa565b6001600160a01b0381166100995760405162461bcd60e51b815260206004820152602760248201527f52756c6552656769737472794576656e7448616e646c65723a207a65726f20726044820152666567697374727960c81b606482015260840160405180910390fd5b6001600160a01b03166080526100da565b6000602082840312156100bc57600080fd5b81516001600160a01b03811681146100d357600080fd5b9392505050565b6080516105e46100fb600039600081816093015261017101526105e46000f3fe608060405234801561001057600080fd5b506004361061004c5760003560e01c806301ffc9a71461005157806353edf33d14610079578063b16647371461008e578063d40e4bac146100cd575b600080fd5b61006461005f3660046102b8565b610102565b60405190151581526020015b60405180910390f35b61008c610087366004610332565b610139565b005b6100b57f000000000000000000000000000000000000000000000000000000000000000081565b6040516001600160a01b039091168152602001610070565b6100f47f500f12fa025b5c2655bd0938cc63539362f2b7adffd81d9ea12ffadd042061ce81565b604051908152602001610070565b60006301ffc9a760e01b6001600160e01b03198316148061013357506353edf33d60e01b6001600160e01b03198316145b92915050565b336101001461015b5760405163191fbb7560e01b815260040160405180910390fd5b610168858585858561016f565b5050505050565b7f00000000000000000000000000000000000000000000000000000000000000006001600160a01b0316856001600160a01b0316036101685760018310806101f057507f500f12fa025b5c2655bd0938cc63539362f2b7adffd81d9ea12ffadd042061ce848460008181106101e6576101e66103fb565b9050602002013514155b61016857600060018411610205576000610223565b84846001818110610218576102186103fb565b9050602002013560001c5b9050600060028511610236576000610251565b85856002818110610249576102496103fb565b905060200201355b90506000808080610264878901896104b6565b935093509350935084867f83b3dfcdd404cc5ba185635006900776db0f234ce32a3384bf7015808b53bf7c868686866040516102a39493929190610575565b60405180910390a35050505050505050505050565b6000602082840312156102ca57600080fd5b81356001600160e01b0319811681146102e257600080fd5b9392505050565b60008083601f8401126102fb57600080fd5b50813567ffffffffffffffff81111561031357600080fd5b60208301915083602082850101111561032b57600080fd5b9250929050565b60008060008060006060868803121561034a57600080fd5b85356001600160a01b038116811461036157600080fd5b9450602086013567ffffffffffffffff81111561037d57600080fd5b8601601f8101881361038e57600080fd5b803567ffffffffffffffff8111156103a557600080fd5b8860208260051b84010111156103ba57600080fd5b60209190910194509250604086013567ffffffffffffffff8111156103de57600080fd5b6103ea888289016102e9565b969995985093965092949392505050565b634e487b7160e01b600052603260045260246000fd5b634e487b7160e01b600052604160045260246000fd5b600082601f83011261043857600080fd5b813567ffffffffffffffff81111561045257610452610411565b604051601f8201601f19908116603f0116810167ffffffffffffffff8111828210171561048157610481610411565b60405281815283820160200185101561049957600080fd5b816020850160208301376000918101602001919091529392505050565b600080600080608085870312156104cc57600080fd5b843567ffffffffffffffff8111156104e357600080fd5b6104ef87828801610427565b945050602085013567ffffffffffffffff81111561050c57600080fd5b61051887828801610427565b949794965050505060408301359260600135919050565b6000815180845260005b8181101561055557602081850181015186830182015201610539565b506000602082860101526020601f19601f83011685010191505092915050565b608081526000610588608083018761052f565b828103602084015261059a818761052f565b60408401959095525050606001529291505056fea2646970667358221220a986362c2a4cebff4c99388657ee8da6d133e1518786415998702f6a768c8ab964736f6c634300081e0033","opcodes":"PUSH1 0xA0 PUSH1 0x40 MSTORE CALLVALUE DUP1 ISZERO PUSH2 0x10 JUMPI PUSH1 0x0 DUP1 REVERT JUMPDEST POP PUSH1 0x40 MLOAD PUSH2 0x6DF CODESIZE SUB DUP1 PUSH2 0x6DF DUP4 CODECOPY DUP2 ADD PUSH1 0x40 DUP2 SWAP1 MSTORE PUSH2 0x2F SWAP2 PUSH2 0xAA JUMP JUMPDEST PUSH1 0x1 PUSH1 0x1 PUSH1 0xA0 SHL SUB DUP2 AND PUSH2 0x99 JUMPI PUSH1 0x40 MLOAD PUSH3 0x461BCD PUSH1 0xE5 SHL DUP2 MSTORE PUSH1 0x20 PUSH1 0x4 DUP3 ADD MSTORE PUSH1 0x27 PUSH1 0x24 DUP3 ADD MSTORE PUSH32 0x52756C6552656769737472794576656E7448616E646C65723A207A65726F2072 PUSH1 0x44 DUP3 ADD MSTORE PUSH7 0x65676973747279 PUSH1 0xC8 SHL PUSH1 0x64 DUP3 ADD MSTORE PUSH1 0x84 ADD PUSH1 0x40 MLOAD DUP1 SWAP2 SUB SWAP1 REVERT JUMPDEST PUSH1 0x1 PUSH1 0x1 PUSH1 0xA0 SHL SUB AND PUSH1 0x80 MSTORE PUSH2 0xDA JUMP JUMPDEST PUSH1 0x0 PUSH1 0x20 DUP3 DUP5 SUB SLT ISZERO PUSH2 0xBC JUMPI PUSH1 0x0 DUP1 REVERT JUMPDEST DUP2 MLOAD PUSH1 0x1 PUSH1 0x1 PUSH1 0xA0 SHL SUB DUP2 AND DUP2 EQ PUSH2 0xD3 JUMPI PUSH1 0x0 DUP1 REVERT JUMPDEST SWAP4 SWAP3 POP POP POP JUMP JUMPDEST PUSH1 0x80 MLOAD PUSH2 0x5E4 PUSH2 0xFB PUSH1 0x0 CODECOPY PUSH1 0x0 DUP2 DUP2 PUSH1 0x93 ADD MSTORE PUSH2 0x171 ADD MSTORE PUSH2 0x5E4 PUSH1 0x0 RETURN INVALID PUSH1 0x80 PUSH1 0x40 MSTORE CALLVALUE DUP1 ISZERO PUSH2 0x10 JUMPI PUSH1 0x0 DUP1 REVERT JUMPDEST POP PUSH1 0x4 CALLDATASIZE LT PUSH2 0x4C JUMPI PUSH1 0x0 CALLDATALOAD PUSH1 0xE0 SHR DUP1 PUSH4 0x1FFC9A7 EQ PUSH2 0x51 JUMPI DUP1 PUSH4 0x53EDF33D EQ PUSH2 0x79 JUMPI DUP1 PUSH4 0xB1664737 EQ PUSH2 0x8E JUMPI DUP1 PUSH4 0xD40E4BAC EQ PUSH2 0xCD JUMPI JUMPDEST PUSH1 0x0 DUP1 REVERT JUMPDEST PUSH2 0x64 PUSH2 0x5F CALLDATASIZE PUSH1 0x4 PUSH2 0x2B8 JUMP JUMPDEST PUSH2 0x102 JUMP JUMPDEST PUSH1 0x40 MLOAD SWAP1 ISZERO ISZERO DUP2 MSTORE PUSH1 0x20 ADD JUMPDEST PUSH1 0x40 MLOAD DUP1 SWAP2 SUB SWAP1 RETURN JUMPDEST PUSH2 0x8C PUSH2 0x87 CALLDATASIZE PUSH1 0x4 PUSH2 0x332 JUMP JUMPDEST PUSH2 0x139 JUMP JUMPDEST STOP JUMPDEST PUSH2 0xB5 PUSH32 0x0 DUP2 JUMP JUMPDEST PUSH1 0x40 MLOAD PUSH1 0x1 PUSH1 0x1 PUSH1 0xA0 SHL SUB SWAP1 SWAP2 AND DUP2 MSTORE PUSH1 0x20 ADD PUSH2 0x70 JUMP JUMPDEST PUSH2 0xF4 PUSH32 0x500F12FA025B5C2655BD0938CC63539362F2B7ADFFD81D9EA12FFADD042061CE DUP2 JUMP JUMPDEST PUSH1 0x40 MLOAD SWAP1 DUP2 MSTORE PUSH1 0x20 ADD PUSH2 0x70 JUMP JUMPDEST PUSH1 0x0 PUSH4 0x1FFC9A7 PUSH1 0xE0 SHL PUSH1 0x1 PUSH1 0x1 PUSH1 0xE0 SHL SUB NOT DUP4 AND EQ DUP1 PUSH2 0x133 JUMPI POP PUSH4 0x53EDF33D PUSH1 0xE0 SHL PUSH1 0x1 PUSH1 0x1 PUSH1 0xE0 SHL SUB NOT DUP4 AND EQ JUMPDEST SWAP3 SWAP2 POP POP JUMP JUMPDEST CALLER PUSH2 0x100 EQ PUSH2 0x15B JUMPI PUSH1 0x40 MLOAD PUSH4 0x191FBB75 PUSH1 0xE0 SHL DUP2 MSTORE PUSH1 0x4 ADD PUSH1 0x40 MLOAD DUP1 SWAP2 SUB SWAP1 REVERT JUMPDEST PUSH2 0x168 DUP6 DUP6 DUP6 DUP6 DUP6 PUSH2 0x16F JUMP JUMPDEST POP POP POP POP POP JUMP JUMPDEST PUSH32 0x0 PUSH1 0x1 PUSH1 0x1 PUSH1 0xA0 SHL SUB AND DUP6 PUSH1 0x1 PUSH1 0x1 PUSH1 0xA0 SHL SUB AND SUB PUSH2 0x168 JUMPI PUSH1 0x1 DUP4 LT DUP1 PUSH2 0x1F0 JUMPI POP PUSH32 0x500F12FA025B5C2655BD0938CC63539362F2B7ADFFD81D9EA12FFADD042061CE DUP5 DUP5 PUSH1 0x0 DUP2 DUP2 LT PUSH2 0x1E6 JUMPI PUSH2 0x1E6 PUSH2 0x3FB JUMP JUMPDEST SWAP1 POP PUSH1 0x20 MUL ADD CALLDATALOAD EQ ISZERO JUMPDEST PUSH2 0x168 JUMPI PUSH1 0x0 PUSH1 0x1 DUP5 GT PUSH2 0x205 JUMPI PUSH1 0x0 PUSH2 0x223 JUMP JUMPDEST DUP5 DUP5 PUSH1 0x1 DUP2 DUP2 LT PUSH2 0x218 JUMPI PUSH2 0x218 PUSH2 0x3FB JUMP JUMPDEST SWAP1 POP PUSH1 0x20 MUL ADD CALLDATALOAD PUSH1 0x0 SHR JUMPDEST SWAP1 POP PUSH1 0x0 PUSH1 0x2 DUP6 GT PUSH2 0x236 JUMPI PUSH1 0x0 PUSH2 0x251 JUMP JUMPDEST DUP6 DUP6 PUSH1 0x2 DUP2 DUP2 LT PUSH2 0x249 JUMPI PUSH2 0x249 PUSH2 0x3FB JUMP JUMPDEST SWAP1 POP PUSH1 0x20 MUL ADD CALLDATALOAD JUMPDEST SWAP1 POP PUSH1 0x0 DUP1 DUP1 DUP1 PUSH2 0x264 DUP8 DUP10 ADD DUP10 PUSH2 0x4B6 JUMP JUMPDEST SWAP4 POP SWAP4 POP SWAP4 POP SWAP4 POP DUP5 DUP7 PUSH32 0x83B3DFCDD404CC5BA185635006900776DB0F234CE32A3384BF7015808B53BF7C DUP7 DUP7 DUP7 DUP7 PUSH1 0x40 MLOAD PUSH2 0x2A3 SWAP5 SWAP4 SWAP3 SWAP2 SWAP1 PUSH2 0x575 JUMP JUMPDEST PUSH1 0x40 MLOAD DUP1 SWAP2 SUB SWAP1 LOG3 POP POP POP POP POP POP POP POP POP POP POP JUMP JUMPDEST PUSH1 0x0 PUSH1 0x20 DUP3 DUP5 SUB SLT ISZERO PUSH2 0x2CA JUMPI PUSH1 0x0 DUP1 REVERT JUMPDEST DUP2 CALLDATALOAD PUSH1 0x1 PUSH1 0x1 PUSH1 0xE0 SHL SUB NOT DUP2 AND DUP2 EQ PUSH2 0x2E2 JUMPI PUSH1 0x0 DUP1 REVERT JUMPDEST SWAP4 SWAP3 POP POP POP JUMP JUMPDEST PUSH1 0x0 DUP1 DUP4 PUSH1 0x1F DUP5 ADD SLT PUSH2 0x2FB JUMPI PUSH1 0x0 DUP1 REVERT JUMPDEST POP DUP2 CALLDATALOAD PUSH8 0xFFFFFFFFFFFFFFFF DUP2 GT ISZERO PUSH2 0x313 JUMPI PUSH1 0x0 DUP1 REVERT JUMPDEST PUSH1 0x20 DUP4 ADD SWAP2 POP DUP4 PUSH1 0x20 DUP3 DUP6 ADD ADD GT ISZERO PUSH2 0x32B JUMPI PUSH1 0x0 DUP1 REVERT JUMPDEST SWAP3 POP SWAP3 SWAP1 POP JUMP JUMPDEST PUSH1 0x0 DUP1 PUSH1 0x0 DUP1 PUSH1 0x0 PUSH1 0x60 DUP7 DUP9 SUB SLT ISZERO PUSH2 0x34A JUMPI PUSH1 0x0 DUP1 REVERT JUMPDEST DUP6 CALLDATALOAD PUSH1 0x1 PUSH1 0x1 PUSH1 0xA0 SHL SUB DUP2 AND DUP2 EQ PUSH2 0x361 JUMPI PUSH1 0x0 DUP1 REVERT JUMPDEST SWAP5 POP PUSH1 0x20 DUP7 ADD CALLDATALOAD PUSH8 0xFFFFFFFFFFFFFFFF DUP2 GT ISZERO PUSH2 0x37D JUMPI PUSH1 0x0 DUP1 REVERT JUMPDEST DUP7 ADD PUSH1 0x1F DUP2 ADD DUP9 SGT PUSH2 0x38E JUMPI PUSH1 0x0 DUP1 REVERT JUMPDEST DUP1 CALLDATALOAD PUSH8 0xFFFFFFFFFFFFFFFF DUP2 GT ISZERO PUSH2 0x3A5 JUMPI PUSH1 0x0 DUP1 REVERT JUMPDEST DUP9 PUSH1 0x20 DUP3 PUSH1 0x5 SHL DUP5 ADD ADD GT ISZERO PUSH2 0x3BA JUMPI PUSH1 0x0 DUP1 REVERT JUMPDEST PUSH1 0x20 SWAP2 SWAP1 SWAP2 ADD SWAP5 POP SWAP3 POP PUSH1 0x40 DUP7 ADD CALLDATALOAD PUSH8 0xFFFFFFFFFFFFFFFF DUP2 GT ISZERO PUSH2 0x3DE JUMPI PUSH1 0x0 DUP1 REVERT JUMPDEST PUSH2 0x3EA DUP9 DUP3 DUP10 ADD PUSH2 0x2E9 JUMP JUMPDEST SWAP7 SWAP10 SWAP6 SWAP9 POP SWAP4 SWAP7 POP SWAP3 SWAP5 SWAP4 SWAP3 POP POP POP JUMP JUMPDEST PUSH4 0x4E487B71 PUSH1 0xE0 SHL PUSH1 0x0 MSTORE PUSH1 0x32 PUSH1 0x4 MSTORE PUSH1 0x24 PUSH1 0x0 REVERT JUMPDEST PUSH4 0x4E487B71 PUSH1 0xE0 SHL PUSH1 0x0 MSTORE PUSH1 0x41 PUSH1 0x4 MSTORE PUSH1 0x24 PUSH1 0x0 REVERT JUMPDEST PUSH1 0x0 DUP3 PUSH1 0x1F DUP4 ADD SLT PUSH2 0x438 JUMPI PUSH1 0x0 DUP1 REVERT JUMPDEST DUP2 CALLDATALOAD PUSH8 0xFFFFFFFFFFFFFFFF DUP2 GT ISZERO PUSH2 0x452 JUMPI PUSH2 0x452 PUSH2 0x411 JUMP JUMPDEST PUSH1 0x40 MLOAD PUSH1 0x1F DUP3 ADD PUSH1 0x1F NOT SWAP1 DUP2 AND PUSH1 0x3F ADD AND DUP2 ADD PUSH8 0xFFFFFFFFFFFFFFFF DUP2 GT DUP3 DUP3 LT OR ISZERO PUSH2 0x481 JUMPI PUSH2 0x481 PUSH2 0x411 JUMP JUMPDEST PUSH1 0x40 MSTORE DUP2 DUP2 MSTORE DUP4 DUP3 ADD PUSH1 0x20 ADD DUP6 LT ISZERO PUSH2 0x499 JUMPI PUSH1 0x0 DUP1 REVERT JUMPDEST DUP2 PUSH1 0x20 DUP6 ADD PUSH1 0x20 DUP4 ADD CALLDATACOPY PUSH1 0x0 SWAP2 DUP2 ADD PUSH1 0x20 ADD SWAP2 SWAP1 SWAP2 MSTORE SWAP4 SWAP3 POP POP POP JUMP JUMPDEST PUSH1 0x0 DUP1 PUSH1 0x0 DUP1 PUSH1 0x80 DUP6 DUP8 SUB SLT ISZERO PUSH2 0x4CC JUMPI PUSH1 0x0 DUP1 REVERT JUMPDEST DUP5 CALLDATALOAD PUSH8 0xFFFFFFFFFFFFFFFF DUP2 GT ISZERO PUSH2 0x4E3 JUMPI PUSH1 0x0 DUP1 REVERT JUMPDEST PUSH2 0x4EF DUP8 DUP3 DUP9 ADD PUSH2 0x427 JUMP JUMPDEST SWAP5 POP POP PUSH1 0x20 DUP6 ADD CALLDATALOAD PUSH8 0xFFFFFFFFFFFFFFFF DUP2 GT ISZERO PUSH2 0x50C JUMPI PUSH1 0x0 DUP1 REVERT JUMPDEST PUSH2 0x518 DUP8 DUP3 DUP9 ADD PUSH2 0x427 JUMP JUMPDEST SWAP5 SWAP8 SWAP5 SWAP7 POP POP POP POP PUSH1 0x40 DUP4 ADD CALLDATALOAD SWAP3 PUSH1 0x60 ADD CALLDATALOAD SWAP2 SWAP1 POP JUMP JUMPDEST PUSH1 0x0 DUP2 MLOAD DUP1 DUP5 MSTORE PUSH1 0x0 JUMPDEST DUP2 DUP2 LT ISZERO PUSH2 0x555 JUMPI PUSH1 0x20 DUP2 DUP6 ADD DUP2 ADD MLOAD DUP7 DUP4 ADD DUP3 ADD MSTORE ADD PUSH2 0x539 JUMP JUMPDEST POP PUSH1 0x0 PUSH1 0x20 DUP3 DUP7 ADD ADD MSTORE PUSH1 0x20 PUSH1 0x1F NOT PUSH1 0x1F DUP4 ADD AND DUP6 ADD ADD SWAP2 POP POP SWAP3 SWAP2 POP POP JUMP JUMPDEST PUSH1 0x80 DUP2 MSTORE PUSH1 0x0 PUSH2 0x588 PUSH1 0x80 DUP4 ADD DUP8 PUSH2 0x52F JUMP JUMPDEST DUP3 DUP2 SUB PUSH1 0x20 DUP5 ADD MSTORE PUSH2 0x59A DUP2 DUP8 PUSH2 0x52F JUMP JUMPDEST PUSH1 0x40 DUP5 ADD SWAP6 SWAP1 SWAP6 MSTORE POP POP PUSH1 0x60 ADD MSTORE SWAP3 SWAP2 POP POP JUMP INVALID LOG2 PUSH5 0x6970667358 0x22 SLT KECCAK256 0xA9 DUP7 CALLDATASIZE 0x2C 0x2A 0x4C 0xEB SELFDESTRUCT 0x4C SWAP10 CODESIZE DUP7 JUMPI RETURNCONTRACT 0x8D 0xA6 DATALOADN 0x33E1 MLOAD DUP8 DUP7 COINBASE MSIZE SWAP9 PUSH17 0x2F6A768C8AB964736F6C634300081E0033 "},"methodIdentifiers":{"RULE_CREATED_TOPIC()":"d40e4bac","onEvent(address,bytes32[],bytes)":"53edf33d","ruleRegistry()":"b1664737","supportsInterface(bytes4)":"01ffc9a7"}}}}}