{
  "_format": "hh-sol-artifact-1",
  "contractName": "RuleRegistry",
  "sourceName": "contracts/RuleRegistry.sol",
  "abi": [
    {
      "inputs": [
        {
          "internalType": "address",
          "name": "_usdcToken",
          "type": "address"
        },
        {
          "internalType": "address",
          "name": "_forwarderAddress",
          "type": "address"
        }
      ],
      "stateMutability": "nonpayable",
      "type": "constructor"
    },
    {
      "inputs": [
        {
          "internalType": "address",
          "name": "received",
          "type": "address"
        },
        {
          "internalType": "address",
          "name": "expected",
          "type": "address"
        }
      ],
      "name": "InvalidAuthor",
      "type": "error"
    },
    {
      "inputs": [],
      "name": "InvalidForwarderAddress",
      "type": "error"
    },
    {
      "inputs": [
        {
          "internalType": "address",
          "name": "sender",
          "type": "address"
        },
        {
          "internalType": "address",
          "name": "expected",
          "type": "address"
        }
      ],
      "name": "InvalidSender",
      "type": "error"
    },
    {
      "inputs": [
        {
          "internalType": "bytes32",
          "name": "received",
          "type": "bytes32"
        },
        {
          "internalType": "bytes32",
          "name": "expected",
          "type": "bytes32"
        }
      ],
      "name": "InvalidWorkflowId",
      "type": "error"
    },
    {
      "inputs": [
        {
          "internalType": "bytes10",
          "name": "received",
          "type": "bytes10"
        },
        {
          "internalType": "bytes10",
          "name": "expected",
          "type": "bytes10"
        }
      ],
      "name": "InvalidWorkflowName",
      "type": "error"
    },
    {
      "inputs": [
        {
          "internalType": "address",
          "name": "owner",
          "type": "address"
        }
      ],
      "name": "OwnableInvalidOwner",
      "type": "error"
    },
    {
      "inputs": [
        {
          "internalType": "address",
          "name": "account",
          "type": "address"
        }
      ],
      "name": "OwnableUnauthorizedAccount",
      "type": "error"
    },
    {
      "inputs": [],
      "name": "WorkflowNameRequiresAuthorValidation",
      "type": "error"
    },
    {
      "anonymous": false,
      "inputs": [
        {
          "indexed": true,
          "internalType": "address",
          "name": "previousAuthor",
          "type": "address"
        },
        {
          "indexed": true,
          "internalType": "address",
          "name": "newAuthor",
          "type": "address"
        }
      ],
      "name": "ExpectedAuthorUpdated",
      "type": "event"
    },
    {
      "anonymous": false,
      "inputs": [
        {
          "indexed": true,
          "internalType": "bytes32",
          "name": "previousId",
          "type": "bytes32"
        },
        {
          "indexed": true,
          "internalType": "bytes32",
          "name": "newId",
          "type": "bytes32"
        }
      ],
      "name": "ExpectedWorkflowIdUpdated",
      "type": "event"
    },
    {
      "anonymous": false,
      "inputs": [
        {
          "indexed": true,
          "internalType": "bytes10",
          "name": "previousName",
          "type": "bytes10"
        },
        {
          "indexed": true,
          "internalType": "bytes10",
          "name": "newName",
          "type": "bytes10"
        }
      ],
      "name": "ExpectedWorkflowNameUpdated",
      "type": "event"
    },
    {
      "anonymous": false,
      "inputs": [
        {
          "indexed": true,
          "internalType": "address",
          "name": "previousForwarder",
          "type": "address"
        },
        {
          "indexed": true,
          "internalType": "address",
          "name": "newForwarder",
          "type": "address"
        }
      ],
      "name": "ForwarderAddressUpdated",
      "type": "event"
    },
    {
      "anonymous": false,
      "inputs": [
        {
          "indexed": true,
          "internalType": "address",
          "name": "previousOwner",
          "type": "address"
        },
        {
          "indexed": true,
          "internalType": "address",
          "name": "newOwner",
          "type": "address"
        }
      ],
      "name": "OwnershipTransferred",
      "type": "event"
    },
    {
      "anonymous": false,
      "inputs": [
        {
          "indexed": true,
          "internalType": "uint256",
          "name": "ruleId",
          "type": "uint256"
        },
        {
          "indexed": true,
          "internalType": "bytes32",
          "name": "id",
          "type": "bytes32"
        },
        {
          "indexed": false,
          "internalType": "string",
          "name": "asset",
          "type": "string"
        },
        {
          "indexed": false,
          "internalType": "string",
          "name": "condition",
          "type": "string"
        },
        {
          "indexed": false,
          "internalType": "uint256",
          "name": "targetPriceUsd",
          "type": "uint256"
        },
        {
          "indexed": false,
          "internalType": "uint256",
          "name": "createdAt",
          "type": "uint256"
        }
      ],
      "name": "RuleCreated",
      "type": "event"
    },
    {
      "anonymous": false,
      "inputs": [
        {
          "indexed": false,
          "internalType": "string",
          "name": "message",
          "type": "string"
        }
      ],
      "name": "SecurityWarning",
      "type": "event"
    },
    {
      "anonymous": false,
      "inputs": [
        {
          "indexed": true,
          "internalType": "address",
          "name": "token",
          "type": "address"
        },
        {
          "indexed": true,
          "internalType": "address",
          "name": "to",
          "type": "address"
        },
        {
          "indexed": false,
          "internalType": "uint256",
          "name": "amount",
          "type": "uint256"
        }
      ],
      "name": "Withdrawal",
      "type": "event"
    },
    {
      "inputs": [],
      "name": "getAllRules",
      "outputs": [
        {
          "components": [
            {
              "internalType": "bytes32",
              "name": "id",
              "type": "bytes32"
            },
            {
              "internalType": "string",
              "name": "asset",
              "type": "string"
            },
            {
              "internalType": "string",
              "name": "condition",
              "type": "string"
            },
            {
              "internalType": "uint256",
              "name": "targetPriceUsd",
              "type": "uint256"
            },
            {
              "internalType": "uint256",
              "name": "createdAt",
              "type": "uint256"
            }
          ],
          "internalType": "struct RuleRegistry.Rule[]",
          "name": "",
          "type": "tuple[]"
        }
      ],
      "stateMutability": "view",
      "type": "function"
    },
    {
      "inputs": [],
      "name": "getExpectedAuthor",
      "outputs": [
        {
          "internalType": "address",
          "name": "",
          "type": "address"
        }
      ],
      "stateMutability": "view",
      "type": "function"
    },
    {
      "inputs": [],
      "name": "getExpectedWorkflowId",
      "outputs": [
        {
          "internalType": "bytes32",
          "name": "",
          "type": "bytes32"
        }
      ],
      "stateMutability": "view",
      "type": "function"
    },
    {
      "inputs": [],
      "name": "getExpectedWorkflowName",
      "outputs": [
        {
          "internalType": "bytes10",
          "name": "",
          "type": "bytes10"
        }
      ],
      "stateMutability": "view",
      "type": "function"
    },
    {
      "inputs": [],
      "name": "getForwarderAddress",
      "outputs": [
        {
          "internalType": "address",
          "name": "",
          "type": "address"
        }
      ],
      "stateMutability": "view",
      "type": "function"
    },
    {
      "inputs": [
        {
          "internalType": "uint256",
          "name": "_ruleId",
          "type": "uint256"
        }
      ],
      "name": "getRule",
      "outputs": [
        {
          "components": [
            {
              "internalType": "bytes32",
              "name": "id",
              "type": "bytes32"
            },
            {
              "internalType": "string",
              "name": "asset",
              "type": "string"
            },
            {
              "internalType": "string",
              "name": "condition",
              "type": "string"
            },
            {
              "internalType": "uint256",
              "name": "targetPriceUsd",
              "type": "uint256"
            },
            {
              "internalType": "uint256",
              "name": "createdAt",
              "type": "uint256"
            }
          ],
          "internalType": "struct RuleRegistry.Rule",
          "name": "",
          "type": "tuple"
        }
      ],
      "stateMutability": "view",
      "type": "function"
    },
    {
      "inputs": [],
      "name": "getRuleCount",
      "outputs": [
        {
          "internalType": "uint256",
          "name": "",
          "type": "uint256"
        }
      ],
      "stateMutability": "view",
      "type": "function"
    },
    {
      "inputs": [],
      "name": "getUSDCBalance",
      "outputs": [
        {
          "internalType": "uint256",
          "name": "",
          "type": "uint256"
        }
      ],
      "stateMutability": "view",
      "type": "function"
    },
    {
      "inputs": [],
      "name": "nextRuleId",
      "outputs": [
        {
          "internalType": "uint256",
          "name": "",
          "type": "uint256"
        }
      ],
      "stateMutability": "view",
      "type": "function"
    },
    {
      "inputs": [
        {
          "internalType": "bytes",
          "name": "metadata",
          "type": "bytes"
        },
        {
          "internalType": "bytes",
          "name": "report",
          "type": "bytes"
        }
      ],
      "name": "onReport",
      "outputs": [],
      "stateMutability": "nonpayable",
      "type": "function"
    },
    {
      "inputs": [],
      "name": "owner",
      "outputs": [
        {
          "internalType": "address",
          "name": "",
          "type": "address"
        }
      ],
      "stateMutability": "view",
      "type": "function"
    },
    {
      "inputs": [],
      "name": "renounceOwnership",
      "outputs": [],
      "stateMutability": "nonpayable",
      "type": "function"
    },
    {
      "inputs": [
        {
          "internalType": "uint256",
          "name": "",
          "type": "uint256"
        }
      ],
      "name": "rules",
      "outputs": [
        {
          "internalType": "bytes32",
          "name": "id",
          "type": "bytes32"
        },
        {
          "internalType": "string",
          "name": "asset",
          "type": "string"
        },
        {
          "internalType": "string",
          "name": "condition",
          "type": "string"
        },
        {
          "internalType": "uint256",
          "name": "targetPriceUsd",
          "type": "uint256"
        },
        {
          "internalType": "uint256",
          "name": "createdAt",
          "type": "uint256"
        }
      ],
      "stateMutability": "view",
      "type": "function"
    },
    {
      "inputs": [
        {
          "internalType": "address",
          "name": "_author",
          "type": "address"
        }
      ],
      "name": "setExpectedAuthor",
      "outputs": [],
      "stateMutability": "nonpayable",
      "type": "function"
    },
    {
      "inputs": [
        {
          "internalType": "bytes32",
          "name": "_id",
          "type": "bytes32"
        }
      ],
      "name": "setExpectedWorkflowId",
      "outputs": [],
      "stateMutability": "nonpayable",
      "type": "function"
    },
    {
      "inputs": [
        {
          "internalType": "string",
          "name": "_name",
          "type": "string"
        }
      ],
      "name": "setExpectedWorkflowName",
      "outputs": [],
      "stateMutability": "nonpayable",
      "type": "function"
    },
    {
      "inputs": [
        {
          "internalType": "address",
          "name": "_forwarder",
          "type": "address"
        }
      ],
      "name": "setForwarderAddress",
      "outputs": [],
      "stateMutability": "nonpayable",
      "type": "function"
    },
    {
      "inputs": [
        {
          "internalType": "bytes4",
          "name": "interfaceId",
          "type": "bytes4"
        }
      ],
      "name": "supportsInterface",
      "outputs": [
        {
          "internalType": "bool",
          "name": "",
          "type": "bool"
        }
      ],
      "stateMutability": "pure",
      "type": "function"
    },
    {
      "inputs": [
        {
          "internalType": "address",
          "name": "newOwner",
          "type": "address"
        }
      ],
      "name": "transferOwnership",
      "outputs": [],
      "stateMutability": "nonpayable",
      "type": "function"
    },
    {
      "inputs": [],
      "name": "usdcToken",
      "outputs": [
        {
          "internalType": "address",
          "name": "",
          "type": "address"
        }
      ],
      "stateMutability": "view",
      "type": "function"
    },
    {
      "inputs": [
        {
          "internalType": "address",
          "name": "to",
          "type": "address"
        },
        {
          "internalType": "uint256",
          "name": "amount",
          "type": "uint256"
        }
      ],
      "name": "withdrawUSDC",
      "outputs": [],
      "stateMutability": "nonpayable",
      "type": "function"
    }
  ],
  "bytecode": "0x60806040523480156200001157600080fd5b5060405162001f0f38038062001f0f83398101604081905262000034916200024d565b8033806200005d57604051631e4fbdf760e01b8152600060048201526024015b60405180910390fd5b6200006881620001e0565b506001600160a01b038116620000905760405162e0775560e61b815260040160405180910390fd5b600180546001600160a01b0319166001600160a01b0383169081179091556040516000907f039ad854736757070884dd787ef1a7f58db33546639d1f3efddcf4a33fb8997e908290a3506001600160a01b0382166200014a5760405162461bcd60e51b815260206004820152602f60248201527f52756c6552656769737472793a205553444320746f6b656e206164647265737360448201526e2063616e6e6f74206265207a65726f60881b606482015260840162000054565b6001600160a01b038116620001b95760405162461bcd60e51b815260206004820152602e60248201527f52756c6552656769737472793a20466f7277617264657220616464726573732060448201526d63616e6e6f74206265207a65726f60901b606482015260840162000054565b50600480546001600160a01b0319166001600160a01b039290921691909117905562000285565b600080546001600160a01b038381166001600160a01b0319831681178455604051919092169283917f8be0079c531659141344cd1fd0a4f28419497f9722a3daafe3b4186f6b6457e09190a35050565b80516001600160a01b03811681146200024857600080fd5b919050565b600080604083850312156200026157600080fd5b6200026c8362000230565b91506200027c6020840162000230565b90509250929050565b611c7a80620002956000396000f3fe608060405234801561001057600080fd5b50600436106101375760003560e01c806370f047b0116100b8578063bc1fc27a1161007c578063bc1fc27a14610298578063c3c44ac2146102ab578063d60c884b146102be578063d777cc6d146102d1578063f2fde38b146102e4578063f5c793ef146102f757600080fd5b806370f047b01461023d578063715018a614610246578063805f21321461024e5780638da5cb5b14610261578063a619d8181461027257600080fd5b80633441856f116100ff5780633441856f146101d95780633cfd1ccc146101ea57806344471fd91461020057806348462037146102155780635c3ca9101461023557600080fd5b806301ffc9a71461013c57806304d6ded4146101645780631184aef21461018857806311eac8551461019d5780633397cf67146101c8575b600080fd5b61014f61014a366004611573565b6102ff565b60405190151581526020015b60405180910390f35b6101776101723660046115a4565b610336565b60405161015b959493929190611603565b610190610475565b60405161015b919061169c565b6004546101b0906001600160a01b031681565b6040516001600160a01b03909116815260200161015b565b6002546001600160a01b03166101b0565b6001546001600160a01b03166101b0565b6101f2610695565b60405190815260200161015b565b61021361020e36600461171c565b61073e565b005b6102286102233660046115a4565b610a23565b60405161015b9190611746565b6005546101f2565b6101f260055481565b610213610c06565b61021361025c3660046117a2565b610c1a565b6000546001600160a01b03166101b0565b600254600160a01b900460b01b6040516001600160b01b0319909116815260200161015b565b6102136102a636600461180e565b610e4e565b6102136102b93660046115a4565b611038565b6102136102cc366004611850565b611079565b6102136102df366004611850565b6110d3565b6102136102f2366004611850565b6111cf565b6003546101f2565b60006001600160e01b0319821663402f909960e11b148061033057506001600160e01b031982166301ffc9a760e01b145b92915050565b600660205260009081526040902080546001820180549192916103589061186b565b80601f01602080910402602001604051908101604052809291908181526020018280546103849061186b565b80156103d15780601f106103a6576101008083540402835291602001916103d1565b820191906000526020600020905b8154815290600101906020018083116103b457829003601f168201915b5050505050908060020180546103e69061186b565b80601f01602080910402602001604051908101604052809291908181526020018280546104129061186b565b801561045f5780601f106104345761010080835404028352916020019161045f565b820191906000526020600020905b81548152906001019060200180831161044257829003601f168201915b5050505050908060030154908060040154905085565b6060600060055467ffffffffffffffff8111156104945761049461189f565b6040519080825280602002602001820160405280156104fa57816020015b6104e76040518060a0016040528060008019168152602001606081526020016060815260200160008152602001600081525090565b8152602001906001900390816104b25790505b50905060005b60055481101561068f57600660008281526020019081526020016000206040518060a0016040529081600082015481526020016001820180546105429061186b565b80601f016020809104026020016040519081016040528092919081815260200182805461056e9061186b565b80156105bb5780601f10610590576101008083540402835291602001916105bb565b820191906000526020600020905b81548152906001019060200180831161059e57829003601f168201915b505050505081526020016002820180546105d49061186b565b80601f01602080910402602001604051908101604052809291908181526020018280546106009061186b565b801561064d5780601f106106225761010080835404028352916020019161064d565b820191906000526020600020905b81548152906001019060200180831161063057829003601f168201915b505050505081526020016003820154815260200160048201548152505082828151811061067c5761067c6118b5565b6020908102919091010152600101610500565b50919050565b6004546000906001600160a01b03166106c95760405162461bcd60e51b81526004016106c0906118cb565b60405180910390fd5b600480546040516370a0823160e01b815230928101929092526001600160a01b03169081906370a0823190602401602060405180830381865afa158015610714573d6000803e3d6000fd5b505050506040513d601f19601f820116820180604052508101906107389190611913565b91505090565b61074661120d565b6004546001600160a01b031661076e5760405162461bcd60e51b81526004016106c0906118cb565b6001600160a01b0382166107d45760405162461bcd60e51b815260206004820152602760248201527f52756c6552656769737472793a20696e76616c696420726563697069656e74206044820152666164647265737360c81b60648201526084016106c0565b6000811161083b5760405162461bcd60e51b815260206004820152602e60248201527f52756c6552656769737472793a20616d6f756e74206d7573742062652067726560448201526d61746572207468616e207a65726f60901b60648201526084016106c0565b600480546040516370a0823160e01b815230928101929092526001600160a01b03169060009082906370a0823190602401602060405180830381865afa158015610889573d6000803e3d6000fd5b505050506040513d601f19601f820116820180604052508101906108ad9190611913565b90508281101561090f5760405162461bcd60e51b815260206004820152602760248201527f52756c6552656769737472793a20696e73756666696369656e7420555344432060448201526662616c616e636560c81b60648201526084016106c0565b60405163a9059cbb60e01b81526001600160a01b0385811660048301526024820185905283169063a9059cbb906044016020604051808303816000875af115801561095e573d6000803e3d6000fd5b505050506040513d601f19601f82011682018060405250810190610982919061192c565b6109d95760405162461bcd60e51b815260206004820152602260248201527f52756c6552656769737472793a2055534443207472616e73666572206661696c604482015261195960f21b60648201526084016106c0565b6004546040518481526001600160a01b038681169216907f2717ead6b9200dd235aad468c9809ea400fe33ac69b5bfaa6d3e90fc922b63989060200160405180910390a350505050565b610a586040518060a0016040528060008019168152602001606081526020016060815260200160008152602001600081525090565b6005548210610a9f5760405162461bcd60e51b8152602060048201526013602482015272149d5b1948191bd95cc81b9bdd08195e1a5cdd606a1b60448201526064016106c0565b600660008381526020019081526020016000206040518060a001604052908160008201548152602001600182018054610ad79061186b565b80601f0160208091040260200160405190810160405280929190818152602001828054610b039061186b565b8015610b505780601f10610b2557610100808354040283529160200191610b50565b820191906000526020600020905b815481529060010190602001808311610b3357829003601f168201915b50505050508152602001600282018054610b699061186b565b80601f0160208091040260200160405190810160405280929190818152602001828054610b959061186b565b8015610be25780601f10610bb757610100808354040283529160200191610be2565b820191906000526020600020905b815481529060010190602001808311610bc557829003601f168201915b50505050508152602001600382015481526020016004820154815250509050919050565b610c0e61120d565b610c18600061123a565b565b6001546001600160a01b031615801590610c3f57506001546001600160a01b03163314155b15610c725760015460405163708986dd60e11b81523360048201526001600160a01b0390911660248201526044016106c0565b600354151580610c8c57506002546001600160a01b031615155b80610cac5750600254600160a01b900460b01b6001600160b01b03191615155b15610e3e576000806000610cf587878080601f01602080910402602001604051908101604052809392919081815260200183838082843760009201919091525061128a92505050565b600354929550909350915015801590610d1057506003548314155b15610d3c57600354604051634dfd1cdd60e11b81526106c0918591600401918252602082015260400190565b6002546001600160a01b031615801590610d6457506002546001600160a01b03828116911614155b15610d9957600254604051631715315f60e31b81526001600160a01b03808416600483015290911660248201526044016106c0565b600254600160a01b900460b01b6001600160b01b03191615610e3a576002546001600160a01b0316610dde57604051634847901160e01b815260040160405180910390fd5b6002546001600160b01b0319838116600160a01b90920460b01b1614610e3a5760025460405163362304d360e11b81526001600160b01b03198481166004830152600160a01b90920460b01b90911660248201526044016106c0565b5050505b610e4882826112a3565b50505050565b610e5661120d565b600254600160a01b900460b01b6000829003610ebe576002805469ffffffffffffffffffff60a01b191690556040516000906001600160b01b03198316907f1e7ddd09d504c82dcfc784a464b167469f5aad967606ec4822d848ef9141dfa5908390a3505050565b600060028484604051610ed292919061194e565b602060405180830381855afa158015610eef573d6000803e3d6000fd5b5050506040513d601f19601f82011682018060405250810190610f129190611913565b90506000610f4082604051602001610f2c91815260200190565b6040516020818303038152906040526112d6565b60408051600a8082528183019092529192506000919060208201818036833701905050905060005b600a811015610fbf57828181518110610f8357610f836118b5565b602001015160f81c60f81b828281518110610fa057610fa06118b5565b60200101906001600160f81b031916908160001a905350600101610f68565b50610fc98161195e565b6002805469ffffffffffffffffffff60a01b1916600160a01b60b093841c81029190911791829055604051910490911b6001600160b01b031990811691908616907f1e7ddd09d504c82dcfc784a464b167469f5aad967606ec4822d848ef9141dfa590600090a3505050505050565b61104061120d565b6003805490829055604051829082907f0dbedcdf21925e053b4c574eae180d7f2883235ab4976ecc0873598a2a999b0390600090a35050565b61108161120d565b600280546001600160a01b038381166001600160a01b0319831681179093556040519116919082907f3321cda85c145617e47418aa14255e9dcbec53a753778e57591703b89a3cad3190600090a35050565b6110db61120d565b6001546001600160a01b0390811690821661117e577f704da7db165c79c1e33d542c079333bbde970a733032d2f95fec8fb7d770cbf76040516111759060208082526038908201527f466f7277617264657220616464726573732073657420746f207a65726f202d2060408201527f636f6e7472616374206973206e6f7720494e5345435552450000000000000000606082015260800190565b60405180910390a15b600180546001600160a01b0319166001600160a01b0384811691821790925560405190918316907f039ad854736757070884dd787ef1a7f58db33546639d1f3efddcf4a33fb8997e90600090a35050565b6111d761120d565b6001600160a01b03811661120157604051631e4fbdf760e01b8152600060048201526024016106c0565b61120a8161123a565b50565b6000546001600160a01b03163314610c185760405163118cdaa760e01b81523360048201526024016106c0565b600080546001600160a01b038381166001600160a01b0319831681178455604051919092169283917f8be0079c531659141344cd1fd0a4f28419497f9722a3daafe3b4186f6b6457e09190a35050565b60208101516040820151604a83015160601c9193909250565b6000808080806112b586880188611a22565b945094509450945094506112cc8585858585611497565b5050505050505050565b60606000825160026112e89190611ab7565b67ffffffffffffffff8111156113005761130061189f565b6040519080825280601f01601f19166020018201604052801561132a576020820181803683370190505b50905060005b8351811015611490576040518060400160405280601081526020016f181899199a1a9b1b9c1cb0b131b232b360811b8152506004858381518110611376576113766118b5565b016020015182516001600160f81b031990911690911c60f81c90811061139e5761139e6118b5565b01602001516001600160f81b031916826113b9836002611ab7565b815181106113c9576113c96118b5565b60200101906001600160f81b031916908160001a9053506040518060400160405280601081526020016f181899199a1a9b1b9c1cb0b131b232b360811b81525084828151811061141b5761141b6118b5565b602091010151815160f89190911c600f1690811061143b5761143b6118b5565b01602001516001600160f81b03191682611456836002611ab7565b611461906001611ace565b81518110611471576114716118b5565b60200101906001600160f81b031916908160001a905350600101611330565b5092915050565b600580546000918190836114aa83611ae1565b90915550506040805160a081018252888152602080820189815282840189905260608301889052608083018790526000858152600690925292902081518155915190919060018201906114fd9082611b4b565b50604082015160028201906115129082611b4b565b50606082015181600301556080820151816004015590505086817f500f12fa025b5c2655bd0938cc63539362f2b7adffd81d9ea12ffadd042061ce888888886040516115619493929190611c0b565b60405180910390a39695505050505050565b60006020828403121561158557600080fd5b81356001600160e01b03198116811461159d57600080fd5b9392505050565b6000602082840312156115b657600080fd5b5035919050565b6000815180845260005b818110156115e3576020818501810151868301820152016115c7565b506000602082860101526020601f19601f83011685010191505092915050565b85815260a06020820152600061161c60a08301876115bd565b828103604084015261162e81876115bd565b60608401959095525050608001529392505050565b805182526000602082015160a0602085015261166260a08501826115bd565b90506040830151848203604086015261167b82826115bd565b91505060608301516060850152608083015160808501528091505092915050565b600060208083016020845280855180835260408601915060408160051b87010192506020870160005b828110156116f357603f198886030184526116e1858351611643565b945092850192908501906001016116c5565b5092979650505050505050565b80356001600160a01b038116811461171757600080fd5b919050565b6000806040838503121561172f57600080fd5b61173883611700565b946020939093013593505050565b60208152600061159d6020830184611643565b60008083601f84011261176b57600080fd5b50813567ffffffffffffffff81111561178357600080fd5b60208301915083602082850101111561179b57600080fd5b9250929050565b600080600080604085870312156117b857600080fd5b843567ffffffffffffffff808211156117d057600080fd5b6117dc88838901611759565b909650945060208701359150808211156117f557600080fd5b5061180287828801611759565b95989497509550505050565b6000806020838503121561182157600080fd5b823567ffffffffffffffff81111561183857600080fd5b61184485828601611759565b90969095509350505050565b60006020828403121561186257600080fd5b61159d82611700565b600181811c9082168061187f57607f821691505b60208210810361068f57634e487b7160e01b600052602260045260246000fd5b634e487b7160e01b600052604160045260246000fd5b634e487b7160e01b600052603260045260246000fd5b60208082526028908201527f52756c6552656769737472793a205553444320746f6b656e2061646472657373604082015267081b9bdd081cd95d60c21b606082015260800190565b60006020828403121561192557600080fd5b5051919050565b60006020828403121561193e57600080fd5b8151801515811461159d57600080fd5b8183823760009101908152919050565b805160208201516001600160b01b0319808216929190600a83101561198d57808184600a0360031b1b83161693505b505050919050565b600082601f8301126119a657600080fd5b813567ffffffffffffffff808211156119c1576119c161189f565b604051601f8301601f19908116603f011681019082821181831017156119e9576119e961189f565b81604052838152866020858801011115611a0257600080fd5b836020870160208301376000602085830101528094505050505092915050565b600080600080600060a08688031215611a3a57600080fd5b85359450602086013567ffffffffffffffff80821115611a5957600080fd5b611a6589838a01611995565b95506040880135915080821115611a7b57600080fd5b50611a8888828901611995565b9598949750949560608101359550608001359392505050565b634e487b7160e01b600052601160045260246000fd5b808202811582820484141761033057610330611aa1565b8082018082111561033057610330611aa1565b600060018201611af357611af3611aa1565b5060010190565b601f821115611b46576000816000526020600020601f850160051c81016020861015611b235750805b601f850160051c820191505b81811015611b4257828155600101611b2f565b5050505b505050565b815167ffffffffffffffff811115611b6557611b6561189f565b611b7981611b73845461186b565b84611afa565b602080601f831160018114611bae5760008415611b965750858301515b600019600386901b1c1916600185901b178555611b42565b600085815260208120601f198616915b82811015611bdd57888601518255948401946001909101908401611bbe565b5085821015611bfb5787850151600019600388901b60f8161c191681555b5050505050600190811b01905550565b608081526000611c1e60808301876115bd565b8281036020840152611c3081876115bd565b60408401959095525050606001529291505056fea264697066735822122047126b3b40fc9de5ef6b3efff576ed58a621c4692fad8ca83a2b58c0fbdf019164736f6c63430008180033",
  "linkReferences": {},
  "deployedLinkReferences": {}
}