{
  "_format": "hh-sol-artifact-1",
  "contractName": "RuleRegistry",
  "sourceName": "contracts/RuleRegistry.sol",
  "abi": [
    {
      "inputs": [
        {
          "internalType": "address",
          "name": "_usdcToken",
          "type": "address"
        }
      ],
      "stateMutability": "nonpayable",
      "type": "constructor"
    },
    {
      "inputs": [
        {
          "internalType": "address",
          "name": "owner",
          "type": "address"
        }
      ],
      "name": "OwnableInvalidOwner",
      "type": "error"
    },
    {
      "inputs": [
        {
          "internalType": "address",
          "name": "account",
          "type": "address"
        }
      ],
      "name": "OwnableUnauthorizedAccount",
      "type": "error"
    },
    {
      "anonymous": false,
      "inputs": [
        {
          "indexed": true,
          "internalType": "address",
          "name": "previousOwner",
          "type": "address"
        },
        {
          "indexed": true,
          "internalType": "address",
          "name": "newOwner",
          "type": "address"
        }
      ],
      "name": "OwnershipTransferred",
      "type": "event"
    },
    {
      "anonymous": false,
      "inputs": [
        {
          "indexed": true,
          "internalType": "address",
          "name": "previousHandler",
          "type": "address"
        },
        {
          "indexed": true,
          "internalType": "address",
          "name": "newHandler",
          "type": "address"
        }
      ],
      "name": "ReactivityHandlerUpdated",
      "type": "event"
    },
    {
      "anonymous": false,
      "inputs": [
        {
          "indexed": true,
          "internalType": "uint256",
          "name": "ruleId",
          "type": "uint256"
        },
        {
          "indexed": true,
          "internalType": "bytes32",
          "name": "id",
          "type": "bytes32"
        },
        {
          "indexed": false,
          "internalType": "string",
          "name": "asset",
          "type": "string"
        },
        {
          "indexed": false,
          "internalType": "string",
          "name": "condition",
          "type": "string"
        },
        {
          "indexed": false,
          "internalType": "uint256",
          "name": "targetPriceUsd",
          "type": "uint256"
        },
        {
          "indexed": false,
          "internalType": "uint256",
          "name": "createdAt",
          "type": "uint256"
        }
      ],
      "name": "RuleCreated",
      "type": "event"
    },
    {
      "anonymous": false,
      "inputs": [
        {
          "indexed": true,
          "internalType": "address",
          "name": "token",
          "type": "address"
        },
        {
          "indexed": true,
          "internalType": "address",
          "name": "to",
          "type": "address"
        },
        {
          "indexed": false,
          "internalType": "uint256",
          "name": "amount",
          "type": "uint256"
        }
      ],
      "name": "Withdrawal",
      "type": "event"
    },
    {
      "inputs": [],
      "name": "getAllRules",
      "outputs": [
        {
          "components": [
            {
              "internalType": "bytes32",
              "name": "id",
              "type": "bytes32"
            },
            {
              "internalType": "string",
              "name": "asset",
              "type": "string"
            },
            {
              "internalType": "string",
              "name": "condition",
              "type": "string"
            },
            {
              "internalType": "uint256",
              "name": "targetPriceUsd",
              "type": "uint256"
            },
            {
              "internalType": "uint256",
              "name": "createdAt",
              "type": "uint256"
            }
          ],
          "internalType": "struct RuleRegistry.Rule[]",
          "name": "",
          "type": "tuple[]"
        }
      ],
      "stateMutability": "view",
      "type": "function"
    },
    {
      "inputs": [
        {
          "internalType": "uint256",
          "name": "_ruleId",
          "type": "uint256"
        }
      ],
      "name": "getRule",
      "outputs": [
        {
          "components": [
            {
              "internalType": "bytes32",
              "name": "id",
              "type": "bytes32"
            },
            {
              "internalType": "string",
              "name": "asset",
              "type": "string"
            },
            {
              "internalType": "string",
              "name": "condition",
              "type": "string"
            },
            {
              "internalType": "uint256",
              "name": "targetPriceUsd",
              "type": "uint256"
            },
            {
              "internalType": "uint256",
              "name": "createdAt",
              "type": "uint256"
            }
          ],
          "internalType": "struct RuleRegistry.Rule",
          "name": "",
          "type": "tuple"
        }
      ],
      "stateMutability": "view",
      "type": "function"
    },
    {
      "inputs": [],
      "name": "getRuleCount",
      "outputs": [
        {
          "internalType": "uint256",
          "name": "",
          "type": "uint256"
        }
      ],
      "stateMutability": "view",
      "type": "function"
    },
    {
      "inputs": [],
      "name": "getUSDCBalance",
      "outputs": [
        {
          "internalType": "uint256",
          "name": "",
          "type": "uint256"
        }
      ],
      "stateMutability": "view",
      "type": "function"
    },
    {
      "inputs": [],
      "name": "nextRuleId",
      "outputs": [
        {
          "internalType": "uint256",
          "name": "",
          "type": "uint256"
        }
      ],
      "stateMutability": "view",
      "type": "function"
    },
    {
      "inputs": [],
      "name": "owner",
      "outputs": [
        {
          "internalType": "address",
          "name": "",
          "type": "address"
        }
      ],
      "stateMutability": "view",
      "type": "function"
    },
    {
      "inputs": [],
      "name": "reactivityHandler",
      "outputs": [
        {
          "internalType": "address",
          "name": "",
          "type": "address"
        }
      ],
      "stateMutability": "view",
      "type": "function"
    },
    {
      "inputs": [],
      "name": "renounceOwnership",
      "outputs": [],
      "stateMutability": "nonpayable",
      "type": "function"
    },
    {
      "inputs": [
        {
          "internalType": "uint256",
          "name": "",
          "type": "uint256"
        }
      ],
      "name": "rules",
      "outputs": [
        {
          "internalType": "bytes32",
          "name": "id",
          "type": "bytes32"
        },
        {
          "internalType": "string",
          "name": "asset",
          "type": "string"
        },
        {
          "internalType": "string",
          "name": "condition",
          "type": "string"
        },
        {
          "internalType": "uint256",
          "name": "targetPriceUsd",
          "type": "uint256"
        },
        {
          "internalType": "uint256",
          "name": "createdAt",
          "type": "uint256"
        }
      ],
      "stateMutability": "view",
      "type": "function"
    },
    {
      "inputs": [
        {
          "internalType": "address",
          "name": "_handler",
          "type": "address"
        }
      ],
      "name": "setReactivityHandler",
      "outputs": [],
      "stateMutability": "nonpayable",
      "type": "function"
    },
    {
      "inputs": [
        {
          "internalType": "address",
          "name": "newOwner",
          "type": "address"
        }
      ],
      "name": "transferOwnership",
      "outputs": [],
      "stateMutability": "nonpayable",
      "type": "function"
    },
    {
      "inputs": [],
      "name": "usdcToken",
      "outputs": [
        {
          "internalType": "address",
          "name": "",
          "type": "address"
        }
      ],
      "stateMutability": "view",
      "type": "function"
    },
    {
      "inputs": [
        {
          "internalType": "address",
          "name": "to",
          "type": "address"
        },
        {
          "internalType": "uint256",
          "name": "amount",
          "type": "uint256"
        }
      ],
      "name": "withdrawUSDC",
      "outputs": [],
      "stateMutability": "nonpayable",
      "type": "function"
    },
    {
      "inputs": [
        {
          "internalType": "bytes32",
          "name": "_id",
          "type": "bytes32"
        },
        {
          "internalType": "string",
          "name": "_asset",
          "type": "string"
        },
        {
          "internalType": "string",
          "name": "_condition",
          "type": "string"
        },
        {
          "internalType": "uint256",
          "name": "_targetPriceUsd",
          "type": "uint256"
        },
        {
          "internalType": "uint256",
          "name": "_createdAt",
          "type": "uint256"
        }
      ],
      "name": "writeRuleByOwner",
      "outputs": [],
      "stateMutability": "nonpayable",
      "type": "function"
    },
    {
      "inputs": [
        {
          "internalType": "bytes",
          "name": "data",
          "type": "bytes"
        }
      ],
      "name": "writeRuleFromReactivity",
      "outputs": [],
      "stateMutability": "nonpayable",
      "type": "function"
    }
  ],
  "bytecode": "0x608060405234801561001057600080fd5b5060405161163f38038061163f83398101604081905261002f91610142565b338061005657604051631e4fbdf760e01b8152600060048201526024015b60405180910390fd5b61005f816100f2565b506001600160a01b0381166100cd5760405162461bcd60e51b815260206004820152602e60248201527f52756c6552656769737472793a2053545420746f6b656e20616464726573732060448201526d63616e6e6f74206265207a65726f60901b606482015260840161004d565b600180546001600160a01b0319166001600160a01b0392909216919091179055610172565b600080546001600160a01b038381166001600160a01b0319831681178455604051919092169283917f8be0079c531659141344cd1fd0a4f28419497f9722a3daafe3b4186f6b6457e09190a35050565b60006020828403121561015457600080fd5b81516001600160a01b038116811461016b57600080fd5b9392505050565b6114be806101816000396000f3fe608060405234801561001057600080fd5b50600436106100f55760003560e01c80635ba43ffc116100975780638b8c7d65116100665780638b8c7d65146101f15780638da5cb5b14610204578063961b197514610215578063f2fde38b1461022857600080fd5b80635ba43ffc146101c55780635c3ca910146101d857806370f047b0146101e0578063715018a6146101e957600080fd5b80633cfd1ccc116100d35780633cfd1ccc146101675780633f6b8fca1461017d57806344471fd91461019257806348462037146101a557600080fd5b806304d6ded4146100fa5780631184aef21461012757806311eac8551461013c575b600080fd5b61010d610108366004610e34565b61023b565b60405161011e959493929190610e93565b60405180910390f35b61012f61037a565b60405161011e9190610f2c565b60015461014f906001600160a01b031681565b6040516001600160a01b03909116815260200161011e565b61016f61059a565b60405190815260200161011e565b61019061018b366004610fad565b610642565b005b6101906101a0366004610fcf565b61069c565b6101b86101b3366004610e34565b61097e565b60405161011e9190610ff9565b60025461014f906001600160a01b031681565b60035461016f565b61016f60035481565b610190610b61565b6101906101ff366004611055565b610b75565b6000546001600160a01b031661014f565b6101906102233660046110e3565b610bff565b610190610236366004610fad565b610c9d565b6004602052600090815260409020805460018201805491929161025d90611125565b80601f016020809104026020016040519081016040528092919081815260200182805461028990611125565b80156102d65780601f106102ab576101008083540402835291602001916102d6565b820191906000526020600020905b8154815290600101906020018083116102b957829003601f168201915b5050505050908060020180546102eb90611125565b80601f016020809104026020016040519081016040528092919081815260200182805461031790611125565b80156103645780601f1061033957610100808354040283529160200191610364565b820191906000526020600020905b81548152906001019060200180831161034757829003601f168201915b5050505050908060030154908060040154905085565b6060600060035467ffffffffffffffff81111561039957610399611159565b6040519080825280602002602001820160405280156103ff57816020015b6103ec6040518060a0016040528060008019168152602001606081526020016060815260200160008152602001600081525090565b8152602001906001900390816103b75790505b50905060005b60035481101561059457600460008281526020019081526020016000206040518060a00160405290816000820154815260200160018201805461044790611125565b80601f016020809104026020016040519081016040528092919081815260200182805461047390611125565b80156104c05780601f10610495576101008083540402835291602001916104c0565b820191906000526020600020905b8154815290600101906020018083116104a357829003601f168201915b505050505081526020016002820180546104d990611125565b80601f016020809104026020016040519081016040528092919081815260200182805461050590611125565b80156105525780601f1061052757610100808354040283529160200191610552565b820191906000526020600020905b81548152906001019060200180831161053557829003601f168201915b50505050508152602001600382015481526020016004820154815250508282815181106105815761058161116f565b6020908102919091010152600101610405565b50919050565b6001546000906001600160a01b03166105ce5760405162461bcd60e51b81526004016105c590611185565b60405180910390fd5b6001546040516370a0823160e01b81523060048201526001600160a01b039091169081906370a0823190602401602060405180830381865afa158015610618573d6000803e3d6000fd5b505050506040513d601f19601f8201168201806040525081019061063c91906111cc565b91505090565b61064a610cdb565b600280546001600160a01b038381166001600160a01b0319831681179093556040519116919082907fa7e53a6bde8f002e14316a9e482d555151e420a53c69b8922d7b0a7a7e79ef6990600090a35050565b6106a4610cdb565b6001546001600160a01b03166106cc5760405162461bcd60e51b81526004016105c590611185565b6001600160a01b0382166107325760405162461bcd60e51b815260206004820152602760248201527f52756c6552656769737472793a20696e76616c696420726563697069656e74206044820152666164647265737360c81b60648201526084016105c5565b600081116107995760405162461bcd60e51b815260206004820152602e60248201527f52756c6552656769737472793a20616d6f756e74206d7573742062652067726560448201526d61746572207468616e207a65726f60901b60648201526084016105c5565b6001546040516370a0823160e01b81523060048201526001600160a01b039091169060009082906370a0823190602401602060405180830381865afa1580156107e6573d6000803e3d6000fd5b505050506040513d601f19601f8201168201806040525081019061080a91906111cc565b90508281101561086b5760405162461bcd60e51b815260206004820152602660248201527f52756c6552656769737472793a20696e73756666696369656e74205354542062604482015265616c616e636560d01b60648201526084016105c5565b60405163a9059cbb60e01b81526001600160a01b0385811660048301526024820185905283169063a9059cbb906044016020604051808303816000875af11580156108ba573d6000803e3d6000fd5b505050506040513d601f19601f820116820180604052508101906108de91906111e5565b6109345760405162461bcd60e51b815260206004820152602160248201527f52756c6552656769737472793a20535454207472616e73666572206661696c656044820152601960fa1b60648201526084016105c5565b6001546040518481526001600160a01b038681169216907f2717ead6b9200dd235aad468c9809ea400fe33ac69b5bfaa6d3e90fc922b63989060200160405180910390a350505050565b6109b36040518060a0016040528060008019168152602001606081526020016060815260200160008152602001600081525090565b60035482106109fa5760405162461bcd60e51b8152602060048201526013602482015272149d5b1948191bd95cc81b9bdd08195e1a5cdd606a1b60448201526064016105c5565b600460008381526020019081526020016000206040518060a001604052908160008201548152602001600182018054610a3290611125565b80601f0160208091040260200160405190810160405280929190818152602001828054610a5e90611125565b8015610aab5780601f10610a8057610100808354040283529160200191610aab565b820191906000526020600020905b815481529060010190602001808311610a8e57829003601f168201915b50505050508152602001600282018054610ac490611125565b80601f0160208091040260200160405190810160405280929190818152602001828054610af090611125565b8015610b3d5780601f10610b1257610100808354040283529160200191610b3d565b820191906000526020600020905b815481529060010190602001808311610b2057829003601f168201915b50505050508152602001600382015481526020016004820154815250509050919050565b610b69610cdb565b610b736000610d08565b565b610b7d610cdb565b610bf58787878080601f01602080910402602001604051908101604052809392919081815260200183838082843760009201919091525050604080516020601f8b018190048102820181019092528981529250899150889081908401838280828437600092019190915250889250879150610d589050565b5050505050505050565b6002546001600160a01b03163314610c745760405162461bcd60e51b815260206004820152603260248201527f52756c6552656769737472793a2063616c6c6572206973206e6f7420746865206044820152713932b0b1ba34bb34ba3c903430b7323632b960711b60648201526084016105c5565b600080808080610c8686880188611296565b94509450945094509450610bf58585858585610d58565b610ca5610cdb565b6001600160a01b038116610ccf57604051631e4fbdf760e01b8152600060048201526024016105c5565b610cd881610d08565b50565b6000546001600160a01b03163314610b735760405163118cdaa760e01b81523360048201526024016105c5565b600080546001600160a01b038381166001600160a01b0319831681178455604051919092169283917f8be0079c531659141344cd1fd0a4f28419497f9722a3daafe3b4186f6b6457e09190a35050565b60038054600091819083610d6b8361131a565b90915550506040805160a08101825288815260208082018981528284018990526060830188905260808301879052600085815260049092529290208151815591519091906001820190610dbe9082611390565b5060408201516002820190610dd39082611390565b50606082015181600301556080820151816004015590505086817f500f12fa025b5c2655bd0938cc63539362f2b7adffd81d9ea12ffadd042061ce88888888604051610e22949392919061144f565b60405180910390a39695505050505050565b600060208284031215610e4657600080fd5b5035919050565b6000815180845260005b81811015610e7357602081850181015186830182015201610e57565b506000602082860101526020601f19601f83011685010191505092915050565b85815260a060208201526000610eac60a0830187610e4d565b8281036040840152610ebe8187610e4d565b60608401959095525050608001529392505050565b805182526000602082015160a06020850152610ef260a0850182610e4d565b905060408301518482036040860152610f0b8282610e4d565b91505060608301516060850152608083015160808501528091505092915050565b6000602082016020835280845180835260408501915060408160051b86010192506020860160005b82811015610f8557603f19878603018452610f70858351610ed3565b94506020938401939190910190600101610f54565b50929695505050505050565b80356001600160a01b0381168114610fa857600080fd5b919050565b600060208284031215610fbf57600080fd5b610fc882610f91565b9392505050565b60008060408385031215610fe257600080fd5b610feb83610f91565b946020939093013593505050565b602081526000610fc86020830184610ed3565b60008083601f84011261101e57600080fd5b50813567ffffffffffffffff81111561103657600080fd5b60208301915083602082850101111561104e57600080fd5b9250929050565b600080600080600080600060a0888a03121561107057600080fd5b87359650602088013567ffffffffffffffff81111561108e57600080fd5b61109a8a828b0161100c565b909750955050604088013567ffffffffffffffff8111156110ba57600080fd5b6110c68a828b0161100c565b989b979a5095989597966060870135966080013595509350505050565b600080602083850312156110f657600080fd5b823567ffffffffffffffff81111561110d57600080fd5b6111198582860161100c565b90969095509350505050565b600181811c9082168061113957607f821691505b60208210810361059457634e487b7160e01b600052602260045260246000fd5b634e487b7160e01b600052604160045260246000fd5b634e487b7160e01b600052603260045260246000fd5b60208082526027908201527f52756c6552656769737472793a2053545420746f6b656e2061646472657373206040820152661b9bdd081cd95d60ca1b606082015260800190565b6000602082840312156111de57600080fd5b5051919050565b6000602082840312156111f757600080fd5b81518015158114610fc857600080fd5b600082601f83011261121857600080fd5b813567ffffffffffffffff81111561123257611232611159565b604051601f8201601f19908116603f0116810167ffffffffffffffff8111828210171561126157611261611159565b60405281815283820160200185101561127957600080fd5b816020850160208301376000918101602001919091529392505050565b600080600080600060a086880312156112ae57600080fd5b85359450602086013567ffffffffffffffff8111156112cc57600080fd5b6112d888828901611207565b945050604086013567ffffffffffffffff8111156112f557600080fd5b61130188828901611207565b9598949750949560608101359550608001359392505050565b60006001820161133a57634e487b7160e01b600052601160045260246000fd5b5060010190565b601f82111561138b57806000526020600020601f840160051c810160208510156113685750805b601f840160051c820191505b818110156113885760008155600101611374565b50505b505050565b815167ffffffffffffffff8111156113aa576113aa611159565b6113be816113b88454611125565b84611341565b6020601f8211600181146113f257600083156113da5750848201515b600019600385901b1c1916600184901b178455611388565b600084815260208120601f198516915b828110156114225787850151825560209485019460019092019101611402565b50848210156114405786840151600019600387901b60f8161c191681555b50505050600190811b01905550565b6080815260006114626080830187610e4d565b82810360208401526114748187610e4d565b60408401959095525050606001529291505056fea26469706673582212205c92b16c8be0e282fd7eac213ea7ecaea84569b16c767a34d61e37d29f8844ea64736f6c634300081e0033",
  "linkReferences": {},
  "deployedLinkReferences": {}
}