{
  "_format": "hh-sol-artifact-1",
  "contractName": "RuleRegistry",
  "sourceName": "contracts/RuleRegistry.sol",
  "abi": [
    {
      "inputs": [
        {
          "internalType": "address",
          "name": "_usdcToken",
          "type": "address"
        }
      ],
      "stateMutability": "nonpayable",
      "type": "constructor"
    },
    {
      "inputs": [
        {
          "internalType": "address",
          "name": "owner",
          "type": "address"
        }
      ],
      "name": "OwnableInvalidOwner",
      "type": "error"
    },
    {
      "inputs": [
        {
          "internalType": "address",
          "name": "account",
          "type": "address"
        }
      ],
      "name": "OwnableUnauthorizedAccount",
      "type": "error"
    },
    {
      "anonymous": false,
      "inputs": [
        {
          "indexed": true,
          "internalType": "address",
          "name": "previousOwner",
          "type": "address"
        },
        {
          "indexed": true,
          "internalType": "address",
          "name": "newOwner",
          "type": "address"
        }
      ],
      "name": "OwnershipTransferred",
      "type": "event"
    },
    {
      "anonymous": false,
      "inputs": [
        {
          "indexed": true,
          "internalType": "address",
          "name": "previousHandler",
          "type": "address"
        },
        {
          "indexed": true,
          "internalType": "address",
          "name": "newHandler",
          "type": "address"
        }
      ],
      "name": "ReactivityHandlerUpdated",
      "type": "event"
    },
    {
      "anonymous": false,
      "inputs": [
        {
          "indexed": true,
          "internalType": "uint256",
          "name": "ruleId",
          "type": "uint256"
        },
        {
          "indexed": true,
          "internalType": "bytes32",
          "name": "id",
          "type": "bytes32"
        },
        {
          "indexed": false,
          "internalType": "string",
          "name": "asset",
          "type": "string"
        },
        {
          "indexed": false,
          "internalType": "string",
          "name": "condition",
          "type": "string"
        },
        {
          "indexed": false,
          "internalType": "uint256",
          "name": "targetPriceUsd",
          "type": "uint256"
        },
        {
          "indexed": false,
          "internalType": "uint256",
          "name": "createdAt",
          "type": "uint256"
        }
      ],
      "name": "RuleCreated",
      "type": "event"
    },
    {
      "anonymous": false,
      "inputs": [
        {
          "indexed": true,
          "internalType": "address",
          "name": "token",
          "type": "address"
        },
        {
          "indexed": true,
          "internalType": "address",
          "name": "to",
          "type": "address"
        },
        {
          "indexed": false,
          "internalType": "uint256",
          "name": "amount",
          "type": "uint256"
        }
      ],
      "name": "Withdrawal",
      "type": "event"
    },
    {
      "inputs": [],
      "name": "getAllRules",
      "outputs": [
        {
          "components": [
            {
              "internalType": "bytes32",
              "name": "id",
              "type": "bytes32"
            },
            {
              "internalType": "string",
              "name": "asset",
              "type": "string"
            },
            {
              "internalType": "string",
              "name": "condition",
              "type": "string"
            },
            {
              "internalType": "uint256",
              "name": "targetPriceUsd",
              "type": "uint256"
            },
            {
              "internalType": "uint256",
              "name": "createdAt",
              "type": "uint256"
            }
          ],
          "internalType": "struct RuleRegistry.Rule[]",
          "name": "",
          "type": "tuple[]"
        }
      ],
      "stateMutability": "view",
      "type": "function"
    },
    {
      "inputs": [
        {
          "internalType": "uint256",
          "name": "_ruleId",
          "type": "uint256"
        }
      ],
      "name": "getRule",
      "outputs": [
        {
          "components": [
            {
              "internalType": "bytes32",
              "name": "id",
              "type": "bytes32"
            },
            {
              "internalType": "string",
              "name": "asset",
              "type": "string"
            },
            {
              "internalType": "string",
              "name": "condition",
              "type": "string"
            },
            {
              "internalType": "uint256",
              "name": "targetPriceUsd",
              "type": "uint256"
            },
            {
              "internalType": "uint256",
              "name": "createdAt",
              "type": "uint256"
            }
          ],
          "internalType": "struct RuleRegistry.Rule",
          "name": "",
          "type": "tuple"
        }
      ],
      "stateMutability": "view",
      "type": "function"
    },
    {
      "inputs": [],
      "name": "getRuleCount",
      "outputs": [
        {
          "internalType": "uint256",
          "name": "",
          "type": "uint256"
        }
      ],
      "stateMutability": "view",
      "type": "function"
    },
    {
      "inputs": [],
      "name": "getUSDCBalance",
      "outputs": [
        {
          "internalType": "uint256",
          "name": "",
          "type": "uint256"
        }
      ],
      "stateMutability": "view",
      "type": "function"
    },
    {
      "inputs": [],
      "name": "nextRuleId",
      "outputs": [
        {
          "internalType": "uint256",
          "name": "",
          "type": "uint256"
        }
      ],
      "stateMutability": "view",
      "type": "function"
    },
    {
      "inputs": [],
      "name": "owner",
      "outputs": [
        {
          "internalType": "address",
          "name": "",
          "type": "address"
        }
      ],
      "stateMutability": "view",
      "type": "function"
    },
    {
      "inputs": [],
      "name": "reactivityHandler",
      "outputs": [
        {
          "internalType": "address",
          "name": "",
          "type": "address"
        }
      ],
      "stateMutability": "view",
      "type": "function"
    },
    {
      "inputs": [],
      "name": "renounceOwnership",
      "outputs": [],
      "stateMutability": "nonpayable",
      "type": "function"
    },
    {
      "inputs": [
        {
          "internalType": "uint256",
          "name": "",
          "type": "uint256"
        }
      ],
      "name": "rules",
      "outputs": [
        {
          "internalType": "bytes32",
          "name": "id",
          "type": "bytes32"
        },
        {
          "internalType": "string",
          "name": "asset",
          "type": "string"
        },
        {
          "internalType": "string",
          "name": "condition",
          "type": "string"
        },
        {
          "internalType": "uint256",
          "name": "targetPriceUsd",
          "type": "uint256"
        },
        {
          "internalType": "uint256",
          "name": "createdAt",
          "type": "uint256"
        }
      ],
      "stateMutability": "view",
      "type": "function"
    },
    {
      "inputs": [
        {
          "internalType": "address",
          "name": "_handler",
          "type": "address"
        }
      ],
      "name": "setReactivityHandler",
      "outputs": [],
      "stateMutability": "nonpayable",
      "type": "function"
    },
    {
      "inputs": [
        {
          "internalType": "address",
          "name": "newOwner",
          "type": "address"
        }
      ],
      "name": "transferOwnership",
      "outputs": [],
      "stateMutability": "nonpayable",
      "type": "function"
    },
    {
      "inputs": [],
      "name": "usdcToken",
      "outputs": [
        {
          "internalType": "address",
          "name": "",
          "type": "address"
        }
      ],
      "stateMutability": "view",
      "type": "function"
    },
    {
      "inputs": [
        {
          "internalType": "address",
          "name": "to",
          "type": "address"
        },
        {
          "internalType": "uint256",
          "name": "amount",
          "type": "uint256"
        }
      ],
      "name": "withdrawUSDC",
      "outputs": [],
      "stateMutability": "nonpayable",
      "type": "function"
    },
    {
      "inputs": [
        {
          "internalType": "bytes",
          "name": "data",
          "type": "bytes"
        }
      ],
      "name": "writeRuleFromReactivity",
      "outputs": [],
      "stateMutability": "nonpayable",
      "type": "function"
    }
  ],
  "bytecode": "0x608060405234801561001057600080fd5b506040516114fc3803806114fc83398101604081905261002f91610142565b338061005657604051631e4fbdf760e01b8152600060048201526024015b60405180910390fd5b61005f816100f2565b506001600160a01b0381166100cd5760405162461bcd60e51b815260206004820152602e60248201527f52756c6552656769737472793a2053545420746f6b656e20616464726573732060448201526d63616e6e6f74206265207a65726f60901b606482015260840161004d565b600180546001600160a01b0319166001600160a01b0392909216919091179055610172565b600080546001600160a01b038381166001600160a01b0319831681178455604051919092169283917f8be0079c531659141344cd1fd0a4f28419497f9722a3daafe3b4186f6b6457e09190a35050565b60006020828403121561015457600080fd5b81516001600160a01b038116811461016b57600080fd5b9392505050565b61137b806101816000396000f3fe608060405234801561001057600080fd5b50600436106100ea5760003560e01c80635ba43ffc1161008c578063715018a611610066578063715018a6146101de5780638da5cb5b146101e6578063961b1975146101f7578063f2fde38b1461020a57600080fd5b80635ba43ffc146101ba5780635c3ca910146101cd57806370f047b0146101d557600080fd5b80633cfd1ccc116100c85780633cfd1ccc1461015c5780633f6b8fca1461017257806344471fd914610187578063484620371461019a57600080fd5b806304d6ded4146100ef5780631184aef21461011c57806311eac85514610131575b600080fd5b6101026100fd366004610d96565b61021d565b604051610113959493929190610df5565b60405180910390f35b61012461035c565b6040516101139190610e8e565b600154610144906001600160a01b031681565b6040516001600160a01b039091168152602001610113565b61016461057c565b604051908152602001610113565b610185610180366004610f0f565b610624565b005b610185610195366004610f31565b61067e565b6101ad6101a8366004610d96565b610960565b6040516101139190610f5b565b600254610144906001600160a01b031681565b600354610164565b61016460035481565b610185610b43565b6000546001600160a01b0316610144565b610185610205366004610f6e565b610b57565b610185610218366004610f0f565b610bff565b6004602052600090815260409020805460018201805491929161023f90610fe2565b80601f016020809104026020016040519081016040528092919081815260200182805461026b90610fe2565b80156102b85780601f1061028d576101008083540402835291602001916102b8565b820191906000526020600020905b81548152906001019060200180831161029b57829003601f168201915b5050505050908060020180546102cd90610fe2565b80601f01602080910402602001604051908101604052809291908181526020018280546102f990610fe2565b80156103465780601f1061031b57610100808354040283529160200191610346565b820191906000526020600020905b81548152906001019060200180831161032957829003601f168201915b5050505050908060030154908060040154905085565b6060600060035467ffffffffffffffff81111561037b5761037b611016565b6040519080825280602002602001820160405280156103e157816020015b6103ce6040518060a0016040528060008019168152602001606081526020016060815260200160008152602001600081525090565b8152602001906001900390816103995790505b50905060005b60035481101561057657600460008281526020019081526020016000206040518060a00160405290816000820154815260200160018201805461042990610fe2565b80601f016020809104026020016040519081016040528092919081815260200182805461045590610fe2565b80156104a25780601f10610477576101008083540402835291602001916104a2565b820191906000526020600020905b81548152906001019060200180831161048557829003601f168201915b505050505081526020016002820180546104bb90610fe2565b80601f01602080910402602001604051908101604052809291908181526020018280546104e790610fe2565b80156105345780601f1061050957610100808354040283529160200191610534565b820191906000526020600020905b81548152906001019060200180831161051757829003601f168201915b50505050508152602001600382015481526020016004820154815250508282815181106105635761056361102c565b60209081029190910101526001016103e7565b50919050565b6001546000906001600160a01b03166105b05760405162461bcd60e51b81526004016105a790611042565b60405180910390fd5b6001546040516370a0823160e01b81523060048201526001600160a01b039091169081906370a0823190602401602060405180830381865afa1580156105fa573d6000803e3d6000fd5b505050506040513d601f19601f8201168201806040525081019061061e9190611089565b91505090565b61062c610c3d565b600280546001600160a01b038381166001600160a01b0319831681179093556040519116919082907fa7e53a6bde8f002e14316a9e482d555151e420a53c69b8922d7b0a7a7e79ef6990600090a35050565b610686610c3d565b6001546001600160a01b03166106ae5760405162461bcd60e51b81526004016105a790611042565b6001600160a01b0382166107145760405162461bcd60e51b815260206004820152602760248201527f52756c6552656769737472793a20696e76616c696420726563697069656e74206044820152666164647265737360c81b60648201526084016105a7565b6000811161077b5760405162461bcd60e51b815260206004820152602e60248201527f52756c6552656769737472793a20616d6f756e74206d7573742062652067726560448201526d61746572207468616e207a65726f60901b60648201526084016105a7565b6001546040516370a0823160e01b81523060048201526001600160a01b039091169060009082906370a0823190602401602060405180830381865afa1580156107c8573d6000803e3d6000fd5b505050506040513d601f19601f820116820180604052508101906107ec9190611089565b90508281101561084d5760405162461bcd60e51b815260206004820152602660248201527f52756c6552656769737472793a20696e73756666696369656e74205354542062604482015265616c616e636560d01b60648201526084016105a7565b60405163a9059cbb60e01b81526001600160a01b0385811660048301526024820185905283169063a9059cbb906044016020604051808303816000875af115801561089c573d6000803e3d6000fd5b505050506040513d601f19601f820116820180604052508101906108c091906110a2565b6109165760405162461bcd60e51b815260206004820152602160248201527f52756c6552656769737472793a20535454207472616e73666572206661696c656044820152601960fa1b60648201526084016105a7565b6001546040518481526001600160a01b038681169216907f2717ead6b9200dd235aad468c9809ea400fe33ac69b5bfaa6d3e90fc922b63989060200160405180910390a350505050565b6109956040518060a0016040528060008019168152602001606081526020016060815260200160008152602001600081525090565b60035482106109dc5760405162461bcd60e51b8152602060048201526013602482015272149d5b1948191bd95cc81b9bdd08195e1a5cdd606a1b60448201526064016105a7565b600460008381526020019081526020016000206040518060a001604052908160008201548152602001600182018054610a1490610fe2565b80601f0160208091040260200160405190810160405280929190818152602001828054610a4090610fe2565b8015610a8d5780601f10610a6257610100808354040283529160200191610a8d565b820191906000526020600020905b815481529060010190602001808311610a7057829003601f168201915b50505050508152602001600282018054610aa690610fe2565b80601f0160208091040260200160405190810160405280929190818152602001828054610ad290610fe2565b8015610b1f5780601f10610af457610100808354040283529160200191610b1f565b820191906000526020600020905b815481529060010190602001808311610b0257829003601f168201915b50505050508152602001600382015481526020016004820154815250509050919050565b610b4b610c3d565b610b556000610c6a565b565b6002546001600160a01b03163314610bcc5760405162461bcd60e51b815260206004820152603260248201527f52756c6552656769737472793a2063616c6c6572206973206e6f7420746865206044820152713932b0b1ba34bb34ba3c903430b7323632b960711b60648201526084016105a7565b600080808080610bde86880188611153565b94509450945094509450610bf58585858585610cba565b5050505050505050565b610c07610c3d565b6001600160a01b038116610c3157604051631e4fbdf760e01b8152600060048201526024016105a7565b610c3a81610c6a565b50565b6000546001600160a01b03163314610b555760405163118cdaa760e01b81523360048201526024016105a7565b600080546001600160a01b038381166001600160a01b0319831681178455604051919092169283917f8be0079c531659141344cd1fd0a4f28419497f9722a3daafe3b4186f6b6457e09190a35050565b60038054600091819083610ccd836111d7565b90915550506040805160a08101825288815260208082018981528284018990526060830188905260808301879052600085815260049092529290208151815591519091906001820190610d20908261124d565b5060408201516002820190610d35908261124d565b50606082015181600301556080820151816004015590505086817f500f12fa025b5c2655bd0938cc63539362f2b7adffd81d9ea12ffadd042061ce88888888604051610d84949392919061130c565b60405180910390a39695505050505050565b600060208284031215610da857600080fd5b5035919050565b6000815180845260005b81811015610dd557602081850181015186830182015201610db9565b506000602082860101526020601f19601f83011685010191505092915050565b85815260a060208201526000610e0e60a0830187610daf565b8281036040840152610e208187610daf565b60608401959095525050608001529392505050565b805182526000602082015160a06020850152610e5460a0850182610daf565b905060408301518482036040860152610e6d8282610daf565b91505060608301516060850152608083015160808501528091505092915050565b6000602082016020835280845180835260408501915060408160051b86010192506020860160005b82811015610ee757603f19878603018452610ed2858351610e35565b94506020938401939190910190600101610eb6565b50929695505050505050565b80356001600160a01b0381168114610f0a57600080fd5b919050565b600060208284031215610f2157600080fd5b610f2a82610ef3565b9392505050565b60008060408385031215610f4457600080fd5b610f4d83610ef3565b946020939093013593505050565b602081526000610f2a6020830184610e35565b60008060208385031215610f8157600080fd5b823567ffffffffffffffff811115610f9857600080fd5b8301601f81018513610fa957600080fd5b803567ffffffffffffffff811115610fc057600080fd5b856020828401011115610fd257600080fd5b6020919091019590945092505050565b600181811c90821680610ff657607f821691505b60208210810361057657634e487b7160e01b600052602260045260246000fd5b634e487b7160e01b600052604160045260246000fd5b634e487b7160e01b600052603260045260246000fd5b60208082526027908201527f52756c6552656769737472793a2053545420746f6b656e2061646472657373206040820152661b9bdd081cd95d60ca1b606082015260800190565b60006020828403121561109b57600080fd5b5051919050565b6000602082840312156110b457600080fd5b81518015158114610f2a57600080fd5b600082601f8301126110d557600080fd5b813567ffffffffffffffff8111156110ef576110ef611016565b604051601f8201601f19908116603f0116810167ffffffffffffffff8111828210171561111e5761111e611016565b60405281815283820160200185101561113657600080fd5b816020850160208301376000918101602001919091529392505050565b600080600080600060a0868803121561116b57600080fd5b85359450602086013567ffffffffffffffff81111561118957600080fd5b611195888289016110c4565b945050604086013567ffffffffffffffff8111156111b257600080fd5b6111be888289016110c4565b9598949750949560608101359550608001359392505050565b6000600182016111f757634e487b7160e01b600052601160045260246000fd5b5060010190565b601f82111561124857806000526020600020601f840160051c810160208510156112255750805b601f840160051c820191505b818110156112455760008155600101611231565b50505b505050565b815167ffffffffffffffff81111561126757611267611016565b61127b816112758454610fe2565b846111fe565b6020601f8211600181146112af57600083156112975750848201515b600019600385901b1c1916600184901b178455611245565b600084815260208120601f198516915b828110156112df57878501518255602094850194600190920191016112bf565b50848210156112fd5786840151600019600387901b60f8161c191681555b50505050600190811b01905550565b60808152600061131f6080830187610daf565b82810360208401526113318187610daf565b60408401959095525050606001529291505056fea2646970667358221220c704858dac4a85c72127cb0f8c5b2de149322b5aa7d6d9779e0b463294ea1a3164736f6c634300081e0033",
  "linkReferences": {},
  "deployedLinkReferences": {}
}