{
  "_format": "hh-sol-artifact-1",
  "contractName": "RuleRegistryReactivityHandler",
  "sourceName": "contracts/RuleRegistryReactivityHandler.sol",
  "abi": [
    {
      "inputs": [
        {
          "internalType": "address",
          "name": "_ruleRegistry",
          "type": "address"
        }
      ],
      "stateMutability": "nonpayable",
      "type": "constructor"
    },
    {
      "inputs": [],
      "name": "OnlyReactivityPrecompile",
      "type": "error"
    },
    {
      "inputs": [
        {
          "internalType": "address",
          "name": "emitter",
          "type": "address"
        },
        {
          "internalType": "bytes32[]",
          "name": "eventTopics",
          "type": "bytes32[]"
        },
        {
          "internalType": "bytes",
          "name": "data",
          "type": "bytes"
        }
      ],
      "name": "onEvent",
      "outputs": [],
      "stateMutability": "nonpayable",
      "type": "function"
    },
    {
      "inputs": [],
      "name": "ruleRegistry",
      "outputs": [
        {
          "internalType": "contract RuleRegistry",
          "name": "",
          "type": "address"
        }
      ],
      "stateMutability": "view",
      "type": "function"
    },
    {
      "inputs": [
        {
          "internalType": "bytes4",
          "name": "interfaceId",
          "type": "bytes4"
        }
      ],
      "name": "supportsInterface",
      "outputs": [
        {
          "internalType": "bool",
          "name": "",
          "type": "bool"
        }
      ],
      "stateMutability": "pure",
      "type": "function"
    }
  ],
  "bytecode": "0x60a060405234801561001057600080fd5b5060405161045e38038061045e83398101604081905261002f916100af565b6001600160a01b03811661009e5760405162461bcd60e51b815260206004820152602c60248201527f52756c6552656769737472795265616374697669747948616e646c65723a207a60448201526b65726f20726567697374727960a01b606482015260840160405180910390fd5b6001600160a01b03166080526100df565b6000602082840312156100c157600080fd5b81516001600160a01b03811681146100d857600080fd5b9392505050565b60805161035e6101006000396000818160880152610146015261035e6000f3fe608060405234801561001057600080fd5b50600436106100415760003560e01c806301ffc9a71461004657806353edf33d1461006e578063b166473714610083575b600080fd5b6100596100543660046101b6565b6100c2565b60405190151581526020015b60405180910390f35b61008161007c366004610230565b6100f9565b005b6100aa7f000000000000000000000000000000000000000000000000000000000000000081565b6040516001600160a01b039091168152602001610065565b60006301ffc9a760e01b6001600160e01b0319831614806100f357506353edf33d60e01b6001600160e01b03198316145b92915050565b336101001461011b5760405163191fbb7560e01b815260040160405180910390fd5b610128858585858561012f565b5050505050565b60405163961b197560e01b81526001600160a01b037f0000000000000000000000000000000000000000000000000000000000000000169063961b19759061017d90859085906004016102f9565b600060405180830381600087803b15801561019757600080fd5b505af11580156101ab573d6000803e3d6000fd5b505050505050505050565b6000602082840312156101c857600080fd5b81356001600160e01b0319811681146101e057600080fd5b9392505050565b60008083601f8401126101f957600080fd5b50813567ffffffffffffffff81111561021157600080fd5b60208301915083602082850101111561022957600080fd5b9250929050565b60008060008060006060868803121561024857600080fd5b85356001600160a01b038116811461025f57600080fd5b9450602086013567ffffffffffffffff81111561027b57600080fd5b8601601f8101881361028c57600080fd5b803567ffffffffffffffff8111156102a357600080fd5b8860208260051b84010111156102b857600080fd5b60209190910194509250604086013567ffffffffffffffff8111156102dc57600080fd5b6102e8888289016101e7565b969995985093965092949392505050565b60208152816020820152818360408301376000818301604090810191909152601f909201601f1916010191905056fea2646970667358221220b895071de9519baec0dbb72203af6e14a4d08706284550646df6db1922f8a12c64736f6c634300081e0033",
  "linkReferences": {},
  "deployedLinkReferences": {}
}